{
  "_format": "hh-sol-artifact-1",
  "contractName": "RuneFactory",
  "sourceName": "contracts/RuneFactory.sol",
  "abi": [
    {
      "anonymous": false,
      "inputs": [
        {
          "indexed": false,
          "internalType": "address",
          "name": "tokenAddress",
          "type": "address"
        },
        {
          "indexed": false,
          "internalType": "string",
          "name": "name",
          "type": "string"
        },
        {
          "indexed": false,
          "internalType": "string",
          "name": "symbol",
          "type": "string"
        },
        {
          "indexed": false,
          "internalType": "uint256",
          "name": "initialSupply",
          "type": "uint256"
        },
        {
          "indexed": false,
          "internalType": "address",
          "name": "initialOwner",
          "type": "address"
        },
        {
          "indexed": false,
          "internalType": "uint256",
          "name": "runeIDBTC",
          "type": "uint256"
        }
      ],
      "name": "TokenCreated",
      "type": "event"
    },
    {
      "inputs": [
        {
          "internalType": "string",
          "name": "name",
          "type": "string"
        },
        {
          "internalType": "string",
          "name": "symbol",
          "type": "string"
        },
        {
          "internalType": "uint256",
          "name": "initialSupply",
          "type": "uint256"
        },
        {
          "internalType": "address",
          "name": "initialOwner",
          "type": "address"
        },
        {
          "internalType": "uint256",
          "name": "runeIDBTC",
          "type": "uint256"
        },
        {
          "internalType": "bytes32",
          "name": "salt",
          "type": "bytes32"
        },
        {
          "internalType": "uint256",
          "name": "_mintAmount",
          "type": "uint256"
        },
        {
          "internalType": "uint256",
          "name": "_maxSupply",
          "type": "uint256"
        }
      ],
      "name": "createRune",
      "outputs": [],
      "stateMutability": "nonpayable",
      "type": "function"
    },
    {
      "inputs": [
        {
          "internalType": "uint256",
          "name": "index",
          "type": "uint256"
        }
      ],
      "name": "getToken",
      "outputs": [
        {
          "components": [
            {
              "internalType": "string",
              "name": "name",
              "type": "string"
            },
            {
              "internalType": "string",
              "name": "symbol",
              "type": "string"
            },
            {
              "internalType": "uint256",
              "name": "initialSupply",
              "type": "uint256"
            },
            {
              "internalType": "address",
              "name": "initialOwner",
              "type": "address"
            },
            {
              "internalType": "uint256",
              "name": "runeIDBTC",
              "type": "uint256"
            },
            {
              "internalType": "uint256",
              "name": "mintAmount",
              "type": "uint256"
            },
            {
              "internalType": "uint256",
              "name": "maxSupply",
              "type": "uint256"
            }
          ],
          "internalType": "struct RuneFactory.Token",
          "name": "",
          "type": "tuple"
        }
      ],
      "stateMutability": "view",
      "type": "function"
    },
    {
      "inputs": [
        {
          "internalType": "string",
          "name": "name",
          "type": "string"
        },
        {
          "internalType": "string",
          "name": "symbol",
          "type": "string"
        },
        {
          "internalType": "uint256",
          "name": "initialSupply",
          "type": "uint256"
        },
        {
          "internalType": "address",
          "name": "initialOwner",
          "type": "address"
        },
        {
          "internalType": "bytes32",
          "name": "salt",
          "type": "bytes32"
        },
        {
          "internalType": "uint256",
          "name": "_mintAmount",
          "type": "uint256"
        },
        {
          "internalType": "uint256",
          "name": "_maxSupply",
          "type": "uint256"
        }
      ],
      "name": "getTokenAddress",
      "outputs": [
        {
          "internalType": "address",
          "name": "",
          "type": "address"
        }
      ],
      "stateMutability": "view",
      "type": "function"
    },
    {
      "inputs": [],
      "name": "getTokenCount",
      "outputs": [
        {
          "internalType": "uint256",
          "name": "",
          "type": "uint256"
        }
      ],
      "stateMutability": "view",
      "type": "function"
    },
    {
      "inputs": [],
      "name": "getTokens",
      "outputs": [
        {
          "components": [
            {
              "internalType": "string",
              "name": "name",
              "type": "string"
            },
            {
              "internalType": "string",
              "name": "symbol",
              "type": "string"
            },
            {
              "internalType": "uint256",
              "name": "initialSupply",
              "type": "uint256"
            },
            {
              "internalType": "address",
              "name": "initialOwner",
              "type": "address"
            },
            {
              "internalType": "uint256",
              "name": "runeIDBTC",
              "type": "uint256"
            },
            {
              "internalType": "uint256",
              "name": "mintAmount",
              "type": "uint256"
            },
            {
              "internalType": "uint256",
              "name": "maxSupply",
              "type": "uint256"
            }
          ],
          "internalType": "struct RuneFactory.Token[]",
          "name": "",
          "type": "tuple[]"
        }
      ],
      "stateMutability": "view",
      "type": "function"
    },
    {
      "inputs": [
        {
          "internalType": "uint256",
          "name": "",
          "type": "uint256"
        }
      ],
      "name": "tokens",
      "outputs": [
        {
          "internalType": "string",
          "name": "name",
          "type": "string"
        },
        {
          "internalType": "string",
          "name": "symbol",
          "type": "string"
        },
        {
          "internalType": "uint256",
          "name": "initialSupply",
          "type": "uint256"
        },
        {
          "internalType": "address",
          "name": "initialOwner",
          "type": "address"
        },
        {
          "internalType": "uint256",
          "name": "runeIDBTC",
          "type": "uint256"
        },
        {
          "internalType": "uint256",
          "name": "mintAmount",
          "type": "uint256"
        },
        {
          "internalType": "uint256",
          "name": "maxSupply",
          "type": "uint256"
        }
      ],
      "stateMutability": "view",
      "type": "function"
    }
  ],
  "bytecode": "0x608060405234801561001057600080fd5b50613881806100206000396000f3fe60806040523480156200001157600080fd5b50600436106200006a5760003560e01c8063244d6849146200006f5780634f64b2be14620000a557806378a8956714620000e1578063a2865b241462000103578063aa6ca8081462000123578063e4b50cb81462000145575b600080fd5b6200008d600480360381019062000087919062000cd2565b6200017b565b6040516200009c919062000dd4565b60405180910390f35b620000c36004803603810190620000bd919062000df1565b62000245565b604051620000d8979695949392919062000ebd565b60405180910390f35b620000eb620003d8565b604051620000fa919062000f48565b60405180910390f35b6200012160048036038101906200011b919062000f65565b620003e4565b005b6200012d6200061a565b6040516200013c919062001261565b60405180910390f35b6200016360048036038101906200015d919062000df1565b6200082d565b60405162000172919062001336565b60405180910390f35b60008060405180602001620001909062000a20565b6020820181038252601f19601f82011660405250898989898888604051602001620001c1969594939291906200135a565b604051602081830303815290604052604051602001620001e392919062001422565b6040516020818303038152906040529050600060ff60f81b308784805190602001206040516020016200021a949392919062001510565b6040516020818303038152906040528051906020012090508060001c92505050979650505050505050565b600081815481106200025657600080fd5b90600052602060002090600702016000915090508060000180546200027b9062001595565b80601f0160208091040260200160405190810160405280929190818152602001828054620002a99062001595565b8015620002fa5780601f10620002ce57610100808354040283529160200191620002fa565b820191906000526020600020905b815481529060010190602001808311620002dc57829003601f168201915b505050505090806001018054620003119062001595565b80601f01602080910402602001604051908101604052809291908181526020018280546200033f9062001595565b8015620003905780601f10620003645761010080835404028352916020019162000390565b820191906000526020600020905b8154815290600101906020018083116200037257829003601f168201915b5050505050908060020154908060030160009054906101000a900473ffffffffffffffffffffffffffffffffffffffff16908060040154908060050154908060060154905087565b60008080549050905090565b6000620003f7898989898888886200017b565b90506000848a8a8a8a8888604051620004109062000a20565b62000421969594939291906200135a565b8190604051809103906000f590508015801562000442573d6000803e3d6000fd5b5090508173ffffffffffffffffffffffffffffffffffffffff168173ffffffffffffffffffffffffffffffffffffffff1614620004b6576040517f08c379a0000000000000000000000000000000000000000000000000000000008152600401620004ad906200161a565b60405180910390fd5b60006040518060e001604052808c81526020018b81526020018a81526020018973ffffffffffffffffffffffffffffffffffffffff16815260200188815260200186815260200185815250908060018154018082558091505060019003906000526020600020906007020160009091909190915060008201518160000190816200054191906200180e565b5060208201518160010190816200055991906200180e565b506040820151816002015560608201518160030160006101000a81548173ffffffffffffffffffffffffffffffffffffffff021916908373ffffffffffffffffffffffffffffffffffffffff1602179055506080820151816004015560a0820151816005015560c0820151816006015550507f3ea1c20b5a0e37dab80c0678ad8447b2270aa50ee634c95c058140c55299e5b4818b8b8b8b8b6040516200060696959493929190620018f5565b60405180910390a150505050505050505050565b60606000805480602002602001604051908101604052809291908181526020016000905b828210156200082457838290600052602060002090600702016040518060e0016040529081600082018054620006749062001595565b80601f0160208091040260200160405190810160405280929190818152602001828054620006a29062001595565b8015620006f35780601f10620006c757610100808354040283529160200191620006f3565b820191906000526020600020905b815481529060010190602001808311620006d557829003601f168201915b505050505081526020016001820180546200070e9062001595565b80601f01602080910402602001604051908101604052809291908181526020018280546200073c9062001595565b80156200078d5780601f1062000761576101008083540402835291602001916200078d565b820191906000526020600020905b8154815290600101906020018083116200076f57829003601f168201915b50505050508152602001600282015481526020016003820160009054906101000a900473ffffffffffffffffffffffffffffffffffffffff1673ffffffffffffffffffffffffffffffffffffffff1673ffffffffffffffffffffffffffffffffffffffff1681526020016004820154815260200160058201548152602001600682015481525050815260200190600101906200063e565b50505050905090565b6200083762000a2e565b600082815481106200084e576200084d62001970565b5b90600052602060002090600702016040518060e0016040529081600082018054620008799062001595565b80601f0160208091040260200160405190810160405280929190818152602001828054620008a79062001595565b8015620008f85780601f10620008cc57610100808354040283529160200191620008f8565b820191906000526020600020905b815481529060010190602001808311620008da57829003601f168201915b50505050508152602001600182018054620009139062001595565b80601f0160208091040260200160405190810160405280929190818152602001828054620009419062001595565b8015620009925780601f10620009665761010080835404028352916020019162000992565b820191906000526020600020905b8154815290600101906020018083116200097457829003601f168201915b50505050508152602001600282015481526020016003820160009054906101000a900473ffffffffffffffffffffffffffffffffffffffff1673ffffffffffffffffffffffffffffffffffffffff1673ffffffffffffffffffffffffffffffffffffffff16815260200160048201548152602001600582015481526020016006820154815250509050919050565b611eac80620019a083390190565b6040518060e00160405280606081526020016060815260200160008152602001600073ffffffffffffffffffffffffffffffffffffffff1681526020016000815260200160008152602001600081525090565b6000604051905090565b600080fd5b600080fd5b600080fd5b600080fd5b6000601f19601f8301169050919050565b7f4e487b7100000000000000000000000000000000000000000000000000000000600052604160045260246000fd5b62000aea8262000a9f565b810181811067ffffffffffffffff8211171562000b0c5762000b0b62000ab0565b5b80604052505050565b600062000b2162000a81565b905062000b2f828262000adf565b919050565b600067ffffffffffffffff82111562000b525762000b5162000ab0565b5b62000b5d8262000a9f565b9050602081019050919050565b82818337600083830152505050565b600062000b9062000b8a8462000b34565b62000b15565b90508281526020810184848401111562000baf5762000bae62000a9a565b5b62000bbc84828562000b6a565b509392505050565b600082601f83011262000bdc5762000bdb62000a95565b5b813562000bee84826020860162000b79565b91505092915050565b6000819050919050565b62000c0c8162000bf7565b811462000c1857600080fd5b50565b60008135905062000c2c8162000c01565b92915050565b600073ffffffffffffffffffffffffffffffffffffffff82169050919050565b600062000c5f8262000c32565b9050919050565b62000c718162000c52565b811462000c7d57600080fd5b50565b60008135905062000c918162000c66565b92915050565b6000819050919050565b62000cac8162000c97565b811462000cb857600080fd5b50565b60008135905062000ccc8162000ca1565b92915050565b600080600080600080600060e0888a03121562000cf45762000cf362000a8b565b5b600088013567ffffffffffffffff81111562000d155762000d1462000a90565b5b62000d238a828b0162000bc4565b975050602088013567ffffffffffffffff81111562000d475762000d4662000a90565b5b62000d558a828b0162000bc4565b965050604062000d688a828b0162000c1b565b955050606062000d7b8a828b0162000c80565b945050608062000d8e8a828b0162000cbb565b93505060a062000da18a828b0162000c1b565b92505060c062000db48a828b0162000c1b565b91505092959891949750929550565b62000dce8162000c52565b82525050565b600060208201905062000deb600083018462000dc3565b92915050565b60006020828403121562000e0a5762000e0962000a8b565b5b600062000e1a8482850162000c1b565b91505092915050565b600081519050919050565b600082825260208201905092915050565b60005b8381101562000e5f57808201518184015260208101905062000e42565b60008484015250505050565b600062000e788262000e23565b62000e84818562000e2e565b935062000e9681856020860162000e3f565b62000ea18162000a9f565b840191505092915050565b62000eb78162000bf7565b82525050565b600060e082019050818103600083015262000ed9818a62000e6b565b9050818103602083015262000eef818962000e6b565b905062000f00604083018862000eac565b62000f0f606083018762000dc3565b62000f1e608083018662000eac565b62000f2d60a083018562000eac565b62000f3c60c083018462000eac565b98975050505050505050565b600060208201905062000f5f600083018462000eac565b92915050565b600080600080600080600080610100898b03121562000f895762000f8862000a8b565b5b600089013567ffffffffffffffff81111562000faa5762000fa962000a90565b5b62000fb88b828c0162000bc4565b985050602089013567ffffffffffffffff81111562000fdc5762000fdb62000a90565b5b62000fea8b828c0162000bc4565b975050604062000ffd8b828c0162000c1b565b9650506060620010108b828c0162000c80565b9550506080620010238b828c0162000c1b565b94505060a0620010368b828c0162000cbb565b93505060c0620010498b828c0162000c1b565b92505060e06200105c8b828c0162000c1b565b9150509295985092959890939650565b600081519050919050565b600082825260208201905092915050565b6000819050602082019050919050565b600082825260208201905092915050565b6000620010b68262000e23565b620010c2818562001098565b9350620010d481856020860162000e3f565b620010df8162000a9f565b840191505092915050565b620010f58162000bf7565b82525050565b620011068162000c52565b82525050565b600060e08301600083015184820360008601526200112b8282620010a9565b91505060208301518482036020860152620011478282620010a9565b91505060408301516200115e6040860182620010ea565b506060830151620011736060860182620010fb565b506080830151620011886080860182620010ea565b5060a08301516200119d60a0860182620010ea565b5060c0830151620011b260c0860182620010ea565b508091505092915050565b6000620011cb83836200110c565b905092915050565b6000602082019050919050565b6000620011ed826200106c565b620011f9818562001077565b9350836020820285016200120d8562001088565b8060005b858110156200124f57848403895281516200122d8582620011bd565b94506200123a83620011d3565b925060208a0199505060018101905062001211565b50829750879550505050505092915050565b600060208201905081810360008301526200127d8184620011e0565b905092915050565b600060e0830160008301518482036000860152620012a48282620010a9565b91505060208301518482036020860152620012c08282620010a9565b9150506040830151620012d76040860182620010ea565b506060830151620012ec6060860182620010fb565b506080830151620013016080860182620010ea565b5060a08301516200131660a0860182620010ea565b5060c08301516200132b60c0860182620010ea565b508091505092915050565b6000602082019050818103600083015262001352818462001285565b905092915050565b600060c082019050818103600083015262001376818962000e6b565b905081810360208301526200138c818862000e6b565b90506200139d604083018762000eac565b620013ac606083018662000dc3565b620013bb608083018562000eac565b620013ca60a083018462000eac565b979650505050505050565b600081519050919050565b600081905092915050565b6000620013f882620013d5565b620014048185620013e0565b93506200141681856020860162000e3f565b80840191505092915050565b6000620014308285620013eb565b91506200143e8284620013eb565b91508190509392505050565b60007fff0000000000000000000000000000000000000000000000000000000000000082169050919050565b6000819050919050565b620014956200148f826200144a565b62001476565b82525050565b60008160601b9050919050565b6000620014b5826200149b565b9050919050565b6000620014c982620014a8565b9050919050565b620014e5620014df8262000c52565b620014bc565b82525050565b6000819050919050565b6200150a620015048262000c97565b620014eb565b82525050565b60006200151e828762001480565b600182019150620015308286620014d0565b601482019150620015428285620014f5565b602082019150620015548284620014f5565b60208201915081905095945050505050565b7f4e487b7100000000000000000000000000000000000000000000000000000000600052602260045260246000fd5b60006002820490506001821680620015ae57607f821691505b602082108103620015c457620015c362001566565b5b50919050565b7f416464726573732070726564696374696f6e206661696c656400000000000000600082015250565b60006200160260198362000e2e565b91506200160f82620015ca565b602082019050919050565b600060208201905081810360008301526200163581620015f3565b9050919050565b60008190508160005260206000209050919050565b60006020601f8301049050919050565b600082821b905092915050565b600060088302620016a07fffffffffffffffffffffffffffffffffffffffffffffffffffffffffffffffff8262001661565b620016ac868362001661565b95508019841693508086168417925050509392505050565b6000819050919050565b6000620016ef620016e9620016e38462000bf7565b620016c4565b62000bf7565b9050919050565b6000819050919050565b6200170b83620016ce565b620017236200171a82620016f6565b8484546200166e565b825550505050565b600090565b6200173a6200172b565b6200174781848462001700565b505050565b5b818110156200176f576200176360008262001730565b6001810190506200174d565b5050565b601f821115620017be5762001788816200163c565b620017938462001651565b81016020851015620017a3578190505b620017bb620017b28562001651565b8301826200174c565b50505b505050565b600082821c905092915050565b6000620017e360001984600802620017c3565b1980831691505092915050565b6000620017fe8383620017d0565b9150826002028217905092915050565b620018198262000e23565b67ffffffffffffffff81111562001835576200183462000ab0565b5b62001841825462001595565b6200184e82828562001773565b600060209050601f83116001811462001886576000841562001871578287015190505b6200187d8582620017f0565b865550620018ed565b601f19841662001896866200163c565b60005b82811015620018c05784890151825560018201915060208501945060208101905062001899565b86831015620018e05784890151620018dc601f891682620017d0565b8355505b6001600288020188555050505b505050505050565b600060c0820190506200190c600083018962000dc3565b818103602083015262001920818862000e6b565b9050818103604083015262001936818762000e6b565b905062001947606083018662000eac565b62001956608083018562000dc3565b6200196560a083018462000eac565b979650505050505050565b7f4e487b7100000000000000000000000000000000000000000000000000000000600052603260045260246000fdfe60806040523480156200001157600080fd5b5060405162001eac38038062001eac8339818101604052810190620000379190620006c9565b82868681600390816200004b9190620009e4565b5080600490816200005d9190620009e4565b505050600073ffffffffffffffffffffffffffffffffffffffff168173ffffffffffffffffffffffffffffffffffffffff1603620000d55760006040517f1e4fbdf7000000000000000000000000000000000000000000000000000000008152600401620000cc919062000adc565b60405180910390fd5b620000e6816200011360201b60201c565b50620000f98385620001d960201b60201c565b816006819055508060078190555050505050505062000bce565b6000600560009054906101000a900473ffffffffffffffffffffffffffffffffffffffff16905081600560006101000a81548173ffffffffffffffffffffffffffffffffffffffff021916908373ffffffffffffffffffffffffffffffffffffffff1602179055508173ffffffffffffffffffffffffffffffffffffffff168173ffffffffffffffffffffffffffffffffffffffff167f8be0079c531659141344cd1fd0a4f28419497f9722a3daafe3b4186f6b6457e060405160405180910390a35050565b600073ffffffffffffffffffffffffffffffffffffffff168273ffffffffffffffffffffffffffffffffffffffff16036200024e5760006040517fec442f0500000000000000000000000000000000000000000000000000000000815260040162000245919062000adc565b60405180910390fd5b62000262600083836200026660201b60201c565b5050565b600073ffffffffffffffffffffffffffffffffffffffff168373ffffffffffffffffffffffffffffffffffffffff1603620002bc578060026000828254620002af919062000b28565b9250508190555062000392565b60008060008573ffffffffffffffffffffffffffffffffffffffff1673ffffffffffffffffffffffffffffffffffffffff168152602001908152602001600020549050818110156200034b578381836040517fe450d38c000000000000000000000000000000000000000000000000000000008152600401620003429392919062000b74565b60405180910390fd5b8181036000808673ffffffffffffffffffffffffffffffffffffffff1673ffffffffffffffffffffffffffffffffffffffff16815260200190815260200160002081905550505b600073ffffffffffffffffffffffffffffffffffffffff168273ffffffffffffffffffffffffffffffffffffffff1603620003dd57806002600082825403925050819055506200042a565b806000808473ffffffffffffffffffffffffffffffffffffffff1673ffffffffffffffffffffffffffffffffffffffff168152602001908152602001600020600082825401925050819055505b8173ffffffffffffffffffffffffffffffffffffffff168373ffffffffffffffffffffffffffffffffffffffff167fddf252ad1be2c89b69c2b068fc378daa952ba7f163c4a11628f55a4df523b3ef8360405162000489919062000bb1565b60405180910390a3505050565b6000604051905090565b600080fd5b600080fd5b600080fd5b600080fd5b6000601f19601f8301169050919050565b7f4e487b7100000000000000000000000000000000000000000000000000000000600052604160045260246000fd5b620004ff82620004b4565b810181811067ffffffffffffffff82111715620005215762000520620004c5565b5b80604052505050565b60006200053662000496565b9050620005448282620004f4565b919050565b600067ffffffffffffffff821115620005675762000566620004c5565b5b6200057282620004b4565b9050602081019050919050565b60005b838110156200059f57808201518184015260208101905062000582565b60008484015250505050565b6000620005c2620005bc8462000549565b6200052a565b905082815260208101848484011115620005e157620005e0620004af565b5b620005ee8482856200057f565b509392505050565b600082601f8301126200060e576200060d620004aa565b5b815162000620848260208601620005ab565b91505092915050565b6000819050919050565b6200063e8162000629565b81146200064a57600080fd5b50565b6000815190506200065e8162000633565b92915050565b600073ffffffffffffffffffffffffffffffffffffffff82169050919050565b6000620006918262000664565b9050919050565b620006a38162000684565b8114620006af57600080fd5b50565b600081519050620006c38162000698565b92915050565b60008060008060008060c08789031215620006e957620006e8620004a0565b5b600087015167ffffffffffffffff8111156200070a5762000709620004a5565b5b6200071889828a01620005f6565b965050602087015167ffffffffffffffff8111156200073c576200073b620004a5565b5b6200074a89828a01620005f6565b95505060406200075d89828a016200064d565b94505060606200077089828a01620006b2565b93505060806200078389828a016200064d565b92505060a06200079689828a016200064d565b9150509295509295509295565b600081519050919050565b7f4e487b7100000000000000000000000000000000000000000000000000000000600052602260045260246000fd5b60006002820490506001821680620007f657607f821691505b6020821081036200080c576200080b620007ae565b5b50919050565b60008190508160005260206000209050919050565b60006020601f8301049050919050565b600082821b905092915050565b600060088302620008767fffffffffffffffffffffffffffffffffffffffffffffffffffffffffffffffff8262000837565b62000882868362000837565b95508019841693508086168417925050509392505050565b6000819050919050565b6000620008c5620008bf620008b98462000629565b6200089a565b62000629565b9050919050565b6000819050919050565b620008e183620008a4565b620008f9620008f082620008cc565b84845462000844565b825550505050565b600090565b6200091062000901565b6200091d818484620008d6565b505050565b5b8181101562000945576200093960008262000906565b60018101905062000923565b5050565b601f82111562000994576200095e8162000812565b620009698462000827565b8101602085101562000979578190505b62000991620009888562000827565b83018262000922565b50505b505050565b600082821c905092915050565b6000620009b96000198460080262000999565b1980831691505092915050565b6000620009d48383620009a6565b9150826002028217905092915050565b620009ef82620007a3565b67ffffffffffffffff81111562000a0b5762000a0a620004c5565b5b62000a178254620007dd565b62000a2482828562000949565b600060209050601f83116001811462000a5c576000841562000a47578287015190505b62000a538582620009c6565b86555062000ac3565b601f19841662000a6c8662000812565b60005b8281101562000a965784890151825560018201915060208501945060208101905062000a6f565b8683101562000ab6578489015162000ab2601f891682620009a6565b8355505b6001600288020188555050505b505050505050565b62000ad68162000684565b82525050565b600060208201905062000af3600083018462000acb565b92915050565b7f4e487b7100000000000000000000000000000000000000000000000000000000600052601160045260246000fd5b600062000b358262000629565b915062000b428362000629565b925082820190508082111562000b5d5762000b5c62000af9565b5b92915050565b62000b6e8162000629565b82525050565b600060608201905062000b8b600083018662000acb565b62000b9a602083018562000b63565b62000ba9604083018462000b63565b949350505050565b600060208201905062000bc8600083018462000b63565b92915050565b6112ce8062000bde6000396000f3fe608060405234801561001057600080fd5b50600436106100f55760003560e01c806370a0823111610097578063a8995deb11610066578063a8995deb14610264578063a9059cbb14610282578063dd62ed3e146102b2578063f2fde38b146102e2576100f5565b806370a08231146101ee578063715018a61461021e5780638da5cb5b1461022857806395d89b4114610246576100f5565b806323b872dd116100d357806323b872dd14610166578063313ce567146101965780634c0f38c2146101b45780636a627842146101d2576100f5565b806306fdde03146100fa578063095ea7b31461011857806318160ddd14610148575b600080fd5b6101026102fe565b60405161010f9190610eb6565b60405180910390f35b610132600480360381019061012d9190610f71565b610390565b60405161013f9190610fcc565b60405180910390f35b6101506103b3565b60405161015d9190610ff6565b60405180910390f35b610180600480360381019061017b9190611011565b6103bd565b60405161018d9190610fcc565b60405180910390f35b61019e6103ec565b6040516101ab9190611080565b60405180910390f35b6101bc6103f5565b6040516101c99190610ff6565b60405180910390f35b6101ec60048036038101906101e7919061109b565b6103ff565b005b6102086004803603810190610203919061109b565b610467565b6040516102159190610ff6565b60405180910390f35b6102266104af565b005b6102306104c3565b60405161023d91906110d7565b60405180910390f35b61024e6104ed565b60405161025b9190610eb6565b60405180910390f35b61026c61057f565b6040516102799190610ff6565b60405180910390f35b61029c60048036038101906102979190610f71565b610589565b6040516102a99190610fcc565b60405180910390f35b6102cc60048036038101906102c791906110f2565b6105ac565b6040516102d99190610ff6565b60405180910390f35b6102fc60048036038101906102f7919061109b565b610633565b005b60606003805461030d90611161565b80601f016020809104026020016040519081016040528092919081815260200182805461033990611161565b80156103865780601f1061035b57610100808354040283529160200191610386565b820191906000526020600020905b81548152906001019060200180831161036957829003601f168201915b5050505050905090565b60008061039b6106b9565b90506103a88185856106c1565b600191505092915050565b6000600254905090565b6000806103c86106b9565b90506103d58582856106d3565b6103e0858585610767565b60019150509392505050565b60006012905090565b6000600754905090565b60075460065461040d6103b3565b61041791906111c1565b1115610458576040517f08c379a000000000000000000000000000000000000000000000000000000000815260040161044f90611241565b60405180910390fd5b6104648160065461085b565b50565b60008060008373ffffffffffffffffffffffffffffffffffffffff1673ffffffffffffffffffffffffffffffffffffffff168152602001908152602001600020549050919050565b6104b76108dd565b6104c16000610964565b565b6000600560009054906101000a900473ffffffffffffffffffffffffffffffffffffffff16905090565b6060600480546104fc90611161565b80601f016020809104026020016040519081016040528092919081815260200182805461052890611161565b80156105755780601f1061054a57610100808354040283529160200191610575565b820191906000526020600020905b81548152906001019060200180831161055857829003601f168201915b5050505050905090565b6000600654905090565b6000806105946106b9565b90506105a1818585610767565b600191505092915050565b6000600160008473ffffffffffffffffffffffffffffffffffffffff1673ffffffffffffffffffffffffffffffffffffffff16815260200190815260200160002060008373ffffffffffffffffffffffffffffffffffffffff1673ffffffffffffffffffffffffffffffffffffffff16815260200190815260200160002054905092915050565b61063b6108dd565b600073ffffffffffffffffffffffffffffffffffffffff168173ffffffffffffffffffffffffffffffffffffffff16036106ad5760006040517f1e4fbdf70000000000000000000000000000000000000000000000000000000081526004016106a491906110d7565b60405180910390fd5b6106b681610964565b50565b600033905090565b6106ce8383836001610a2a565b505050565b60006106df84846105ac565b90507fffffffffffffffffffffffffffffffffffffffffffffffffffffffffffffffff81146107615781811015610751578281836040517ffb8f41b200000000000000000000000000000000000000000000000000000000815260040161074893929190611261565b60405180910390fd5b61076084848484036000610a2a565b5b50505050565b600073ffffffffffffffffffffffffffffffffffffffff168373ffffffffffffffffffffffffffffffffffffffff16036107d95760006040517f96c6fd1e0000000000000000000000000000000000000000000000000000000081526004016107d091906110d7565b60405180910390fd5b600073ffffffffffffffffffffffffffffffffffffffff168273ffffffffffffffffffffffffffffffffffffffff160361084b5760006040517fec442f0500000000000000000000000000000000000000000000000000000000815260040161084291906110d7565b60405180910390fd5b610856838383610c01565b505050565b600073ffffffffffffffffffffffffffffffffffffffff168273ffffffffffffffffffffffffffffffffffffffff16036108cd5760006040517fec442f050000000000000000000000000000000000000000000000000000000081526004016108c491906110d7565b60405180910390fd5b6108d960008383610c01565b5050565b6108e56106b9565b73ffffffffffffffffffffffffffffffffffffffff166109036104c3565b73ffffffffffffffffffffffffffffffffffffffff1614610962576109266106b9565b6040517f118cdaa700000000000000000000000000000000000000000000000000000000815260040161095991906110d7565b60405180910390fd5b565b6000600560009054906101000a900473ffffffffffffffffffffffffffffffffffffffff16905081600560006101000a81548173ffffffffffffffffffffffffffffffffffffffff021916908373ffffffffffffffffffffffffffffffffffffffff1602179055508173ffffffffffffffffffffffffffffffffffffffff168173ffffffffffffffffffffffffffffffffffffffff167f8be0079c531659141344cd1fd0a4f28419497f9722a3daafe3b4186f6b6457e060405160405180910390a35050565b600073ffffffffffffffffffffffffffffffffffffffff168473ffffffffffffffffffffffffffffffffffffffff1603610a9c5760006040517fe602df05000000000000000000000000000000000000000000000000000000008152600401610a9391906110d7565b60405180910390fd5b600073ffffffffffffffffffffffffffffffffffffffff168373ffffffffffffffffffffffffffffffffffffffff1603610b0e5760006040517f94280d62000000000000000000000000000000000000000000000000000000008152600401610b0591906110d7565b60405180910390fd5b81600160008673ffffffffffffffffffffffffffffffffffffffff1673ffffffffffffffffffffffffffffffffffffffff16815260200190815260200160002060008573ffffffffffffffffffffffffffffffffffffffff1673ffffffffffffffffffffffffffffffffffffffff168152602001908152602001600020819055508015610bfb578273ffffffffffffffffffffffffffffffffffffffff168473ffffffffffffffffffffffffffffffffffffffff167f8c5be1e5ebec7d5bd14f71427d1e84f3dd0314c0f7b2291e5b200ac8c7c3b92584604051610bf29190610ff6565b60405180910390a35b50505050565b600073ffffffffffffffffffffffffffffffffffffffff168373ffffffffffffffffffffffffffffffffffffffff1603610c53578060026000828254610c4791906111c1565b92505081905550610d26565b60008060008573ffffffffffffffffffffffffffffffffffffffff1673ffffffffffffffffffffffffffffffffffffffff16815260200190815260200160002054905081811015610cdf578381836040517fe450d38c000000000000000000000000000000000000000000000000000000008152600401610cd693929190611261565b60405180910390fd5b8181036000808673ffffffffffffffffffffffffffffffffffffffff1673ffffffffffffffffffffffffffffffffffffffff16815260200190815260200160002081905550505b600073ffffffffffffffffffffffffffffffffffffffff168273ffffffffffffffffffffffffffffffffffffffff1603610d6f5780600260008282540392505081905550610dbc565b806000808473ffffffffffffffffffffffffffffffffffffffff1673ffffffffffffffffffffffffffffffffffffffff168152602001908152602001600020600082825401925050819055505b8173ffffffffffffffffffffffffffffffffffffffff168373ffffffffffffffffffffffffffffffffffffffff167fddf252ad1be2c89b69c2b068fc378daa952ba7f163c4a11628f55a4df523b3ef83604051610e199190610ff6565b60405180910390a3505050565b600081519050919050565b600082825260208201905092915050565b60005b83811015610e60578082015181840152602081019050610e45565b60008484015250505050565b6000601f19601f8301169050919050565b6000610e8882610e26565b610e928185610e31565b9350610ea2818560208601610e42565b610eab81610e6c565b840191505092915050565b60006020820190508181036000830152610ed08184610e7d565b905092915050565b600080fd5b600073ffffffffffffffffffffffffffffffffffffffff82169050919050565b6000610f0882610edd565b9050919050565b610f1881610efd565b8114610f2357600080fd5b50565b600081359050610f3581610f0f565b92915050565b6000819050919050565b610f4e81610f3b565b8114610f5957600080fd5b50565b600081359050610f6b81610f45565b92915050565b60008060408385031215610f8857610f87610ed8565b5b6000610f9685828601610f26565b9250506020610fa785828601610f5c565b9150509250929050565b60008115159050919050565b610fc681610fb1565b82525050565b6000602082019050610fe16000830184610fbd565b92915050565b610ff081610f3b565b82525050565b600060208201905061100b6000830184610fe7565b92915050565b60008060006060848603121561102a57611029610ed8565b5b600061103886828701610f26565b935050602061104986828701610f26565b925050604061105a86828701610f5c565b9150509250925092565b600060ff82169050919050565b61107a81611064565b82525050565b60006020820190506110956000830184611071565b92915050565b6000602082840312156110b1576110b0610ed8565b5b60006110bf84828501610f26565b91505092915050565b6110d181610efd565b82525050565b60006020820190506110ec60008301846110c8565b92915050565b6000806040838503121561110957611108610ed8565b5b600061111785828601610f26565b925050602061112885828601610f26565b9150509250929050565b7f4e487b7100000000000000000000000000000000000000000000000000000000600052602260045260246000fd5b6000600282049050600182168061117957607f821691505b60208210810361118c5761118b611132565b5b50919050565b7f4e487b7100000000000000000000000000000000000000000000000000000000600052601160045260246000fd5b60006111cc82610f3b565b91506111d783610f3b565b92508282019050808211156111ef576111ee611192565b5b92915050565b7f4d696e7420616d6f756e742065786365656473206d617820737570706c790000600082015250565b600061122b601e83610e31565b9150611236826111f5565b602082019050919050565b6000602082019050818103600083015261125a8161121e565b9050919050565b600060608201905061127660008301866110c8565b6112836020830185610fe7565b6112906040830184610fe7565b94935050505056fea2646970667358221220431b0ad5cfcbd30372945db2ff5885cf432997abfbcf06fd80e7005d6dc547fd64736f6c63430008140033a264697066735822122026703338922e62362535e15264e25c718ce0e7a966d5ecb37a2e97e4d120e8b064736f6c63430008140033",
  "linkReferences": {},
  "deployedLinkReferences": {}
}