{
  "_format": "hh-sol-artifact-1",
  "contractName": "RuneToken",
  "sourceName": "contracts/RuneToken.sol",
  "abi": [
    {
      "inputs": [
        {
          "internalType": "address",
          "name": "initialOwner",
          "type": "address"
        }
      ],
      "stateMutability": "nonpayable",
      "type": "constructor"
    },
    {
      "inputs": [
        {
          "internalType": "address",
          "name": "sender",
          "type": "address"
        },
        {
          "internalType": "uint256",
          "name": "balance",
          "type": "uint256"
        },
        {
          "internalType": "uint256",
          "name": "needed",
          "type": "uint256"
        },
        {
          "internalType": "uint256",
          "name": "tokenId",
          "type": "uint256"
        }
      ],
      "name": "ERC1155InsufficientBalance",
      "type": "error"
    },
    {
      "inputs": [
        {
          "internalType": "address",
          "name": "approver",
          "type": "address"
        }
      ],
      "name": "ERC1155InvalidApprover",
      "type": "error"
    },
    {
      "inputs": [
        {
          "internalType": "uint256",
          "name": "idsLength",
          "type": "uint256"
        },
        {
          "internalType": "uint256",
          "name": "valuesLength",
          "type": "uint256"
        }
      ],
      "name": "ERC1155InvalidArrayLength",
      "type": "error"
    },
    {
      "inputs": [
        {
          "internalType": "address",
          "name": "operator",
          "type": "address"
        }
      ],
      "name": "ERC1155InvalidOperator",
      "type": "error"
    },
    {
      "inputs": [
        {
          "internalType": "address",
          "name": "receiver",
          "type": "address"
        }
      ],
      "name": "ERC1155InvalidReceiver",
      "type": "error"
    },
    {
      "inputs": [
        {
          "internalType": "address",
          "name": "sender",
          "type": "address"
        }
      ],
      "name": "ERC1155InvalidSender",
      "type": "error"
    },
    {
      "inputs": [
        {
          "internalType": "address",
          "name": "operator",
          "type": "address"
        },
        {
          "internalType": "address",
          "name": "owner",
          "type": "address"
        }
      ],
      "name": "ERC1155MissingApprovalForAll",
      "type": "error"
    },
    {
      "inputs": [
        {
          "internalType": "address",
          "name": "owner",
          "type": "address"
        }
      ],
      "name": "OwnableInvalidOwner",
      "type": "error"
    },
    {
      "inputs": [
        {
          "internalType": "address",
          "name": "account",
          "type": "address"
        }
      ],
      "name": "OwnableUnauthorizedAccount",
      "type": "error"
    },
    {
      "anonymous": false,
      "inputs": [
        {
          "indexed": true,
          "internalType": "address",
          "name": "account",
          "type": "address"
        },
        {
          "indexed": true,
          "internalType": "address",
          "name": "operator",
          "type": "address"
        },
        {
          "indexed": false,
          "internalType": "bool",
          "name": "approved",
          "type": "bool"
        }
      ],
      "name": "ApprovalForAll",
      "type": "event"
    },
    {
      "anonymous": false,
      "inputs": [
        {
          "indexed": true,
          "internalType": "address",
          "name": "previousOwner",
          "type": "address"
        },
        {
          "indexed": true,
          "internalType": "address",
          "name": "newOwner",
          "type": "address"
        }
      ],
      "name": "OwnershipTransferred",
      "type": "event"
    },
    {
      "anonymous": false,
      "inputs": [
        {
          "indexed": true,
          "internalType": "address",
          "name": "operator",
          "type": "address"
        },
        {
          "indexed": true,
          "internalType": "address",
          "name": "from",
          "type": "address"
        },
        {
          "indexed": true,
          "internalType": "address",
          "name": "to",
          "type": "address"
        },
        {
          "indexed": false,
          "internalType": "uint256[]",
          "name": "ids",
          "type": "uint256[]"
        },
        {
          "indexed": false,
          "internalType": "uint256[]",
          "name": "values",
          "type": "uint256[]"
        }
      ],
      "name": "TransferBatch",
      "type": "event"
    },
    {
      "anonymous": false,
      "inputs": [
        {
          "indexed": true,
          "internalType": "address",
          "name": "operator",
          "type": "address"
        },
        {
          "indexed": true,
          "internalType": "address",
          "name": "from",
          "type": "address"
        },
        {
          "indexed": true,
          "internalType": "address",
          "name": "to",
          "type": "address"
        },
        {
          "indexed": false,
          "internalType": "uint256",
          "name": "id",
          "type": "uint256"
        },
        {
          "indexed": false,
          "internalType": "uint256",
          "name": "value",
          "type": "uint256"
        }
      ],
      "name": "TransferSingle",
      "type": "event"
    },
    {
      "anonymous": false,
      "inputs": [
        {
          "indexed": false,
          "internalType": "string",
          "name": "value",
          "type": "string"
        },
        {
          "indexed": true,
          "internalType": "uint256",
          "name": "id",
          "type": "uint256"
        }
      ],
      "name": "URI",
      "type": "event"
    },
    {
      "inputs": [
        {
          "internalType": "address",
          "name": "account",
          "type": "address"
        },
        {
          "internalType": "uint256",
          "name": "id",
          "type": "uint256"
        }
      ],
      "name": "balanceOf",
      "outputs": [
        {
          "internalType": "uint256",
          "name": "",
          "type": "uint256"
        }
      ],
      "stateMutability": "view",
      "type": "function"
    },
    {
      "inputs": [
        {
          "internalType": "address[]",
          "name": "accounts",
          "type": "address[]"
        },
        {
          "internalType": "uint256[]",
          "name": "ids",
          "type": "uint256[]"
        }
      ],
      "name": "balanceOfBatch",
      "outputs": [
        {
          "internalType": "uint256[]",
          "name": "",
          "type": "uint256[]"
        }
      ],
      "stateMutability": "view",
      "type": "function"
    },
    {
      "inputs": [
        {
          "internalType": "uint256",
          "name": "tokenId",
          "type": "uint256"
        },
        {
          "internalType": "address",
          "name": "holder",
          "type": "address"
        }
      ],
      "name": "getTokenInfo",
      "outputs": [
        {
          "components": [
            {
              "internalType": "string",
              "name": "uri",
              "type": "string"
            },
            {
              "internalType": "string",
              "name": "name",
              "type": "string"
            },
            {
              "internalType": "string",
              "name": "symbol",
              "type": "string"
            },
            {
              "internalType": "uint256",
              "name": "maxSupply",
              "type": "uint256"
            },
            {
              "internalType": "uint256",
              "name": "currentSupply",
              "type": "uint256"
            },
            {
              "internalType": "uint256",
              "name": "defaultMintAmount",
              "type": "uint256"
            },
            {
              "components": [
                {
                  "internalType": "address",
                  "name": "account",
                  "type": "address"
                },
                {
                  "internalType": "uint256",
                  "name": "balance",
                  "type": "uint256"
                }
              ],
              "internalType": "struct RuneToken.Balance",
              "name": "balance",
              "type": "tuple"
            }
          ],
          "internalType": "struct RuneToken.TokenInfo",
          "name": "",
          "type": "tuple"
        }
      ],
      "stateMutability": "view",
      "type": "function"
    },
    {
      "inputs": [
        {
          "internalType": "address",
          "name": "user",
          "type": "address"
        }
      ],
      "name": "getUserTokens",
      "outputs": [
        {
          "internalType": "uint256[]",
          "name": "",
          "type": "uint256[]"
        }
      ],
      "stateMutability": "view",
      "type": "function"
    },
    {
      "inputs": [
        {
          "internalType": "address",
          "name": "account",
          "type": "address"
        },
        {
          "internalType": "address",
          "name": "operator",
          "type": "address"
        }
      ],
      "name": "isApprovedForAll",
      "outputs": [
        {
          "internalType": "bool",
          "name": "",
          "type": "bool"
        }
      ],
      "stateMutability": "view",
      "type": "function"
    },
    {
      "inputs": [
        {
          "internalType": "string",
          "name": "tokenURI",
          "type": "string"
        },
        {
          "internalType": "string",
          "name": "runeName",
          "type": "string"
        },
        {
          "internalType": "string",
          "name": "symbol",
          "type": "string"
        },
        {
          "internalType": "uint256",
          "name": "maxSupply",
          "type": "uint256"
        },
        {
          "internalType": "uint256",
          "name": "initialSupply",
          "type": "uint256"
        },
        {
          "internalType": "uint256",
          "name": "defaultMintAmount",
          "type": "uint256"
        },
        {
          "internalType": "address",
          "name": "receiver",
          "type": "address"
        }
      ],
      "name": "mintFungible",
      "outputs": [],
      "stateMutability": "nonpayable",
      "type": "function"
    },
    {
      "inputs": [
        {
          "internalType": "string",
          "name": "runeName",
          "type": "string"
        },
        {
          "internalType": "address",
          "name": "receiver",
          "type": "address"
        }
      ],
      "name": "mintMore",
      "outputs": [],
      "stateMutability": "nonpayable",
      "type": "function"
    },
    {
      "inputs": [
        {
          "internalType": "string",
          "name": "tokenURI",
          "type": "string"
        },
        {
          "internalType": "string",
          "name": "runeName",
          "type": "string"
        },
        {
          "internalType": "string",
          "name": "symbol",
          "type": "string"
        },
        {
          "internalType": "address",
          "name": "receiver",
          "type": "address"
        }
      ],
      "name": "mintNonFungible",
      "outputs": [],
      "stateMutability": "nonpayable",
      "type": "function"
    },
    {
      "inputs": [],
      "name": "owner",
      "outputs": [
        {
          "internalType": "address",
          "name": "",
          "type": "address"
        }
      ],
      "stateMutability": "view",
      "type": "function"
    },
    {
      "inputs": [],
      "name": "renounceOwnership",
      "outputs": [],
      "stateMutability": "nonpayable",
      "type": "function"
    },
    {
      "inputs": [
        {
          "internalType": "address",
          "name": "from",
          "type": "address"
        },
        {
          "internalType": "address",
          "name": "to",
          "type": "address"
        },
        {
          "internalType": "uint256[]",
          "name": "ids",
          "type": "uint256[]"
        },
        {
          "internalType": "uint256[]",
          "name": "values",
          "type": "uint256[]"
        },
        {
          "internalType": "bytes",
          "name": "data",
          "type": "bytes"
        }
      ],
      "name": "safeBatchTransferFrom",
      "outputs": [],
      "stateMutability": "nonpayable",
      "type": "function"
    },
    {
      "inputs": [
        {
          "internalType": "address",
          "name": "from",
          "type": "address"
        },
        {
          "internalType": "address",
          "name": "to",
          "type": "address"
        },
        {
          "internalType": "uint256",
          "name": "id",
          "type": "uint256"
        },
        {
          "internalType": "uint256",
          "name": "value",
          "type": "uint256"
        },
        {
          "internalType": "bytes",
          "name": "data",
          "type": "bytes"
        }
      ],
      "name": "safeTransferFrom",
      "outputs": [],
      "stateMutability": "nonpayable",
      "type": "function"
    },
    {
      "inputs": [
        {
          "internalType": "address",
          "name": "operator",
          "type": "address"
        },
        {
          "internalType": "bool",
          "name": "approved",
          "type": "bool"
        }
      ],
      "name": "setApprovalForAll",
      "outputs": [],
      "stateMutability": "nonpayable",
      "type": "function"
    },
    {
      "inputs": [
        {
          "internalType": "bytes4",
          "name": "interfaceId",
          "type": "bytes4"
        }
      ],
      "name": "supportsInterface",
      "outputs": [
        {
          "internalType": "bool",
          "name": "",
          "type": "bool"
        }
      ],
      "stateMutability": "view",
      "type": "function"
    },
    {
      "inputs": [
        {
          "internalType": "address",
          "name": "newOwner",
          "type": "address"
        }
      ],
      "name": "transferOwnership",
      "outputs": [],
      "stateMutability": "nonpayable",
      "type": "function"
    },
    {
      "inputs": [
        {
          "internalType": "uint256",
          "name": "tokenId",
          "type": "uint256"
        }
      ],
      "name": "uri",
      "outputs": [
        {
          "internalType": "string",
          "name": "",
          "type": "string"
        }
      ],
      "stateMutability": "view",
      "type": "function"
    }
  ],
  "bytecode": "0x60806040523480156200001157600080fd5b5060405162003ebc38038062003ebc83398181016040528101906200003791906200022d565b80604051806020016040528060008152506200005981620000e860201b60201c565b50600073ffffffffffffffffffffffffffffffffffffffff168173ffffffffffffffffffffffffffffffffffffffff1603620000cf5760006040517f1e4fbdf7000000000000000000000000000000000000000000000000000000008152600401620000c6919062000270565b60405180910390fd5b620000e081620000fd60201b60201c565b5050620005ee565b8060029081620000f9919062000507565b5050565b6000600360009054906101000a900473ffffffffffffffffffffffffffffffffffffffff16905081600360006101000a81548173ffffffffffffffffffffffffffffffffffffffff021916908373ffffffffffffffffffffffffffffffffffffffff1602179055508173ffffffffffffffffffffffffffffffffffffffff168173ffffffffffffffffffffffffffffffffffffffff167f8be0079c531659141344cd1fd0a4f28419497f9722a3daafe3b4186f6b6457e060405160405180910390a35050565b600080fd5b600073ffffffffffffffffffffffffffffffffffffffff82169050919050565b6000620001f582620001c8565b9050919050565b6200020781620001e8565b81146200021357600080fd5b50565b6000815190506200022781620001fc565b92915050565b600060208284031215620002465762000245620001c3565b5b6000620002568482850162000216565b91505092915050565b6200026a81620001e8565b82525050565b60006020820190506200028760008301846200025f565b92915050565b600081519050919050565b7f4e487b7100000000000000000000000000000000000000000000000000000000600052604160045260246000fd5b7f4e487b7100000000000000000000000000000000000000000000000000000000600052602260045260246000fd5b600060028204905060018216806200030f57607f821691505b602082108103620003255762000324620002c7565b5b50919050565b60008190508160005260206000209050919050565b60006020601f8301049050919050565b600082821b905092915050565b6000600883026200038f7fffffffffffffffffffffffffffffffffffffffffffffffffffffffffffffffff8262000350565b6200039b868362000350565b95508019841693508086168417925050509392505050565b6000819050919050565b6000819050919050565b6000620003e8620003e2620003dc84620003b3565b620003bd565b620003b3565b9050919050565b6000819050919050565b6200040483620003c7565b6200041c6200041382620003ef565b8484546200035d565b825550505050565b600090565b6200043362000424565b62000440818484620003f9565b505050565b5b8181101562000468576200045c60008262000429565b60018101905062000446565b5050565b601f821115620004b75762000481816200032b565b6200048c8462000340565b810160208510156200049c578190505b620004b4620004ab8562000340565b83018262000445565b50505b505050565b600082821c905092915050565b6000620004dc60001984600802620004bc565b1980831691505092915050565b6000620004f78383620004c9565b9150826002028217905092915050565b62000512826200028d565b67ffffffffffffffff8111156200052e576200052d62000298565b5b6200053a8254620002f6565b620005478282856200046c565b600060209050601f8311600181146200057f57600084156200056a578287015190505b620005768582620004e9565b865550620005e6565b601f1984166200058f866200032b565b60005b82811015620005b95784890151825560018201915060208501945060208101905062000592565b86831015620005d95784890151620005d5601f891682620004c9565b8355505b6001600288020188555050505b505050505050565b6138be80620005fe6000396000f3fe608060405234801561001057600080fd5b50600436106100ff5760003560e01c80638da5cb5b11610097578063dec44e1311610066578063dec44e13146102bc578063e985e9c5146102d8578063f242432a14610308578063f2fde38b14610324576100ff565b80638da5cb5b14610236578063978cf2df14610254578063a22cb46514610270578063ce541b1a1461028c576100ff565b80634e1273f4116100d35780634e1273f4146101b0578063519dc8d2146101e0578063715018a61461021057806384dacc051461021a576100ff565b8062fdd58e1461010457806301ffc9a7146101345780630e89341c146101645780632eb2c2d614610194575b600080fd5b61011e6004803603810190610119919061234d565b610340565b60405161012b919061239c565b60405180910390f35b61014e6004803603810190610149919061240f565b61039a565b60405161015b9190612457565b60405180910390f35b61017e60048036038101906101799190612472565b61047c565b60405161018b919061252f565b60405180910390f35b6101ae60048036038101906101a9919061274e565b610524565b005b6101ca60048036038101906101c591906128e0565b6105cc565b6040516101d79190612a16565b60405180910390f35b6101fa60048036038101906101f59190612a38565b6106db565b6040516102079190612a16565b60405180910390f35b610218610772565b005b610234600480360381019061022f9190612b06565b610786565b005b61023e6109be565b60405161024b9190612c0b565b60405180910390f35b61026e60048036038101906102699190612c26565b6109e8565b005b61028a60048036038101906102859190612cae565b610b90565b005b6102a660048036038101906102a19190612cee565b610ba6565b6040516102b39190612e61565b60405180910390f35b6102d660048036038101906102d19190612e83565b610f51565b005b6102f260048036038101906102ed9190612f3e565b611147565b6040516102ff9190612457565b60405180910390f35b610322600480360381019061031d9190612f7e565b6111db565b005b61033e60048036038101906103399190612a38565b611283565b005b600080600083815260200190815260200160002060008473ffffffffffffffffffffffffffffffffffffffff1673ffffffffffffffffffffffffffffffffffffffff16815260200190815260200160002054905092915050565b60007fd9b67a26000000000000000000000000000000000000000000000000000000007bffffffffffffffffffffffffffffffffffffffffffffffffffffffff1916827bffffffffffffffffffffffffffffffffffffffffffffffffffffffff1916148061046557507f0e89341c000000000000000000000000000000000000000000000000000000007bffffffffffffffffffffffffffffffffffffffffffffffffffffffff1916827bffffffffffffffffffffffffffffffffffffffffffffffffffffffff1916145b80610475575061047482611309565b5b9050919050565b606060046000838152602001908152602001600020600001805461049f90613044565b80601f01602080910402602001604051908101604052809291908181526020018280546104cb90613044565b80156105185780601f106104ed57610100808354040283529160200191610518565b820191906000526020600020905b8154815290600101906020018083116104fb57829003601f168201915b50505050509050919050565b600061052e611373565b90508073ffffffffffffffffffffffffffffffffffffffff168673ffffffffffffffffffffffffffffffffffffffff161415801561057357506105718682611147565b155b156105b75780866040517fe237d9220000000000000000000000000000000000000000000000000000000081526004016105ae929190613075565b60405180910390fd5b6105c4868686868661137b565b505050505050565b6060815183511461061857815183516040517f5b05999100000000000000000000000000000000000000000000000000000000815260040161060f92919061309e565b60405180910390fd5b6000835167ffffffffffffffff81111561063557610634612556565b5b6040519080825280602002602001820160405280156106635781602001602082028036833780820191505090505b50905060005b84518110156106d0576106a0610688828761147390919063ffffffff16565b61069b838761148790919063ffffffff16565b610340565b8282815181106106b3576106b26130c7565b5b602002602001018181525050806106c990613125565b9050610669565b508091505092915050565b6060600560008373ffffffffffffffffffffffffffffffffffffffff1673ffffffffffffffffffffffffffffffffffffffff16815260200190815260200160002080548060200260200160405190810160405280929190818152602001828054801561076657602002820191906000526020600020905b815481526020019060010190808311610752575b50505050509050919050565b61077a61149b565b6107846000611522565b565b61078e61149b565b838311156107d1576040517f08c379a00000000000000000000000000000000000000000000000000000000081526004016107c8906131df565b60405180910390fd5b6000866040516020016107e4919061323b565b60405160208183030381529060405280519060200120905060008160001c9050600060046000838152602001908152602001600020600301541461085d576040517f08c379a00000000000000000000000000000000000000000000000000000000081526004016108549061329e565b60405180910390fd5b6040518060e001604052808a81526020018981526020018881526020018781526020018681526020018581526020016040518060400160405280600073ffffffffffffffffffffffffffffffffffffffff16815260200160008152508152506004600083815260200190815260200160002060008201518160000190816108e4919061346a565b5060208201518160010190816108fa919061346a565b506040820151816002019081610910919061346a565b50606082015181600301556080820151816004015560a0820151816005015560c08201518160060160008201518160000160006101000a81548173ffffffffffffffffffffffffffffffffffffffff021916908373ffffffffffffffffffffffffffffffffffffffff1602179055506020820151816001015550509050506109a9838287604051806020016040528060008152506115e8565b6109b38382611681565b505050505050505050565b6000600360009054906101000a900473ffffffffffffffffffffffffffffffffffffffff16905090565b6109f061149b565b600082604051602001610a03919061323b565b60405160208183030381529060405280519060200120905060008160001c90506000600460008381526020019081526020016000206003015411610a7c576040517f08c379a0000000000000000000000000000000000000000000000000000000008152600401610a7390613588565b60405180910390fd5b600460008281526020019081526020016000206003015460046000838152602001908152602001600020600501546004600084815260200190815260200160002060040154610acb91906135a8565b1115610b0c576040517f08c379a0000000000000000000000000000000000000000000000000000000008152600401610b0390613628565b60405180910390fd5b610b3d83826004600085815260200190815260200160002060050154604051806020016040528060008152506115e8565b6004600082815260200190815260200160002060050154600460008381526020019081526020016000206004016000828254610b7991906135a8565b92505081905550610b8a8382611681565b50505050565b610ba2610b9b611373565b83836117bf565b5050565b610bae612232565b6000600460008581526020019081526020016000206040518060e0016040529081600082018054610bde90613044565b80601f0160208091040260200160405190810160405280929190818152602001828054610c0a90613044565b8015610c575780601f10610c2c57610100808354040283529160200191610c57565b820191906000526020600020905b815481529060010190602001808311610c3a57829003601f168201915b50505050508152602001600182018054610c7090613044565b80601f0160208091040260200160405190810160405280929190818152602001828054610c9c90613044565b8015610ce95780601f10610cbe57610100808354040283529160200191610ce9565b820191906000526020600020905b815481529060010190602001808311610ccc57829003601f168201915b50505050508152602001600282018054610d0290613044565b80601f0160208091040260200160405190810160405280929190818152602001828054610d2e90613044565b8015610d7b5780601f10610d5057610100808354040283529160200191610d7b565b820191906000526020600020905b815481529060010190602001808311610d5e57829003601f168201915b50505050508152602001600382015481526020016004820154815260200160058201548152602001600682016040518060400160405290816000820160009054906101000a900473ffffffffffffffffffffffffffffffffffffffff1673ffffffffffffffffffffffffffffffffffffffff1673ffffffffffffffffffffffffffffffffffffffff1681526020016001820154815250508152505090506000816060015111610e5f576040517f08c379a0000000000000000000000000000000000000000000000000000000008152600401610e5690613588565b60405180910390fd5b600073ffffffffffffffffffffffffffffffffffffffff168373ffffffffffffffffffffffffffffffffffffffff1614610f475760003073ffffffffffffffffffffffffffffffffffffffff1662fdd58e85876040518363ffffffff1660e01b8152600401610ecf929190613648565b602060405180830381865afa158015610eec573d6000803e3d6000fd5b505050506040513d601f19601f82011682018060405250810190610f109190613686565b905060405180604001604052808573ffffffffffffffffffffffffffffffffffffffff168152602001828152508260c00181905250505b8091505092915050565b610f5961149b565b600083604051602001610f6c919061323b565b60405160208183030381529060405280519060200120905060008160001c90506000600460008381526020019081526020016000206003015414610fe5576040517f08c379a0000000000000000000000000000000000000000000000000000000008152600401610fdc9061329e565b60405180910390fd5b6040518060e001604052808781526020018681526020018581526020016001815260200160018152602001600181526020016040518060400160405280600073ffffffffffffffffffffffffffffffffffffffff168152602001600081525081525060046000838152602001908152602001600020600082015181600001908161106f919061346a565b506020820151816001019081611085919061346a565b50604082015181600201908161109b919061346a565b50606082015181600301556080820151816004015560a0820151816005015560c08201518160060160008201518160000160006101000a81548173ffffffffffffffffffffffffffffffffffffffff021916908373ffffffffffffffffffffffffffffffffffffffff16021790555060208201518160010155505090505061113583826001604051806020016040528060008152506115e8565b61113f8382611681565b505050505050565b6000600160008473ffffffffffffffffffffffffffffffffffffffff1673ffffffffffffffffffffffffffffffffffffffff16815260200190815260200160002060008373ffffffffffffffffffffffffffffffffffffffff1673ffffffffffffffffffffffffffffffffffffffff16815260200190815260200160002060009054906101000a900460ff16905092915050565b60006111e5611373565b90508073ffffffffffffffffffffffffffffffffffffffff168673ffffffffffffffffffffffffffffffffffffffff161415801561122a57506112288682611147565b155b1561126e5780866040517fe237d922000000000000000000000000000000000000000000000000000000008152600401611265929190613075565b60405180910390fd5b61127b868686868661192f565b505050505050565b61128b61149b565b600073ffffffffffffffffffffffffffffffffffffffff168173ffffffffffffffffffffffffffffffffffffffff16036112fd5760006040517f1e4fbdf70000000000000000000000000000000000000000000000000000000081526004016112f49190612c0b565b60405180910390fd5b61130681611522565b50565b60007f01ffc9a7000000000000000000000000000000000000000000000000000000007bffffffffffffffffffffffffffffffffffffffffffffffffffffffff1916827bffffffffffffffffffffffffffffffffffffffffffffffffffffffff1916149050919050565b600033905090565b600073ffffffffffffffffffffffffffffffffffffffff168473ffffffffffffffffffffffffffffffffffffffff16036113ed5760006040517f57f447ce0000000000000000000000000000000000000000000000000000000081526004016113e49190612c0b565b60405180910390fd5b600073ffffffffffffffffffffffffffffffffffffffff168573ffffffffffffffffffffffffffffffffffffffff160361145f5760006040517f01a835140000000000000000000000000000000000000000000000000000000081526004016114569190612c0b565b60405180910390fd5b61146c8585858585611a3a565b5050505050565b600060208202602084010151905092915050565b600060208202602084010151905092915050565b6114a3611373565b73ffffffffffffffffffffffffffffffffffffffff166114c16109be565b73ffffffffffffffffffffffffffffffffffffffff1614611520576114e4611373565b6040517f118cdaa70000000000000000000000000000000000000000000000000000000081526004016115179190612c0b565b60405180910390fd5b565b6000600360009054906101000a900473ffffffffffffffffffffffffffffffffffffffff16905081600360006101000a81548173ffffffffffffffffffffffffffffffffffffffff021916908373ffffffffffffffffffffffffffffffffffffffff1602179055508173ffffffffffffffffffffffffffffffffffffffff168173ffffffffffffffffffffffffffffffffffffffff167f8be0079c531659141344cd1fd0a4f28419497f9722a3daafe3b4186f6b6457e060405160405180910390a35050565b600073ffffffffffffffffffffffffffffffffffffffff168473ffffffffffffffffffffffffffffffffffffffff160361165a5760006040517f57f447ce0000000000000000000000000000000000000000000000000000000081526004016116519190612c0b565b60405180910390fd5b6000806116678585611aec565b91509150611679600087848487611a3a565b505050505050565b6000805b600560008573ffffffffffffffffffffffffffffffffffffffff1673ffffffffffffffffffffffffffffffffffffffff1681526020019081526020016000208054905081101561174d5782600560008673ffffffffffffffffffffffffffffffffffffffff1673ffffffffffffffffffffffffffffffffffffffff1681526020019081526020016000208281548110611721576117206130c7565b5b90600052602060002001540361173a576001915061174d565b808061174590613125565b915050611685565b50806117ba57600560008473ffffffffffffffffffffffffffffffffffffffff1673ffffffffffffffffffffffffffffffffffffffff1681526020019081526020016000208290806001815401808255809150506001900390600052602060002001600090919091909150555b505050565b600073ffffffffffffffffffffffffffffffffffffffff168273ffffffffffffffffffffffffffffffffffffffff16036118315760006040517fced3e1000000000000000000000000000000000000000000000000000000000081526004016118289190612c0b565b60405180910390fd5b80600160008573ffffffffffffffffffffffffffffffffffffffff1673ffffffffffffffffffffffffffffffffffffffff16815260200190815260200160002060008473ffffffffffffffffffffffffffffffffffffffff1673ffffffffffffffffffffffffffffffffffffffff16815260200190815260200160002060006101000a81548160ff0219169083151502179055508173ffffffffffffffffffffffffffffffffffffffff168373ffffffffffffffffffffffffffffffffffffffff167f17307eab39ab6107e8899845ad3d59bd9653f200f220920489ca2b5937696c31836040516119229190612457565b60405180910390a3505050565b600073ffffffffffffffffffffffffffffffffffffffff168473ffffffffffffffffffffffffffffffffffffffff16036119a15760006040517f57f447ce0000000000000000000000000000000000000000000000000000000081526004016119989190612c0b565b60405180910390fd5b600073ffffffffffffffffffffffffffffffffffffffff168573ffffffffffffffffffffffffffffffffffffffff1603611a135760006040517f01a83514000000000000000000000000000000000000000000000000000000008152600401611a0a9190612c0b565b60405180910390fd5b600080611a208585611aec565b91509150611a318787848487611a3a565b50505050505050565b611a4685858585611b1c565b600073ffffffffffffffffffffffffffffffffffffffff168473ffffffffffffffffffffffffffffffffffffffff1614611ae5576000611a84611373565b90506001845103611ad4576000611aa560008661148790919063ffffffff16565b90506000611abd60008661148790919063ffffffff16565b9050611acd838989858589611eca565b5050611ae3565b611ae281878787878761207e565b5b505b5050505050565b60608060405191506001825283602083015260408201905060018152826020820152604081016040529250929050565b8051825114611b6657815181516040517f5b059991000000000000000000000000000000000000000000000000000000008152600401611b5d92919061309e565b60405180910390fd5b6000611b70611373565b905060005b8351811015611d85576000611b93828661148790919063ffffffff16565b90506000611baa838661148790919063ffffffff16565b9050600073ffffffffffffffffffffffffffffffffffffffff168873ffffffffffffffffffffffffffffffffffffffff1614611cd757600080600084815260200190815260200160002060008a73ffffffffffffffffffffffffffffffffffffffff1673ffffffffffffffffffffffffffffffffffffffff16815260200190815260200160002054905081811015611c7f57888183856040517f03dee4c5000000000000000000000000000000000000000000000000000000008152600401611c7694939291906136b3565b60405180910390fd5b81810360008085815260200190815260200160002060008b73ffffffffffffffffffffffffffffffffffffffff1673ffffffffffffffffffffffffffffffffffffffff16815260200190815260200160002081905550505b600073ffffffffffffffffffffffffffffffffffffffff168773ffffffffffffffffffffffffffffffffffffffff1614611d72578060008084815260200190815260200160002060008973ffffffffffffffffffffffffffffffffffffffff1673ffffffffffffffffffffffffffffffffffffffff1681526020019081526020016000206000828254611d6a91906135a8565b925050819055505b505080611d7e90613125565b9050611b75565b506001835103611e44576000611da560008561148790919063ffffffff16565b90506000611dbd60008561148790919063ffffffff16565b90508573ffffffffffffffffffffffffffffffffffffffff168773ffffffffffffffffffffffffffffffffffffffff168473ffffffffffffffffffffffffffffffffffffffff167fc3d58168c5ae7397731d063d5bbf3d657854427343f4c083240f7aacaa2d0f628585604051611e3592919061309e565b60405180910390a45050611ec3565b8373ffffffffffffffffffffffffffffffffffffffff168573ffffffffffffffffffffffffffffffffffffffff168273ffffffffffffffffffffffffffffffffffffffff167f4a39dc06d4c0dbc64b70af90fd698a233a518aa5d07e595d983b8c0526c8f7fb8686604051611eba9291906136f8565b60405180910390a45b5050505050565b60008473ffffffffffffffffffffffffffffffffffffffff163b1115612076578373ffffffffffffffffffffffffffffffffffffffff1663f23a6e6187878686866040518663ffffffff1660e01b8152600401611f2b959493929190613784565b6020604051808303816000875af1925050508015611f6757506040513d601f19601f82011682018060405250810190611f6491906137f3565b60015b611feb573d8060008114611f97576040519150601f19603f3d011682016040523d82523d6000602084013e611f9c565b606091505b506000815103611fe357846040517f57f447ce000000000000000000000000000000000000000000000000000000008152600401611fda9190612c0b565b60405180910390fd5b805181602001fd5b63f23a6e6160e01b7bffffffffffffffffffffffffffffffffffffffffffffffffffffffff1916817bffffffffffffffffffffffffffffffffffffffffffffffffffffffff19161461207457846040517f57f447ce00000000000000000000000000000000000000000000000000000000815260040161206b9190612c0b565b60405180910390fd5b505b505050505050565b60008473ffffffffffffffffffffffffffffffffffffffff163b111561222a578373ffffffffffffffffffffffffffffffffffffffff1663bc197c8187878686866040518663ffffffff1660e01b81526004016120df959493929190613820565b6020604051808303816000875af192505050801561211b57506040513d601f19601f8201168201806040525081019061211891906137f3565b60015b61219f573d806000811461214b576040519150601f19603f3d011682016040523d82523d6000602084013e612150565b606091505b50600081510361219757846040517f57f447ce00000000000000000000000000000000000000000000000000000000815260040161218e9190612c0b565b60405180910390fd5b805181602001fd5b63bc197c8160e01b7bffffffffffffffffffffffffffffffffffffffffffffffffffffffff1916817bffffffffffffffffffffffffffffffffffffffffffffffffffffffff19161461222857846040517f57f447ce00000000000000000000000000000000000000000000000000000000815260040161221f9190612c0b565b60405180910390fd5b505b505050505050565b6040518060e0016040528060608152602001606081526020016060815260200160008152602001600081526020016000815260200161226f612275565b81525090565b6040518060400160405280600073ffffffffffffffffffffffffffffffffffffffff168152602001600081525090565b6000604051905090565b600080fd5b600080fd5b600073ffffffffffffffffffffffffffffffffffffffff82169050919050565b60006122e4826122b9565b9050919050565b6122f4816122d9565b81146122ff57600080fd5b50565b600081359050612311816122eb565b92915050565b6000819050919050565b61232a81612317565b811461233557600080fd5b50565b60008135905061234781612321565b92915050565b60008060408385031215612364576123636122af565b5b600061237285828601612302565b925050602061238385828601612338565b9150509250929050565b61239681612317565b82525050565b60006020820190506123b1600083018461238d565b92915050565b60007fffffffff0000000000000000000000000000000000000000000000000000000082169050919050565b6123ec816123b7565b81146123f757600080fd5b50565b600081359050612409816123e3565b92915050565b600060208284031215612425576124246122af565b5b6000612433848285016123fa565b91505092915050565b60008115159050919050565b6124518161243c565b82525050565b600060208201905061246c6000830184612448565b92915050565b600060208284031215612488576124876122af565b5b600061249684828501612338565b91505092915050565b600081519050919050565b600082825260208201905092915050565b60005b838110156124d95780820151818401526020810190506124be565b60008484015250505050565b6000601f19601f8301169050919050565b60006125018261249f565b61250b81856124aa565b935061251b8185602086016124bb565b612524816124e5565b840191505092915050565b6000602082019050818103600083015261254981846124f6565b905092915050565b600080fd5b7f4e487b7100000000000000000000000000000000000000000000000000000000600052604160045260246000fd5b61258e826124e5565b810181811067ffffffffffffffff821117156125ad576125ac612556565b5b80604052505050565b60006125c06122a5565b90506125cc8282612585565b919050565b600067ffffffffffffffff8211156125ec576125eb612556565b5b602082029050602081019050919050565b600080fd5b6000612615612610846125d1565b6125b6565b90508083825260208201905060208402830185811115612638576126376125fd565b5b835b81811015612661578061264d8882612338565b84526020840193505060208101905061263a565b5050509392505050565b600082601f8301126126805761267f612551565b5b8135612690848260208601612602565b91505092915050565b600080fd5b600067ffffffffffffffff8211156126b9576126b8612556565b5b6126c2826124e5565b9050602081019050919050565b82818337600083830152505050565b60006126f16126ec8461269e565b6125b6565b90508281526020810184848401111561270d5761270c612699565b5b6127188482856126cf565b509392505050565b600082601f83011261273557612734612551565b5b81356127458482602086016126de565b91505092915050565b600080600080600060a0868803121561276a576127696122af565b5b600061277888828901612302565b955050602061278988828901612302565b945050604086013567ffffffffffffffff8111156127aa576127a96122b4565b5b6127b68882890161266b565b935050606086013567ffffffffffffffff8111156127d7576127d66122b4565b5b6127e38882890161266b565b925050608086013567ffffffffffffffff811115612804576128036122b4565b5b61281088828901612720565b9150509295509295909350565b600067ffffffffffffffff82111561283857612837612556565b5b602082029050602081019050919050565b600061285c6128578461281d565b6125b6565b9050808382526020820190506020840283018581111561287f5761287e6125fd565b5b835b818110156128a857806128948882612302565b845260208401935050602081019050612881565b5050509392505050565b600082601f8301126128c7576128c6612551565b5b81356128d7848260208601612849565b91505092915050565b600080604083850312156128f7576128f66122af565b5b600083013567ffffffffffffffff811115612915576129146122b4565b5b612921858286016128b2565b925050602083013567ffffffffffffffff811115612942576129416122b4565b5b61294e8582860161266b565b9150509250929050565b600081519050919050565b600082825260208201905092915050565b6000819050602082019050919050565b61298d81612317565b82525050565b600061299f8383612984565b60208301905092915050565b6000602082019050919050565b60006129c382612958565b6129cd8185612963565b93506129d883612974565b8060005b83811015612a095781516129f08882612993565b97506129fb836129ab565b9250506001810190506129dc565b5085935050505092915050565b60006020820190508181036000830152612a3081846129b8565b905092915050565b600060208284031215612a4e57612a4d6122af565b5b6000612a5c84828501612302565b91505092915050565b600067ffffffffffffffff821115612a8057612a7f612556565b5b612a89826124e5565b9050602081019050919050565b6000612aa9612aa484612a65565b6125b6565b905082815260208101848484011115612ac557612ac4612699565b5b612ad08482856126cf565b509392505050565b600082601f830112612aed57612aec612551565b5b8135612afd848260208601612a96565b91505092915050565b600080600080600080600060e0888a031215612b2557612b246122af565b5b600088013567ffffffffffffffff811115612b4357612b426122b4565b5b612b4f8a828b01612ad8565b975050602088013567ffffffffffffffff811115612b7057612b6f6122b4565b5b612b7c8a828b01612ad8565b965050604088013567ffffffffffffffff811115612b9d57612b9c6122b4565b5b612ba98a828b01612ad8565b9550506060612bba8a828b01612338565b9450506080612bcb8a828b01612338565b93505060a0612bdc8a828b01612338565b92505060c0612bed8a828b01612302565b91505092959891949750929550565b612c05816122d9565b82525050565b6000602082019050612c206000830184612bfc565b92915050565b60008060408385031215612c3d57612c3c6122af565b5b600083013567ffffffffffffffff811115612c5b57612c5a6122b4565b5b612c6785828601612ad8565b9250506020612c7885828601612302565b9150509250929050565b612c8b8161243c565b8114612c9657600080fd5b50565b600081359050612ca881612c82565b92915050565b60008060408385031215612cc557612cc46122af565b5b6000612cd385828601612302565b9250506020612ce485828601612c99565b9150509250929050565b60008060408385031215612d0557612d046122af565b5b6000612d1385828601612338565b9250506020612d2485828601612302565b9150509250929050565b600082825260208201905092915050565b6000612d4a8261249f565b612d548185612d2e565b9350612d648185602086016124bb565b612d6d816124e5565b840191505092915050565b612d81816122d9565b82525050565b604082016000820151612d9d6000850182612d78565b506020820151612db06020850182612984565b50505050565b6000610100830160008301518482036000860152612dd48282612d3f565b91505060208301518482036020860152612dee8282612d3f565b91505060408301518482036040860152612e088282612d3f565b9150506060830151612e1d6060860182612984565b506080830151612e306080860182612984565b5060a0830151612e4360a0860182612984565b5060c0830151612e5660c0860182612d87565b508091505092915050565b60006020820190508181036000830152612e7b8184612db6565b905092915050565b60008060008060808587031215612e9d57612e9c6122af565b5b600085013567ffffffffffffffff811115612ebb57612eba6122b4565b5b612ec787828801612ad8565b945050602085013567ffffffffffffffff811115612ee857612ee76122b4565b5b612ef487828801612ad8565b935050604085013567ffffffffffffffff811115612f1557612f146122b4565b5b612f2187828801612ad8565b9250506060612f3287828801612302565b91505092959194509250565b60008060408385031215612f5557612f546122af565b5b6000612f6385828601612302565b9250506020612f7485828601612302565b9150509250929050565b600080600080600060a08688031215612f9a57612f996122af565b5b6000612fa888828901612302565b9550506020612fb988828901612302565b9450506040612fca88828901612338565b9350506060612fdb88828901612338565b925050608086013567ffffffffffffffff811115612ffc57612ffb6122b4565b5b61300888828901612720565b9150509295509295909350565b7f4e487b7100000000000000000000000000000000000000000000000000000000600052602260045260246000fd5b6000600282049050600182168061305c57607f821691505b60208210810361306f5761306e613015565b5b50919050565b600060408201905061308a6000830185612bfc565b6130976020830184612bfc565b9392505050565b60006040820190506130b3600083018561238d565b6130c0602083018461238d565b9392505050565b7f4e487b7100000000000000000000000000000000000000000000000000000000600052603260045260246000fd5b7f4e487b7100000000000000000000000000000000000000000000000000000000600052601160045260246000fd5b600061313082612317565b91507fffffffffffffffffffffffffffffffffffffffffffffffffffffffffffffffff8203613162576131616130f6565b5b600182019050919050565b7f496e697469616c20737570706c792065786365656473206d617820737570706c60008201527f7900000000000000000000000000000000000000000000000000000000000000602082015250565b60006131c96021836124aa565b91506131d48261316d565b604082019050919050565b600060208201905081810360008301526131f8816131bc565b9050919050565b600081905092915050565b60006132158261249f565b61321f81856131ff565b935061322f8185602086016124bb565b80840191505092915050565b6000613247828461320a565b915081905092915050565b7f546f6b656e20494420616c726561647920657869737473000000000000000000600082015250565b60006132886017836124aa565b915061329382613252565b602082019050919050565b600060208201905081810360008301526132b78161327b565b9050919050565b60008190508160005260206000209050919050565b60006020601f8301049050919050565b600082821b905092915050565b6000600883026133207fffffffffffffffffffffffffffffffffffffffffffffffffffffffffffffffff826132e3565b61332a86836132e3565b95508019841693508086168417925050509392505050565b6000819050919050565b600061336761336261335d84612317565b613342565b612317565b9050919050565b6000819050919050565b6133818361334c565b61339561338d8261336e565b8484546132f0565b825550505050565b600090565b6133aa61339d565b6133b5818484613378565b505050565b5b818110156133d9576133ce6000826133a2565b6001810190506133bb565b5050565b601f82111561341e576133ef816132be565b6133f8846132d3565b81016020851015613407578190505b61341b613413856132d3565b8301826133ba565b50505b505050565b600082821c905092915050565b600061344160001984600802613423565b1980831691505092915050565b600061345a8383613430565b9150826002028217905092915050565b6134738261249f565b67ffffffffffffffff81111561348c5761348b612556565b5b6134968254613044565b6134a18282856133dd565b600060209050601f8311600181146134d457600084156134c2578287015190505b6134cc858261344e565b865550613534565b601f1984166134e2866132be565b60005b8281101561350a578489015182556001820191506020850194506020810190506134e5565b868310156135275784890151613523601f891682613430565b8355505b6001600288020188555050505b505050505050565b7f546f6b656e20494420646f6573206e6f74206578697374000000000000000000600082015250565b60006135726017836124aa565b915061357d8261353c565b602082019050919050565b600060208201905081810360008301526135a181613565565b9050919050565b60006135b382612317565b91506135be83612317565b92508282019050808211156135d6576135d56130f6565b5b92915050565b7f45786365656473206d617820737570706c790000000000000000000000000000600082015250565b60006136126012836124aa565b915061361d826135dc565b602082019050919050565b6000602082019050818103600083015261364181613605565b9050919050565b600060408201905061365d6000830185612bfc565b61366a602083018461238d565b9392505050565b60008151905061368081612321565b92915050565b60006020828403121561369c5761369b6122af565b5b60006136aa84828501613671565b91505092915050565b60006080820190506136c86000830187612bfc565b6136d5602083018661238d565b6136e2604083018561238d565b6136ef606083018461238d565b95945050505050565b6000604082019050818103600083015261371281856129b8565b9050818103602083015261372681846129b8565b90509392505050565b600081519050919050565b600082825260208201905092915050565b60006137568261372f565b613760818561373a565b93506137708185602086016124bb565b613779816124e5565b840191505092915050565b600060a0820190506137996000830188612bfc565b6137a66020830187612bfc565b6137b3604083018661238d565b6137c0606083018561238d565b81810360808301526137d2818461374b565b90509695505050505050565b6000815190506137ed816123e3565b92915050565b600060208284031215613809576138086122af565b5b6000613817848285016137de565b91505092915050565b600060a0820190506138356000830188612bfc565b6138426020830187612bfc565b818103604083015261385481866129b8565b9050818103606083015261386881856129b8565b9050818103608083015261387c818461374b565b9050969550505050505056fea264697066735822122055da146842a6e854f3202b76a77454cb85c30060f6f9bfa9237a6a29c862783264736f6c63430008140033",
  "linkReferences": {},
  "deployedLinkReferences": {}
}