{
  "_format": "hh-sol-artifact-1",
  "contractName": "RuneToken",
  "sourceName": "contracts/RuneNFTV2.sol",
  "abi": [
    {
      "inputs": [
        {
          "internalType": "address",
          "name": "initialOwner",
          "type": "address"
        }
      ],
      "stateMutability": "nonpayable",
      "type": "constructor"
    },
    {
      "inputs": [
        {
          "internalType": "address",
          "name": "sender",
          "type": "address"
        },
        {
          "internalType": "uint256",
          "name": "balance",
          "type": "uint256"
        },
        {
          "internalType": "uint256",
          "name": "needed",
          "type": "uint256"
        },
        {
          "internalType": "uint256",
          "name": "tokenId",
          "type": "uint256"
        }
      ],
      "name": "ERC1155InsufficientBalance",
      "type": "error"
    },
    {
      "inputs": [
        {
          "internalType": "address",
          "name": "approver",
          "type": "address"
        }
      ],
      "name": "ERC1155InvalidApprover",
      "type": "error"
    },
    {
      "inputs": [
        {
          "internalType": "uint256",
          "name": "idsLength",
          "type": "uint256"
        },
        {
          "internalType": "uint256",
          "name": "valuesLength",
          "type": "uint256"
        }
      ],
      "name": "ERC1155InvalidArrayLength",
      "type": "error"
    },
    {
      "inputs": [
        {
          "internalType": "address",
          "name": "operator",
          "type": "address"
        }
      ],
      "name": "ERC1155InvalidOperator",
      "type": "error"
    },
    {
      "inputs": [
        {
          "internalType": "address",
          "name": "receiver",
          "type": "address"
        }
      ],
      "name": "ERC1155InvalidReceiver",
      "type": "error"
    },
    {
      "inputs": [
        {
          "internalType": "address",
          "name": "sender",
          "type": "address"
        }
      ],
      "name": "ERC1155InvalidSender",
      "type": "error"
    },
    {
      "inputs": [
        {
          "internalType": "address",
          "name": "operator",
          "type": "address"
        },
        {
          "internalType": "address",
          "name": "owner",
          "type": "address"
        }
      ],
      "name": "ERC1155MissingApprovalForAll",
      "type": "error"
    },
    {
      "inputs": [
        {
          "internalType": "address",
          "name": "owner",
          "type": "address"
        }
      ],
      "name": "OwnableInvalidOwner",
      "type": "error"
    },
    {
      "inputs": [
        {
          "internalType": "address",
          "name": "account",
          "type": "address"
        }
      ],
      "name": "OwnableUnauthorizedAccount",
      "type": "error"
    },
    {
      "anonymous": false,
      "inputs": [
        {
          "indexed": true,
          "internalType": "address",
          "name": "account",
          "type": "address"
        },
        {
          "indexed": true,
          "internalType": "address",
          "name": "operator",
          "type": "address"
        },
        {
          "indexed": false,
          "internalType": "bool",
          "name": "approved",
          "type": "bool"
        }
      ],
      "name": "ApprovalForAll",
      "type": "event"
    },
    {
      "anonymous": false,
      "inputs": [
        {
          "indexed": true,
          "internalType": "address",
          "name": "previousOwner",
          "type": "address"
        },
        {
          "indexed": true,
          "internalType": "address",
          "name": "newOwner",
          "type": "address"
        }
      ],
      "name": "OwnershipTransferred",
      "type": "event"
    },
    {
      "anonymous": false,
      "inputs": [
        {
          "indexed": true,
          "internalType": "address",
          "name": "operator",
          "type": "address"
        },
        {
          "indexed": true,
          "internalType": "address",
          "name": "from",
          "type": "address"
        },
        {
          "indexed": true,
          "internalType": "address",
          "name": "to",
          "type": "address"
        },
        {
          "indexed": false,
          "internalType": "uint256[]",
          "name": "ids",
          "type": "uint256[]"
        },
        {
          "indexed": false,
          "internalType": "uint256[]",
          "name": "values",
          "type": "uint256[]"
        }
      ],
      "name": "TransferBatch",
      "type": "event"
    },
    {
      "anonymous": false,
      "inputs": [
        {
          "indexed": true,
          "internalType": "address",
          "name": "operator",
          "type": "address"
        },
        {
          "indexed": true,
          "internalType": "address",
          "name": "from",
          "type": "address"
        },
        {
          "indexed": true,
          "internalType": "address",
          "name": "to",
          "type": "address"
        },
        {
          "indexed": false,
          "internalType": "uint256",
          "name": "id",
          "type": "uint256"
        },
        {
          "indexed": false,
          "internalType": "uint256",
          "name": "value",
          "type": "uint256"
        }
      ],
      "name": "TransferSingle",
      "type": "event"
    },
    {
      "anonymous": false,
      "inputs": [
        {
          "indexed": false,
          "internalType": "string",
          "name": "value",
          "type": "string"
        },
        {
          "indexed": true,
          "internalType": "uint256",
          "name": "id",
          "type": "uint256"
        }
      ],
      "name": "URI",
      "type": "event"
    },
    {
      "inputs": [
        {
          "internalType": "address",
          "name": "account",
          "type": "address"
        },
        {
          "internalType": "uint256",
          "name": "id",
          "type": "uint256"
        }
      ],
      "name": "balanceOf",
      "outputs": [
        {
          "internalType": "uint256",
          "name": "",
          "type": "uint256"
        }
      ],
      "stateMutability": "view",
      "type": "function"
    },
    {
      "inputs": [
        {
          "internalType": "address[]",
          "name": "accounts",
          "type": "address[]"
        },
        {
          "internalType": "uint256[]",
          "name": "ids",
          "type": "uint256[]"
        }
      ],
      "name": "balanceOfBatch",
      "outputs": [
        {
          "internalType": "uint256[]",
          "name": "",
          "type": "uint256[]"
        }
      ],
      "stateMutability": "view",
      "type": "function"
    },
    {
      "inputs": [
        {
          "internalType": "uint256",
          "name": "tokenId",
          "type": "uint256"
        }
      ],
      "name": "getTokenInfo",
      "outputs": [
        {
          "components": [
            {
              "internalType": "string",
              "name": "uri",
              "type": "string"
            },
            {
              "internalType": "string",
              "name": "name",
              "type": "string"
            },
            {
              "internalType": "string",
              "name": "symbol",
              "type": "string"
            },
            {
              "internalType": "uint256",
              "name": "maxSupply",
              "type": "uint256"
            },
            {
              "internalType": "uint256",
              "name": "currentSupply",
              "type": "uint256"
            },
            {
              "internalType": "uint256",
              "name": "defaultMintAmount",
              "type": "uint256"
            }
          ],
          "internalType": "struct RuneToken.TokenInfo",
          "name": "",
          "type": "tuple"
        }
      ],
      "stateMutability": "view",
      "type": "function"
    },
    {
      "inputs": [
        {
          "internalType": "address",
          "name": "user",
          "type": "address"
        }
      ],
      "name": "getUserTokens",
      "outputs": [
        {
          "internalType": "uint256[]",
          "name": "",
          "type": "uint256[]"
        }
      ],
      "stateMutability": "view",
      "type": "function"
    },
    {
      "inputs": [
        {
          "internalType": "address",
          "name": "account",
          "type": "address"
        },
        {
          "internalType": "address",
          "name": "operator",
          "type": "address"
        }
      ],
      "name": "isApprovedForAll",
      "outputs": [
        {
          "internalType": "bool",
          "name": "",
          "type": "bool"
        }
      ],
      "stateMutability": "view",
      "type": "function"
    },
    {
      "inputs": [
        {
          "internalType": "string",
          "name": "tokenURI",
          "type": "string"
        },
        {
          "internalType": "string",
          "name": "runeName",
          "type": "string"
        },
        {
          "internalType": "string",
          "name": "symbol",
          "type": "string"
        },
        {
          "internalType": "uint256",
          "name": "maxSupply",
          "type": "uint256"
        },
        {
          "internalType": "uint256",
          "name": "initialSupply",
          "type": "uint256"
        },
        {
          "internalType": "uint256",
          "name": "defaultMintAmount",
          "type": "uint256"
        },
        {
          "internalType": "address",
          "name": "receiver",
          "type": "address"
        }
      ],
      "name": "mintFungible",
      "outputs": [],
      "stateMutability": "nonpayable",
      "type": "function"
    },
    {
      "inputs": [
        {
          "internalType": "string",
          "name": "runeName",
          "type": "string"
        },
        {
          "internalType": "address",
          "name": "receiver",
          "type": "address"
        }
      ],
      "name": "mintMore",
      "outputs": [],
      "stateMutability": "nonpayable",
      "type": "function"
    },
    {
      "inputs": [
        {
          "internalType": "string",
          "name": "tokenURI",
          "type": "string"
        },
        {
          "internalType": "string",
          "name": "runeName",
          "type": "string"
        },
        {
          "internalType": "string",
          "name": "symbol",
          "type": "string"
        },
        {
          "internalType": "address",
          "name": "receiver",
          "type": "address"
        }
      ],
      "name": "mintNonFungible",
      "outputs": [],
      "stateMutability": "nonpayable",
      "type": "function"
    },
    {
      "inputs": [],
      "name": "owner",
      "outputs": [
        {
          "internalType": "address",
          "name": "",
          "type": "address"
        }
      ],
      "stateMutability": "view",
      "type": "function"
    },
    {
      "inputs": [],
      "name": "renounceOwnership",
      "outputs": [],
      "stateMutability": "nonpayable",
      "type": "function"
    },
    {
      "inputs": [
        {
          "internalType": "address",
          "name": "from",
          "type": "address"
        },
        {
          "internalType": "address",
          "name": "to",
          "type": "address"
        },
        {
          "internalType": "uint256[]",
          "name": "ids",
          "type": "uint256[]"
        },
        {
          "internalType": "uint256[]",
          "name": "values",
          "type": "uint256[]"
        },
        {
          "internalType": "bytes",
          "name": "data",
          "type": "bytes"
        }
      ],
      "name": "safeBatchTransferFrom",
      "outputs": [],
      "stateMutability": "nonpayable",
      "type": "function"
    },
    {
      "inputs": [
        {
          "internalType": "address",
          "name": "from",
          "type": "address"
        },
        {
          "internalType": "address",
          "name": "to",
          "type": "address"
        },
        {
          "internalType": "uint256",
          "name": "id",
          "type": "uint256"
        },
        {
          "internalType": "uint256",
          "name": "value",
          "type": "uint256"
        },
        {
          "internalType": "bytes",
          "name": "data",
          "type": "bytes"
        }
      ],
      "name": "safeTransferFrom",
      "outputs": [],
      "stateMutability": "nonpayable",
      "type": "function"
    },
    {
      "inputs": [
        {
          "internalType": "address",
          "name": "operator",
          "type": "address"
        },
        {
          "internalType": "bool",
          "name": "approved",
          "type": "bool"
        }
      ],
      "name": "setApprovalForAll",
      "outputs": [],
      "stateMutability": "nonpayable",
      "type": "function"
    },
    {
      "inputs": [
        {
          "internalType": "bytes4",
          "name": "interfaceId",
          "type": "bytes4"
        }
      ],
      "name": "supportsInterface",
      "outputs": [
        {
          "internalType": "bool",
          "name": "",
          "type": "bool"
        }
      ],
      "stateMutability": "view",
      "type": "function"
    },
    {
      "inputs": [
        {
          "internalType": "address",
          "name": "newOwner",
          "type": "address"
        }
      ],
      "name": "transferOwnership",
      "outputs": [],
      "stateMutability": "nonpayable",
      "type": "function"
    },
    {
      "inputs": [
        {
          "internalType": "uint256",
          "name": "tokenId",
          "type": "uint256"
        }
      ],
      "name": "uri",
      "outputs": [
        {
          "internalType": "string",
          "name": "",
          "type": "string"
        }
      ],
      "stateMutability": "view",
      "type": "function"
    }
  ],
  "bytecode": "0x60806040523480156200001157600080fd5b5060405162003b1538038062003b1583398181016040528101906200003791906200022d565b80604051806020016040528060008152506200005981620000e860201b60201c565b50600073ffffffffffffffffffffffffffffffffffffffff168173ffffffffffffffffffffffffffffffffffffffff1603620000cf5760006040517f1e4fbdf7000000000000000000000000000000000000000000000000000000008152600401620000c6919062000270565b60405180910390fd5b620000e081620000fd60201b60201c565b5050620005ee565b8060029081620000f9919062000507565b5050565b6000600360009054906101000a900473ffffffffffffffffffffffffffffffffffffffff16905081600360006101000a81548173ffffffffffffffffffffffffffffffffffffffff021916908373ffffffffffffffffffffffffffffffffffffffff1602179055508173ffffffffffffffffffffffffffffffffffffffff168173ffffffffffffffffffffffffffffffffffffffff167f8be0079c531659141344cd1fd0a4f28419497f9722a3daafe3b4186f6b6457e060405160405180910390a35050565b600080fd5b600073ffffffffffffffffffffffffffffffffffffffff82169050919050565b6000620001f582620001c8565b9050919050565b6200020781620001e8565b81146200021357600080fd5b50565b6000815190506200022781620001fc565b92915050565b600060208284031215620002465762000245620001c3565b5b6000620002568482850162000216565b91505092915050565b6200026a81620001e8565b82525050565b60006020820190506200028760008301846200025f565b92915050565b600081519050919050565b7f4e487b7100000000000000000000000000000000000000000000000000000000600052604160045260246000fd5b7f4e487b7100000000000000000000000000000000000000000000000000000000600052602260045260246000fd5b600060028204905060018216806200030f57607f821691505b602082108103620003255762000324620002c7565b5b50919050565b60008190508160005260206000209050919050565b60006020601f8301049050919050565b600082821b905092915050565b6000600883026200038f7fffffffffffffffffffffffffffffffffffffffffffffffffffffffffffffffff8262000350565b6200039b868362000350565b95508019841693508086168417925050509392505050565b6000819050919050565b6000819050919050565b6000620003e8620003e2620003dc84620003b3565b620003bd565b620003b3565b9050919050565b6000819050919050565b6200040483620003c7565b6200041c6200041382620003ef565b8484546200035d565b825550505050565b600090565b6200043362000424565b62000440818484620003f9565b505050565b5b8181101562000468576200045c60008262000429565b60018101905062000446565b5050565b601f821115620004b75762000481816200032b565b6200048c8462000340565b810160208510156200049c578190505b620004b4620004ab8562000340565b83018262000445565b50505b505050565b600082821c905092915050565b6000620004dc60001984600802620004bc565b1980831691505092915050565b6000620004f78383620004c9565b9150826002028217905092915050565b62000512826200028d565b67ffffffffffffffff8111156200052e576200052d62000298565b5b6200053a8254620002f6565b620005478282856200046c565b600060209050601f8311600181146200057f57600084156200056a578287015190505b620005768582620004e9565b865550620005e6565b601f1984166200058f866200032b565b60005b82811015620005b95784890151825560018201915060208501945060208101905062000592565b86831015620005d95784890151620005d5601f891682620004c9565b8355505b6001600288020188555050505b505050505050565b61351780620005fe6000396000f3fe608060405234801561001057600080fd5b50600436106100ff5760003560e01c80638c7a63ae11610097578063dec44e1311610066578063dec44e13146102bc578063e985e9c5146102d8578063f242432a14610308578063f2fde38b14610324576100ff565b80638c7a63ae146102365780638da5cb5b14610266578063978cf2df14610284578063a22cb465146102a0576100ff565b80634e1273f4116100d35780634e1273f4146101b0578063519dc8d2146101e0578063715018a61461021057806384dacc051461021a576100ff565b8062fdd58e1461010457806301ffc9a7146101345780630e89341c146101645780632eb2c2d614610194575b600080fd5b61011e600480360381019061011991906120a3565b610340565b60405161012b91906120f2565b60405180910390f35b61014e60048036038101906101499190612165565b61039a565b60405161015b91906121ad565b60405180910390f35b61017e600480360381019061017991906121c8565b61047c565b60405161018b9190612285565b60405180910390f35b6101ae60048036038101906101a991906124a4565b610524565b005b6101ca60048036038101906101c59190612636565b6105cc565b6040516101d7919061276c565b60405180910390f35b6101fa60048036038101906101f5919061278e565b6106db565b604051610207919061276c565b60405180910390f35b610218610772565b005b610234600480360381019061022f919061285c565b610786565b005b610250600480360381019061024b91906121c8565b610930565b60405161025d9190612a33565b60405180910390f35b61026e610b8a565b60405161027b9190612a64565b60405180910390f35b61029e60048036038101906102999190612a7f565b610bb4565b005b6102ba60048036038101906102b59190612b07565b610d5c565b005b6102d660048036038101906102d19190612b47565b610d72565b005b6102f260048036038101906102ed9190612c02565b610eda565b6040516102ff91906121ad565b60405180910390f35b610322600480360381019061031d9190612c42565b610f6e565b005b61033e6004803603810190610339919061278e565b611016565b005b600080600083815260200190815260200160002060008473ffffffffffffffffffffffffffffffffffffffff1673ffffffffffffffffffffffffffffffffffffffff16815260200190815260200160002054905092915050565b60007fd9b67a26000000000000000000000000000000000000000000000000000000007bffffffffffffffffffffffffffffffffffffffffffffffffffffffff1916827bffffffffffffffffffffffffffffffffffffffffffffffffffffffff1916148061046557507f0e89341c000000000000000000000000000000000000000000000000000000007bffffffffffffffffffffffffffffffffffffffffffffffffffffffff1916827bffffffffffffffffffffffffffffffffffffffffffffffffffffffff1916145b8061047557506104748261109c565b5b9050919050565b606060046000838152602001908152602001600020600001805461049f90612d08565b80601f01602080910402602001604051908101604052809291908181526020018280546104cb90612d08565b80156105185780601f106104ed57610100808354040283529160200191610518565b820191906000526020600020905b8154815290600101906020018083116104fb57829003601f168201915b50505050509050919050565b600061052e611106565b90508073ffffffffffffffffffffffffffffffffffffffff168673ffffffffffffffffffffffffffffffffffffffff161415801561057357506105718682610eda565b155b156105b75780866040517fe237d9220000000000000000000000000000000000000000000000000000000081526004016105ae929190612d39565b60405180910390fd5b6105c4868686868661110e565b505050505050565b6060815183511461061857815183516040517f5b05999100000000000000000000000000000000000000000000000000000000815260040161060f929190612d62565b60405180910390fd5b6000835167ffffffffffffffff811115610635576106346122ac565b5b6040519080825280602002602001820160405280156106635781602001602082028036833780820191505090505b50905060005b84518110156106d0576106a0610688828761120690919063ffffffff16565b61069b838761121a90919063ffffffff16565b610340565b8282815181106106b3576106b2612d8b565b5b602002602001018181525050806106c990612de9565b9050610669565b508091505092915050565b6060600560008373ffffffffffffffffffffffffffffffffffffffff1673ffffffffffffffffffffffffffffffffffffffff16815260200190815260200160002080548060200260200160405190810160405280929190818152602001828054801561076657602002820191906000526020600020905b815481526020019060010190808311610752575b50505050509050919050565b61077a61122e565b61078460006112b5565b565b61078e61122e565b838311156107d1576040517f08c379a00000000000000000000000000000000000000000000000000000000081526004016107c890612ea3565b60405180910390fd5b6000866040516020016107e49190612eff565b60405160208183030381529060405280519060200120905060008160001c9050600060046000838152602001908152602001600020600301541461085d576040517f08c379a000000000000000000000000000000000000000000000000000000000815260040161085490612f62565b60405180910390fd5b6040518060c001604052808a8152602001898152602001888152602001878152602001868152602001858152506004600083815260200190815260200160002060008201518160000190816108b2919061312e565b5060208201518160010190816108c8919061312e565b5060408201518160020190816108de919061312e565b50606082015181600301556080820151816004015560a0820151816005015590505061091b8382876040518060200160405280600081525061137b565b6109258382611414565b505050505050505050565b610938611fc5565b6000600460008481526020019081526020016000206003015411610991576040517f08c379a00000000000000000000000000000000000000000000000000000000081526004016109889061324c565b60405180910390fd5b600460008381526020019081526020016000206040518060c00160405290816000820180546109bf90612d08565b80601f01602080910402602001604051908101604052809291908181526020018280546109eb90612d08565b8015610a385780601f10610a0d57610100808354040283529160200191610a38565b820191906000526020600020905b815481529060010190602001808311610a1b57829003601f168201915b50505050508152602001600182018054610a5190612d08565b80601f0160208091040260200160405190810160405280929190818152602001828054610a7d90612d08565b8015610aca5780601f10610a9f57610100808354040283529160200191610aca565b820191906000526020600020905b815481529060010190602001808311610aad57829003601f168201915b50505050508152602001600282018054610ae390612d08565b80601f0160208091040260200160405190810160405280929190818152602001828054610b0f90612d08565b8015610b5c5780601f10610b3157610100808354040283529160200191610b5c565b820191906000526020600020905b815481529060010190602001808311610b3f57829003601f168201915b5050505050815260200160038201548152602001600482015481526020016005820154815250509050919050565b6000600360009054906101000a900473ffffffffffffffffffffffffffffffffffffffff16905090565b610bbc61122e565b600082604051602001610bcf9190612eff565b60405160208183030381529060405280519060200120905060008160001c90506000600460008381526020019081526020016000206003015411610c48576040517f08c379a0000000000000000000000000000000000000000000000000000000008152600401610c3f9061324c565b60405180910390fd5b600460008281526020019081526020016000206003015460046000838152602001908152602001600020600501546004600084815260200190815260200160002060040154610c97919061326c565b1115610cd8576040517f08c379a0000000000000000000000000000000000000000000000000000000008152600401610ccf906132ec565b60405180910390fd5b610d09838260046000858152602001908152602001600020600501546040518060200160405280600081525061137b565b6004600082815260200190815260200160002060050154600460008381526020019081526020016000206004016000828254610d45919061326c565b92505081905550610d568382611414565b50505050565b610d6e610d67611106565b8383611552565b5050565b610d7a61122e565b600083604051602001610d8d9190612eff565b60405160208183030381529060405280519060200120905060008160001c90506000600460008381526020019081526020016000206003015414610e06576040517f08c379a0000000000000000000000000000000000000000000000000000000008152600401610dfd90612f62565b60405180910390fd5b6040518060c0016040528087815260200186815260200185815260200160018152602001600181526020016001815250600460008381526020019081526020016000206000820151816000019081610e5e919061312e565b506020820151816001019081610e74919061312e565b506040820151816002019081610e8a919061312e565b50606082015181600301556080820151816004015560a08201518160050155905050610ec8838260016040518060200160405280600081525061137b565b610ed28382611414565b505050505050565b6000600160008473ffffffffffffffffffffffffffffffffffffffff1673ffffffffffffffffffffffffffffffffffffffff16815260200190815260200160002060008373ffffffffffffffffffffffffffffffffffffffff1673ffffffffffffffffffffffffffffffffffffffff16815260200190815260200160002060009054906101000a900460ff16905092915050565b6000610f78611106565b90508073ffffffffffffffffffffffffffffffffffffffff168673ffffffffffffffffffffffffffffffffffffffff1614158015610fbd5750610fbb8682610eda565b155b156110015780866040517fe237d922000000000000000000000000000000000000000000000000000000008152600401610ff8929190612d39565b60405180910390fd5b61100e86868686866116c2565b505050505050565b61101e61122e565b600073ffffffffffffffffffffffffffffffffffffffff168173ffffffffffffffffffffffffffffffffffffffff16036110905760006040517f1e4fbdf70000000000000000000000000000000000000000000000000000000081526004016110879190612a64565b60405180910390fd5b611099816112b5565b50565b60007f01ffc9a7000000000000000000000000000000000000000000000000000000007bffffffffffffffffffffffffffffffffffffffffffffffffffffffff1916827bffffffffffffffffffffffffffffffffffffffffffffffffffffffff1916149050919050565b600033905090565b600073ffffffffffffffffffffffffffffffffffffffff168473ffffffffffffffffffffffffffffffffffffffff16036111805760006040517f57f447ce0000000000000000000000000000000000000000000000000000000081526004016111779190612a64565b60405180910390fd5b600073ffffffffffffffffffffffffffffffffffffffff168573ffffffffffffffffffffffffffffffffffffffff16036111f25760006040517f01a835140000000000000000000000000000000000000000000000000000000081526004016111e99190612a64565b60405180910390fd5b6111ff85858585856117cd565b5050505050565b600060208202602084010151905092915050565b600060208202602084010151905092915050565b611236611106565b73ffffffffffffffffffffffffffffffffffffffff16611254610b8a565b73ffffffffffffffffffffffffffffffffffffffff16146112b357611277611106565b6040517f118cdaa70000000000000000000000000000000000000000000000000000000081526004016112aa9190612a64565b60405180910390fd5b565b6000600360009054906101000a900473ffffffffffffffffffffffffffffffffffffffff16905081600360006101000a81548173ffffffffffffffffffffffffffffffffffffffff021916908373ffffffffffffffffffffffffffffffffffffffff1602179055508173ffffffffffffffffffffffffffffffffffffffff168173ffffffffffffffffffffffffffffffffffffffff167f8be0079c531659141344cd1fd0a4f28419497f9722a3daafe3b4186f6b6457e060405160405180910390a35050565b600073ffffffffffffffffffffffffffffffffffffffff168473ffffffffffffffffffffffffffffffffffffffff16036113ed5760006040517f57f447ce0000000000000000000000000000000000000000000000000000000081526004016113e49190612a64565b60405180910390fd5b6000806113fa858561187f565b9150915061140c6000878484876117cd565b505050505050565b6000805b600560008573ffffffffffffffffffffffffffffffffffffffff1673ffffffffffffffffffffffffffffffffffffffff168152602001908152602001600020805490508110156114e05782600560008673ffffffffffffffffffffffffffffffffffffffff1673ffffffffffffffffffffffffffffffffffffffff16815260200190815260200160002082815481106114b4576114b3612d8b565b5b9060005260206000200154036114cd57600191506114e0565b80806114d890612de9565b915050611418565b508061154d57600560008473ffffffffffffffffffffffffffffffffffffffff1673ffffffffffffffffffffffffffffffffffffffff1681526020019081526020016000208290806001815401808255809150506001900390600052602060002001600090919091909150555b505050565b600073ffffffffffffffffffffffffffffffffffffffff168273ffffffffffffffffffffffffffffffffffffffff16036115c45760006040517fced3e1000000000000000000000000000000000000000000000000000000000081526004016115bb9190612a64565b60405180910390fd5b80600160008573ffffffffffffffffffffffffffffffffffffffff1673ffffffffffffffffffffffffffffffffffffffff16815260200190815260200160002060008473ffffffffffffffffffffffffffffffffffffffff1673ffffffffffffffffffffffffffffffffffffffff16815260200190815260200160002060006101000a81548160ff0219169083151502179055508173ffffffffffffffffffffffffffffffffffffffff168373ffffffffffffffffffffffffffffffffffffffff167f17307eab39ab6107e8899845ad3d59bd9653f200f220920489ca2b5937696c31836040516116b591906121ad565b60405180910390a3505050565b600073ffffffffffffffffffffffffffffffffffffffff168473ffffffffffffffffffffffffffffffffffffffff16036117345760006040517f57f447ce00000000000000000000000000000000000000000000000000000000815260040161172b9190612a64565b60405180910390fd5b600073ffffffffffffffffffffffffffffffffffffffff168573ffffffffffffffffffffffffffffffffffffffff16036117a65760006040517f01a8351400000000000000000000000000000000000000000000000000000000815260040161179d9190612a64565b60405180910390fd5b6000806117b3858561187f565b915091506117c487878484876117cd565b50505050505050565b6117d9858585856118af565b600073ffffffffffffffffffffffffffffffffffffffff168473ffffffffffffffffffffffffffffffffffffffff1614611878576000611817611106565b9050600184510361186757600061183860008661121a90919063ffffffff16565b9050600061185060008661121a90919063ffffffff16565b9050611860838989858589611c5d565b5050611876565b611875818787878787611e11565b5b505b5050505050565b60608060405191506001825283602083015260408201905060018152826020820152604081016040529250929050565b80518251146118f957815181516040517f5b0599910000000000000000000000000000000000000000000000000000000081526004016118f0929190612d62565b60405180910390fd5b6000611903611106565b905060005b8351811015611b18576000611926828661121a90919063ffffffff16565b9050600061193d838661121a90919063ffffffff16565b9050600073ffffffffffffffffffffffffffffffffffffffff168873ffffffffffffffffffffffffffffffffffffffff1614611a6a57600080600084815260200190815260200160002060008a73ffffffffffffffffffffffffffffffffffffffff1673ffffffffffffffffffffffffffffffffffffffff16815260200190815260200160002054905081811015611a1257888183856040517f03dee4c5000000000000000000000000000000000000000000000000000000008152600401611a09949392919061330c565b60405180910390fd5b81810360008085815260200190815260200160002060008b73ffffffffffffffffffffffffffffffffffffffff1673ffffffffffffffffffffffffffffffffffffffff16815260200190815260200160002081905550505b600073ffffffffffffffffffffffffffffffffffffffff168773ffffffffffffffffffffffffffffffffffffffff1614611b05578060008084815260200190815260200160002060008973ffffffffffffffffffffffffffffffffffffffff1673ffffffffffffffffffffffffffffffffffffffff1681526020019081526020016000206000828254611afd919061326c565b925050819055505b505080611b1190612de9565b9050611908565b506001835103611bd7576000611b3860008561121a90919063ffffffff16565b90506000611b5060008561121a90919063ffffffff16565b90508573ffffffffffffffffffffffffffffffffffffffff168773ffffffffffffffffffffffffffffffffffffffff168473ffffffffffffffffffffffffffffffffffffffff167fc3d58168c5ae7397731d063d5bbf3d657854427343f4c083240f7aacaa2d0f628585604051611bc8929190612d62565b60405180910390a45050611c56565b8373ffffffffffffffffffffffffffffffffffffffff168573ffffffffffffffffffffffffffffffffffffffff168273ffffffffffffffffffffffffffffffffffffffff167f4a39dc06d4c0dbc64b70af90fd698a233a518aa5d07e595d983b8c0526c8f7fb8686604051611c4d929190613351565b60405180910390a45b5050505050565b60008473ffffffffffffffffffffffffffffffffffffffff163b1115611e09578373ffffffffffffffffffffffffffffffffffffffff1663f23a6e6187878686866040518663ffffffff1660e01b8152600401611cbe9594939291906133dd565b6020604051808303816000875af1925050508015611cfa57506040513d601f19601f82011682018060405250810190611cf7919061344c565b60015b611d7e573d8060008114611d2a576040519150601f19603f3d011682016040523d82523d6000602084013e611d2f565b606091505b506000815103611d7657846040517f57f447ce000000000000000000000000000000000000000000000000000000008152600401611d6d9190612a64565b60405180910390fd5b805181602001fd5b63f23a6e6160e01b7bffffffffffffffffffffffffffffffffffffffffffffffffffffffff1916817bffffffffffffffffffffffffffffffffffffffffffffffffffffffff191614611e0757846040517f57f447ce000000000000000000000000000000000000000000000000000000008152600401611dfe9190612a64565b60405180910390fd5b505b505050505050565b60008473ffffffffffffffffffffffffffffffffffffffff163b1115611fbd578373ffffffffffffffffffffffffffffffffffffffff1663bc197c8187878686866040518663ffffffff1660e01b8152600401611e72959493929190613479565b6020604051808303816000875af1925050508015611eae57506040513d601f19601f82011682018060405250810190611eab919061344c565b60015b611f32573d8060008114611ede576040519150601f19603f3d011682016040523d82523d6000602084013e611ee3565b606091505b506000815103611f2a57846040517f57f447ce000000000000000000000000000000000000000000000000000000008152600401611f219190612a64565b60405180910390fd5b805181602001fd5b63bc197c8160e01b7bffffffffffffffffffffffffffffffffffffffffffffffffffffffff1916817bffffffffffffffffffffffffffffffffffffffffffffffffffffffff191614611fbb57846040517f57f447ce000000000000000000000000000000000000000000000000000000008152600401611fb29190612a64565b60405180910390fd5b505b505050505050565b6040518060c001604052806060815260200160608152602001606081526020016000815260200160008152602001600081525090565b6000604051905090565b600080fd5b600080fd5b600073ffffffffffffffffffffffffffffffffffffffff82169050919050565b600061203a8261200f565b9050919050565b61204a8161202f565b811461205557600080fd5b50565b60008135905061206781612041565b92915050565b6000819050919050565b6120808161206d565b811461208b57600080fd5b50565b60008135905061209d81612077565b92915050565b600080604083850312156120ba576120b9612005565b5b60006120c885828601612058565b92505060206120d98582860161208e565b9150509250929050565b6120ec8161206d565b82525050565b600060208201905061210760008301846120e3565b92915050565b60007fffffffff0000000000000000000000000000000000000000000000000000000082169050919050565b6121428161210d565b811461214d57600080fd5b50565b60008135905061215f81612139565b92915050565b60006020828403121561217b5761217a612005565b5b600061218984828501612150565b91505092915050565b60008115159050919050565b6121a781612192565b82525050565b60006020820190506121c2600083018461219e565b92915050565b6000602082840312156121de576121dd612005565b5b60006121ec8482850161208e565b91505092915050565b600081519050919050565b600082825260208201905092915050565b60005b8381101561222f578082015181840152602081019050612214565b60008484015250505050565b6000601f19601f8301169050919050565b6000612257826121f5565b6122618185612200565b9350612271818560208601612211565b61227a8161223b565b840191505092915050565b6000602082019050818103600083015261229f818461224c565b905092915050565b600080fd5b7f4e487b7100000000000000000000000000000000000000000000000000000000600052604160045260246000fd5b6122e48261223b565b810181811067ffffffffffffffff82111715612303576123026122ac565b5b80604052505050565b6000612316611ffb565b905061232282826122db565b919050565b600067ffffffffffffffff821115612342576123416122ac565b5b602082029050602081019050919050565b600080fd5b600061236b61236684612327565b61230c565b9050808382526020820190506020840283018581111561238e5761238d612353565b5b835b818110156123b757806123a3888261208e565b845260208401935050602081019050612390565b5050509392505050565b600082601f8301126123d6576123d56122a7565b5b81356123e6848260208601612358565b91505092915050565b600080fd5b600067ffffffffffffffff82111561240f5761240e6122ac565b5b6124188261223b565b9050602081019050919050565b82818337600083830152505050565b6000612447612442846123f4565b61230c565b905082815260208101848484011115612463576124626123ef565b5b61246e848285612425565b509392505050565b600082601f83011261248b5761248a6122a7565b5b813561249b848260208601612434565b91505092915050565b600080600080600060a086880312156124c0576124bf612005565b5b60006124ce88828901612058565b95505060206124df88828901612058565b945050604086013567ffffffffffffffff811115612500576124ff61200a565b5b61250c888289016123c1565b935050606086013567ffffffffffffffff81111561252d5761252c61200a565b5b612539888289016123c1565b925050608086013567ffffffffffffffff81111561255a5761255961200a565b5b61256688828901612476565b9150509295509295909350565b600067ffffffffffffffff82111561258e5761258d6122ac565b5b602082029050602081019050919050565b60006125b26125ad84612573565b61230c565b905080838252602082019050602084028301858111156125d5576125d4612353565b5b835b818110156125fe57806125ea8882612058565b8452602084019350506020810190506125d7565b5050509392505050565b600082601f83011261261d5761261c6122a7565b5b813561262d84826020860161259f565b91505092915050565b6000806040838503121561264d5761264c612005565b5b600083013567ffffffffffffffff81111561266b5761266a61200a565b5b61267785828601612608565b925050602083013567ffffffffffffffff8111156126985761269761200a565b5b6126a4858286016123c1565b9150509250929050565b600081519050919050565b600082825260208201905092915050565b6000819050602082019050919050565b6126e38161206d565b82525050565b60006126f583836126da565b60208301905092915050565b6000602082019050919050565b6000612719826126ae565b61272381856126b9565b935061272e836126ca565b8060005b8381101561275f57815161274688826126e9565b975061275183612701565b925050600181019050612732565b5085935050505092915050565b60006020820190508181036000830152612786818461270e565b905092915050565b6000602082840312156127a4576127a3612005565b5b60006127b284828501612058565b91505092915050565b600067ffffffffffffffff8211156127d6576127d56122ac565b5b6127df8261223b565b9050602081019050919050565b60006127ff6127fa846127bb565b61230c565b90508281526020810184848401111561281b5761281a6123ef565b5b612826848285612425565b509392505050565b600082601f830112612843576128426122a7565b5b81356128538482602086016127ec565b91505092915050565b600080600080600080600060e0888a03121561287b5761287a612005565b5b600088013567ffffffffffffffff8111156128995761289861200a565b5b6128a58a828b0161282e565b975050602088013567ffffffffffffffff8111156128c6576128c561200a565b5b6128d28a828b0161282e565b965050604088013567ffffffffffffffff8111156128f3576128f261200a565b5b6128ff8a828b0161282e565b95505060606129108a828b0161208e565b94505060806129218a828b0161208e565b93505060a06129328a828b0161208e565b92505060c06129438a828b01612058565b91505092959891949750929550565b600082825260208201905092915050565b600061296e826121f5565b6129788185612952565b9350612988818560208601612211565b6129918161223b565b840191505092915050565b600060c08301600083015184820360008601526129b98282612963565b915050602083015184820360208601526129d38282612963565b915050604083015184820360408601526129ed8282612963565b9150506060830151612a0260608601826126da565b506080830151612a1560808601826126da565b5060a0830151612a2860a08601826126da565b508091505092915050565b60006020820190508181036000830152612a4d818461299c565b905092915050565b612a5e8161202f565b82525050565b6000602082019050612a796000830184612a55565b92915050565b60008060408385031215612a9657612a95612005565b5b600083013567ffffffffffffffff811115612ab457612ab361200a565b5b612ac08582860161282e565b9250506020612ad185828601612058565b9150509250929050565b612ae481612192565b8114612aef57600080fd5b50565b600081359050612b0181612adb565b92915050565b60008060408385031215612b1e57612b1d612005565b5b6000612b2c85828601612058565b9250506020612b3d85828601612af2565b9150509250929050565b60008060008060808587031215612b6157612b60612005565b5b600085013567ffffffffffffffff811115612b7f57612b7e61200a565b5b612b8b8782880161282e565b945050602085013567ffffffffffffffff811115612bac57612bab61200a565b5b612bb88782880161282e565b935050604085013567ffffffffffffffff811115612bd957612bd861200a565b5b612be58782880161282e565b9250506060612bf687828801612058565b91505092959194509250565b60008060408385031215612c1957612c18612005565b5b6000612c2785828601612058565b9250506020612c3885828601612058565b9150509250929050565b600080600080600060a08688031215612c5e57612c5d612005565b5b6000612c6c88828901612058565b9550506020612c7d88828901612058565b9450506040612c8e8882890161208e565b9350506060612c9f8882890161208e565b925050608086013567ffffffffffffffff811115612cc057612cbf61200a565b5b612ccc88828901612476565b9150509295509295909350565b7f4e487b7100000000000000000000000000000000000000000000000000000000600052602260045260246000fd5b60006002820490506001821680612d2057607f821691505b602082108103612d3357612d32612cd9565b5b50919050565b6000604082019050612d4e6000830185612a55565b612d5b6020830184612a55565b9392505050565b6000604082019050612d7760008301856120e3565b612d8460208301846120e3565b9392505050565b7f4e487b7100000000000000000000000000000000000000000000000000000000600052603260045260246000fd5b7f4e487b7100000000000000000000000000000000000000000000000000000000600052601160045260246000fd5b6000612df48261206d565b91507fffffffffffffffffffffffffffffffffffffffffffffffffffffffffffffffff8203612e2657612e25612dba565b5b600182019050919050565b7f496e697469616c20737570706c792065786365656473206d617820737570706c60008201527f7900000000000000000000000000000000000000000000000000000000000000602082015250565b6000612e8d602183612200565b9150612e9882612e31565b604082019050919050565b60006020820190508181036000830152612ebc81612e80565b9050919050565b600081905092915050565b6000612ed9826121f5565b612ee38185612ec3565b9350612ef3818560208601612211565b80840191505092915050565b6000612f0b8284612ece565b915081905092915050565b7f546f6b656e20494420616c726561647920657869737473000000000000000000600082015250565b6000612f4c601783612200565b9150612f5782612f16565b602082019050919050565b60006020820190508181036000830152612f7b81612f3f565b9050919050565b60008190508160005260206000209050919050565b60006020601f8301049050919050565b600082821b905092915050565b600060088302612fe47fffffffffffffffffffffffffffffffffffffffffffffffffffffffffffffffff82612fa7565b612fee8683612fa7565b95508019841693508086168417925050509392505050565b6000819050919050565b600061302b6130266130218461206d565b613006565b61206d565b9050919050565b6000819050919050565b61304583613010565b61305961305182613032565b848454612fb4565b825550505050565b600090565b61306e613061565b61307981848461303c565b505050565b5b8181101561309d57613092600082613066565b60018101905061307f565b5050565b601f8211156130e2576130b381612f82565b6130bc84612f97565b810160208510156130cb578190505b6130df6130d785612f97565b83018261307e565b50505b505050565b600082821c905092915050565b6000613105600019846008026130e7565b1980831691505092915050565b600061311e83836130f4565b9150826002028217905092915050565b613137826121f5565b67ffffffffffffffff8111156131505761314f6122ac565b5b61315a8254612d08565b6131658282856130a1565b600060209050601f8311600181146131985760008415613186578287015190505b6131908582613112565b8655506131f8565b601f1984166131a686612f82565b60005b828110156131ce578489015182556001820191506020850194506020810190506131a9565b868310156131eb57848901516131e7601f8916826130f4565b8355505b6001600288020188555050505b505050505050565b7f546f6b656e20494420646f6573206e6f74206578697374000000000000000000600082015250565b6000613236601783612200565b915061324182613200565b602082019050919050565b6000602082019050818103600083015261326581613229565b9050919050565b60006132778261206d565b91506132828361206d565b925082820190508082111561329a57613299612dba565b5b92915050565b7f45786365656473206d617820737570706c790000000000000000000000000000600082015250565b60006132d6601283612200565b91506132e1826132a0565b602082019050919050565b60006020820190508181036000830152613305816132c9565b9050919050565b60006080820190506133216000830187612a55565b61332e60208301866120e3565b61333b60408301856120e3565b61334860608301846120e3565b95945050505050565b6000604082019050818103600083015261336b818561270e565b9050818103602083015261337f818461270e565b90509392505050565b600081519050919050565b600082825260208201905092915050565b60006133af82613388565b6133b98185613393565b93506133c9818560208601612211565b6133d28161223b565b840191505092915050565b600060a0820190506133f26000830188612a55565b6133ff6020830187612a55565b61340c60408301866120e3565b61341960608301856120e3565b818103608083015261342b81846133a4565b90509695505050505050565b60008151905061344681612139565b92915050565b60006020828403121561346257613461612005565b5b600061347084828501613437565b91505092915050565b600060a08201905061348e6000830188612a55565b61349b6020830187612a55565b81810360408301526134ad818661270e565b905081810360608301526134c1818561270e565b905081810360808301526134d581846133a4565b9050969550505050505056fea264697066735822122076b449d2e55d99a4c128b542dde35e3fd18458eab89a34e3faedc3485386fa8864736f6c63430008140033",
  "linkReferences": {},
  "deployedLinkReferences": {}
}