{
  "_format": "hh-sol-artifact-1",
  "contractName": "RuneFactory",
  "sourceName": "contracts/RuneFactory.sol",
  "abi": [
    {
      "anonymous": false,
      "inputs": [
        {
          "indexed": false,
          "internalType": "address",
          "name": "tokenAddress",
          "type": "address"
        }
      ],
      "name": "TokenCreated",
      "type": "event"
    },
    {
      "inputs": [
        {
          "internalType": "string",
          "name": "name",
          "type": "string"
        },
        {
          "internalType": "string",
          "name": "symbol",
          "type": "string"
        },
        {
          "internalType": "uint256",
          "name": "initialSupply",
          "type": "uint256"
        },
        {
          "internalType": "address",
          "name": "initialOwner",
          "type": "address"
        },
        {
          "internalType": "uint256",
          "name": "runeIDBTC",
          "type": "uint256"
        },
        {
          "internalType": "bytes32",
          "name": "salt",
          "type": "bytes32"
        }
      ],
      "name": "createRune",
      "outputs": [],
      "stateMutability": "nonpayable",
      "type": "function"
    },
    {
      "inputs": [
        {
          "internalType": "uint256",
          "name": "index",
          "type": "uint256"
        }
      ],
      "name": "getToken",
      "outputs": [
        {
          "components": [
            {
              "internalType": "string",
              "name": "name",
              "type": "string"
            },
            {
              "internalType": "string",
              "name": "symbol",
              "type": "string"
            },
            {
              "internalType": "uint256",
              "name": "initialSupply",
              "type": "uint256"
            },
            {
              "internalType": "address",
              "name": "initialOwner",
              "type": "address"
            },
            {
              "internalType": "uint256",
              "name": "runeIDBTC",
              "type": "uint256"
            }
          ],
          "internalType": "struct RuneFactory.Token",
          "name": "",
          "type": "tuple"
        }
      ],
      "stateMutability": "view",
      "type": "function"
    },
    {
      "inputs": [
        {
          "internalType": "string",
          "name": "name",
          "type": "string"
        },
        {
          "internalType": "string",
          "name": "symbol",
          "type": "string"
        },
        {
          "internalType": "uint256",
          "name": "initialSupply",
          "type": "uint256"
        },
        {
          "internalType": "address",
          "name": "initialOwner",
          "type": "address"
        },
        {
          "internalType": "bytes32",
          "name": "salt",
          "type": "bytes32"
        }
      ],
      "name": "getTokenAddress",
      "outputs": [
        {
          "internalType": "address",
          "name": "",
          "type": "address"
        }
      ],
      "stateMutability": "view",
      "type": "function"
    },
    {
      "inputs": [],
      "name": "getTokenCount",
      "outputs": [
        {
          "internalType": "uint256",
          "name": "",
          "type": "uint256"
        }
      ],
      "stateMutability": "view",
      "type": "function"
    },
    {
      "inputs": [],
      "name": "getTokens",
      "outputs": [
        {
          "components": [
            {
              "internalType": "string",
              "name": "name",
              "type": "string"
            },
            {
              "internalType": "string",
              "name": "symbol",
              "type": "string"
            },
            {
              "internalType": "uint256",
              "name": "initialSupply",
              "type": "uint256"
            },
            {
              "internalType": "address",
              "name": "initialOwner",
              "type": "address"
            },
            {
              "internalType": "uint256",
              "name": "runeIDBTC",
              "type": "uint256"
            }
          ],
          "internalType": "struct RuneFactory.Token[]",
          "name": "",
          "type": "tuple[]"
        }
      ],
      "stateMutability": "view",
      "type": "function"
    },
    {
      "inputs": [
        {
          "internalType": "uint256",
          "name": "",
          "type": "uint256"
        }
      ],
      "name": "tokens",
      "outputs": [
        {
          "internalType": "string",
          "name": "name",
          "type": "string"
        },
        {
          "internalType": "string",
          "name": "symbol",
          "type": "string"
        },
        {
          "internalType": "uint256",
          "name": "initialSupply",
          "type": "uint256"
        },
        {
          "internalType": "address",
          "name": "initialOwner",
          "type": "address"
        },
        {
          "internalType": "uint256",
          "name": "runeIDBTC",
          "type": "uint256"
        }
      ],
      "stateMutability": "view",
      "type": "function"
    }
  ],
  "bytecode": "0x608060405234801561001057600080fd5b50613528806100206000396000f3fe60806040523480156200001157600080fd5b50600436106200006a5760003560e01c806322e49e49146200006f5780634f64b2be14620000a557806378a8956714620000df578063aa6ca8081462000101578063dc4a2e751462000123578063e4b50cb81462000143575b600080fd5b6200008d600480360381019062000087919062000c56565b62000179565b6040516200009c919062000d2d565b60405180910390f35b620000c36004803603810190620000bd919062000d4a565b6200023d565b604051620000d695949392919062000e16565b60405180910390f35b620000e9620003c4565b604051620000f8919062000e81565b60405180910390f35b6200010b620003d0565b6040516200011a919062001069565b60405180910390f35b6200014160048036038101906200013b91906200108d565b620005cf565b005b6200016160048036038101906200015b919062000d4a565b620007d3565b604051620001709190620011ee565b60405180910390f35b600080604051806020016200018e90620009b2565b6020820181038252601f19601f8201166040525087878787604051602001620001bb949392919062001212565b604051602081830303815290604052604051602001620001dd929190620012ba565b6040516020818303038152906040529050600060ff60f81b30858480519060200120604051602001620002149493929190620013a8565b6040516020818303038152906040528051906020012090508060001c9250505095945050505050565b600081815481106200024e57600080fd5b906000526020600020906005020160009150905080600001805462000273906200142d565b80601f0160208091040260200160405190810160405280929190818152602001828054620002a1906200142d565b8015620002f25780601f10620002c657610100808354040283529160200191620002f2565b820191906000526020600020905b815481529060010190602001808311620002d457829003601f168201915b50505050509080600101805462000309906200142d565b80601f016020809104026020016040519081016040528092919081815260200182805462000337906200142d565b8015620003885780601f106200035c5761010080835404028352916020019162000388565b820191906000526020600020905b8154815290600101906020018083116200036a57829003601f168201915b5050505050908060020154908060030160009054906101000a900473ffffffffffffffffffffffffffffffffffffffff16908060040154905085565b60008080549050905090565b60606000805480602002602001604051908101604052809291908181526020016000905b82821015620005c657838290600052602060002090600502016040518060a00160405290816000820180546200042a906200142d565b80601f016020809104026020016040519081016040528092919081815260200182805462000458906200142d565b8015620004a95780601f106200047d57610100808354040283529160200191620004a9565b820191906000526020600020905b8154815290600101906020018083116200048b57829003601f168201915b50505050508152602001600182018054620004c4906200142d565b80601f0160208091040260200160405190810160405280929190818152602001828054620004f2906200142d565b8015620005435780601f10620005175761010080835404028352916020019162000543565b820191906000526020600020905b8154815290600101906020018083116200052557829003601f168201915b50505050508152602001600282015481526020016003820160009054906101000a900473ffffffffffffffffffffffffffffffffffffffff1673ffffffffffffffffffffffffffffffffffffffff1673ffffffffffffffffffffffffffffffffffffffff16815260200160048201548152505081526020019060010190620003f4565b50505050905090565b6000620005e0878787878662000179565b905060008288888888604051620005f790620009b2565b62000606949392919062001212565b8190604051809103906000f590508015801562000627573d6000803e3d6000fd5b5090508173ffffffffffffffffffffffffffffffffffffffff168173ffffffffffffffffffffffffffffffffffffffff16146200069b576040517f08c379a00000000000000000000000000000000000000000000000000000000081526004016200069290620014b2565b60405180910390fd5b60006040518060a001604052808a81526020018981526020018881526020018773ffffffffffffffffffffffffffffffffffffffff16815260200186815250908060018154018082558091505060019003906000526020600020906005020160009091909190915060008201518160000190816200071a9190620016a6565b506020820151816001019081620007329190620016a6565b506040820151816002015560608201518160030160006101000a81548173ffffffffffffffffffffffffffffffffffffffff021916908373ffffffffffffffffffffffffffffffffffffffff1602179055506080820151816004015550507f2e2b3f61b70d2d131b2a807371103cc98d51adcaa5e9a8f9c32658ad8426e74e81604051620007c1919062000d2d565b60405180910390a15050505050505050565b620007dd620009c0565b60008281548110620007f457620007f36200178d565b5b90600052602060002090600502016040518060a00160405290816000820180546200081f906200142d565b80601f01602080910402602001604051908101604052809291908181526020018280546200084d906200142d565b80156200089e5780601f1062000872576101008083540402835291602001916200089e565b820191906000526020600020905b8154815290600101906020018083116200088057829003601f168201915b50505050508152602001600182018054620008b9906200142d565b80601f0160208091040260200160405190810160405280929190818152602001828054620008e7906200142d565b8015620009385780601f106200090c5761010080835404028352916020019162000938565b820191906000526020600020905b8154815290600101906020018083116200091a57829003601f168201915b50505050508152602001600282015481526020016003820160009054906101000a900473ffffffffffffffffffffffffffffffffffffffff1673ffffffffffffffffffffffffffffffffffffffff1673ffffffffffffffffffffffffffffffffffffffff1681526020016004820154815250509050919050565b611d3680620017bd83390190565b6040518060a00160405280606081526020016060815260200160008152602001600073ffffffffffffffffffffffffffffffffffffffff168152602001600081525090565b6000604051905090565b600080fd5b600080fd5b600080fd5b600080fd5b6000601f19601f8301169050919050565b7f4e487b7100000000000000000000000000000000000000000000000000000000600052604160045260246000fd5b62000a6e8262000a23565b810181811067ffffffffffffffff8211171562000a905762000a8f62000a34565b5b80604052505050565b600062000aa562000a05565b905062000ab3828262000a63565b919050565b600067ffffffffffffffff82111562000ad65762000ad562000a34565b5b62000ae18262000a23565b9050602081019050919050565b82818337600083830152505050565b600062000b1462000b0e8462000ab8565b62000a99565b90508281526020810184848401111562000b335762000b3262000a1e565b5b62000b4084828562000aee565b509392505050565b600082601f83011262000b605762000b5f62000a19565b5b813562000b7284826020860162000afd565b91505092915050565b6000819050919050565b62000b908162000b7b565b811462000b9c57600080fd5b50565b60008135905062000bb08162000b85565b92915050565b600073ffffffffffffffffffffffffffffffffffffffff82169050919050565b600062000be38262000bb6565b9050919050565b62000bf58162000bd6565b811462000c0157600080fd5b50565b60008135905062000c158162000bea565b92915050565b6000819050919050565b62000c308162000c1b565b811462000c3c57600080fd5b50565b60008135905062000c508162000c25565b92915050565b600080600080600060a0868803121562000c755762000c7462000a0f565b5b600086013567ffffffffffffffff81111562000c965762000c9562000a14565b5b62000ca48882890162000b48565b955050602086013567ffffffffffffffff81111562000cc85762000cc762000a14565b5b62000cd68882890162000b48565b945050604062000ce98882890162000b9f565b935050606062000cfc8882890162000c04565b925050608062000d0f8882890162000c3f565b9150509295509295909350565b62000d278162000bd6565b82525050565b600060208201905062000d44600083018462000d1c565b92915050565b60006020828403121562000d635762000d6262000a0f565b5b600062000d738482850162000b9f565b91505092915050565b600081519050919050565b600082825260208201905092915050565b60005b8381101562000db857808201518184015260208101905062000d9b565b60008484015250505050565b600062000dd18262000d7c565b62000ddd818562000d87565b935062000def81856020860162000d98565b62000dfa8162000a23565b840191505092915050565b62000e108162000b7b565b82525050565b600060a082019050818103600083015262000e32818862000dc4565b9050818103602083015262000e48818762000dc4565b905062000e59604083018662000e05565b62000e68606083018562000d1c565b62000e77608083018462000e05565b9695505050505050565b600060208201905062000e98600083018462000e05565b92915050565b600081519050919050565b600082825260208201905092915050565b6000819050602082019050919050565b600082825260208201905092915050565b600062000ee88262000d7c565b62000ef4818562000eca565b935062000f0681856020860162000d98565b62000f118162000a23565b840191505092915050565b62000f278162000b7b565b82525050565b62000f388162000bd6565b82525050565b600060a083016000830151848203600086015262000f5d828262000edb565b9150506020830151848203602086015262000f79828262000edb565b915050604083015162000f90604086018262000f1c565b50606083015162000fa5606086018262000f2d565b50608083015162000fba608086018262000f1c565b508091505092915050565b600062000fd3838362000f3e565b905092915050565b6000602082019050919050565b600062000ff58262000e9e565b62001001818562000ea9565b935083602082028501620010158562000eba565b8060005b8581101562001057578484038952815162001035858262000fc5565b9450620010428362000fdb565b925060208a0199505060018101905062001019565b50829750879550505050505092915050565b6000602082019050818103600083015262001085818462000fe8565b905092915050565b60008060008060008060c08789031215620010ad57620010ac62000a0f565b5b600087013567ffffffffffffffff811115620010ce57620010cd62000a14565b5b620010dc89828a0162000b48565b965050602087013567ffffffffffffffff8111156200110057620010ff62000a14565b5b6200110e89828a0162000b48565b95505060406200112189828a0162000b9f565b94505060606200113489828a0162000c04565b93505060806200114789828a0162000b9f565b92505060a06200115a89828a0162000c3f565b9150509295509295509295565b600060a083016000830151848203600086015262001186828262000edb565b91505060208301518482036020860152620011a2828262000edb565b9150506040830151620011b9604086018262000f1c565b506060830151620011ce606086018262000f2d565b506080830151620011e3608086018262000f1c565b508091505092915050565b600060208201905081810360008301526200120a818462001167565b905092915050565b600060808201905081810360008301526200122e818762000dc4565b9050818103602083015262001244818662000dc4565b905062001255604083018562000e05565b62001264606083018462000d1c565b95945050505050565b600081519050919050565b600081905092915050565b600062001290826200126d565b6200129c818562001278565b9350620012ae81856020860162000d98565b80840191505092915050565b6000620012c8828562001283565b9150620012d6828462001283565b91508190509392505050565b60007fff0000000000000000000000000000000000000000000000000000000000000082169050919050565b6000819050919050565b6200132d6200132782620012e2565b6200130e565b82525050565b60008160601b9050919050565b60006200134d8262001333565b9050919050565b6000620013618262001340565b9050919050565b6200137d620013778262000bd6565b62001354565b82525050565b6000819050919050565b620013a26200139c8262000c1b565b62001383565b82525050565b6000620013b6828762001318565b600182019150620013c8828662001368565b601482019150620013da82856200138d565b602082019150620013ec82846200138d565b60208201915081905095945050505050565b7f4e487b7100000000000000000000000000000000000000000000000000000000600052602260045260246000fd5b600060028204905060018216806200144657607f821691505b6020821081036200145c576200145b620013fe565b5b50919050565b7f416464726573732070726564696374696f6e206661696c656400000000000000600082015250565b60006200149a60198362000d87565b9150620014a78262001462565b602082019050919050565b60006020820190508181036000830152620014cd816200148b565b9050919050565b60008190508160005260206000209050919050565b60006020601f8301049050919050565b600082821b905092915050565b600060088302620015387fffffffffffffffffffffffffffffffffffffffffffffffffffffffffffffffff82620014f9565b620015448683620014f9565b95508019841693508086168417925050509392505050565b6000819050919050565b600062001587620015816200157b8462000b7b565b6200155c565b62000b7b565b9050919050565b6000819050919050565b620015a38362001566565b620015bb620015b2826200158e565b84845462001506565b825550505050565b600090565b620015d2620015c3565b620015df81848462001598565b505050565b5b818110156200160757620015fb600082620015c8565b600181019050620015e5565b5050565b601f82111562001656576200162081620014d4565b6200162b84620014e9565b810160208510156200163b578190505b620016536200164a85620014e9565b830182620015e4565b50505b505050565b600082821c905092915050565b60006200167b600019846008026200165b565b1980831691505092915050565b600062001696838362001668565b9150826002028217905092915050565b620016b18262000d7c565b67ffffffffffffffff811115620016cd57620016cc62000a34565b5b620016d982546200142d565b620016e68282856200160b565b600060209050601f8311600181146200171e576000841562001709578287015190505b62001715858262001688565b86555062001785565b601f1984166200172e86620014d4565b60005b82811015620017585784890151825560018201915060208501945060208101905062001731565b8683101562001778578489015162001774601f89168262001668565b8355505b6001600288020188555050505b505050505050565b7f4e487b7100000000000000000000000000000000000000000000000000000000600052603260045260246000fdfe60806040523480156200001157600080fd5b5060405162001d3638038062001d368339818101604052810190620000379190620006b9565b80848481600390816200004b9190620009aa565b5080600490816200005d9190620009aa565b505050600073ffffffffffffffffffffffffffffffffffffffff168173ffffffffffffffffffffffffffffffffffffffff1603620000d55760006040517f1e4fbdf7000000000000000000000000000000000000000000000000000000008152600401620000cc919062000aa2565b60405180910390fd5b620000e6816200010360201b60201c565b50620000f98183620001c960201b60201c565b5050505062000b94565b6000600560009054906101000a900473ffffffffffffffffffffffffffffffffffffffff16905081600560006101000a81548173ffffffffffffffffffffffffffffffffffffffff021916908373ffffffffffffffffffffffffffffffffffffffff1602179055508173ffffffffffffffffffffffffffffffffffffffff168173ffffffffffffffffffffffffffffffffffffffff167f8be0079c531659141344cd1fd0a4f28419497f9722a3daafe3b4186f6b6457e060405160405180910390a35050565b600073ffffffffffffffffffffffffffffffffffffffff168273ffffffffffffffffffffffffffffffffffffffff16036200023e5760006040517fec442f0500000000000000000000000000000000000000000000000000000000815260040162000235919062000aa2565b60405180910390fd5b62000252600083836200025660201b60201c565b5050565b600073ffffffffffffffffffffffffffffffffffffffff168373ffffffffffffffffffffffffffffffffffffffff1603620002ac5780600260008282546200029f919062000aee565b9250508190555062000382565b60008060008573ffffffffffffffffffffffffffffffffffffffff1673ffffffffffffffffffffffffffffffffffffffff168152602001908152602001600020549050818110156200033b578381836040517fe450d38c000000000000000000000000000000000000000000000000000000008152600401620003329392919062000b3a565b60405180910390fd5b8181036000808673ffffffffffffffffffffffffffffffffffffffff1673ffffffffffffffffffffffffffffffffffffffff16815260200190815260200160002081905550505b600073ffffffffffffffffffffffffffffffffffffffff168273ffffffffffffffffffffffffffffffffffffffff1603620003cd57806002600082825403925050819055506200041a565b806000808473ffffffffffffffffffffffffffffffffffffffff1673ffffffffffffffffffffffffffffffffffffffff168152602001908152602001600020600082825401925050819055505b8173ffffffffffffffffffffffffffffffffffffffff168373ffffffffffffffffffffffffffffffffffffffff167fddf252ad1be2c89b69c2b068fc378daa952ba7f163c4a11628f55a4df523b3ef8360405162000479919062000b77565b60405180910390a3505050565b6000604051905090565b600080fd5b600080fd5b600080fd5b600080fd5b6000601f19601f8301169050919050565b7f4e487b7100000000000000000000000000000000000000000000000000000000600052604160045260246000fd5b620004ef82620004a4565b810181811067ffffffffffffffff82111715620005115762000510620004b5565b5b80604052505050565b60006200052662000486565b9050620005348282620004e4565b919050565b600067ffffffffffffffff821115620005575762000556620004b5565b5b6200056282620004a4565b9050602081019050919050565b60005b838110156200058f57808201518184015260208101905062000572565b60008484015250505050565b6000620005b2620005ac8462000539565b6200051a565b905082815260208101848484011115620005d157620005d06200049f565b5b620005de8482856200056f565b509392505050565b600082601f830112620005fe57620005fd6200049a565b5b8151620006108482602086016200059b565b91505092915050565b6000819050919050565b6200062e8162000619565b81146200063a57600080fd5b50565b6000815190506200064e8162000623565b92915050565b600073ffffffffffffffffffffffffffffffffffffffff82169050919050565b6000620006818262000654565b9050919050565b620006938162000674565b81146200069f57600080fd5b50565b600081519050620006b38162000688565b92915050565b60008060008060808587031215620006d657620006d562000490565b5b600085015167ffffffffffffffff811115620006f757620006f662000495565b5b6200070587828801620005e6565b945050602085015167ffffffffffffffff81111562000729576200072862000495565b5b6200073787828801620005e6565b93505060406200074a878288016200063d565b92505060606200075d87828801620006a2565b91505092959194509250565b600081519050919050565b7f4e487b7100000000000000000000000000000000000000000000000000000000600052602260045260246000fd5b60006002820490506001821680620007bc57607f821691505b602082108103620007d257620007d162000774565b5b50919050565b60008190508160005260206000209050919050565b60006020601f8301049050919050565b600082821b905092915050565b6000600883026200083c7fffffffffffffffffffffffffffffffffffffffffffffffffffffffffffffffff82620007fd565b620008488683620007fd565b95508019841693508086168417925050509392505050565b6000819050919050565b60006200088b620008856200087f8462000619565b62000860565b62000619565b9050919050565b6000819050919050565b620008a7836200086a565b620008bf620008b68262000892565b8484546200080a565b825550505050565b600090565b620008d6620008c7565b620008e38184846200089c565b505050565b5b818110156200090b57620008ff600082620008cc565b600181019050620008e9565b5050565b601f8211156200095a576200092481620007d8565b6200092f84620007ed565b810160208510156200093f578190505b620009576200094e85620007ed565b830182620008e8565b50505b505050565b600082821c905092915050565b60006200097f600019846008026200095f565b1980831691505092915050565b60006200099a83836200096c565b9150826002028217905092915050565b620009b58262000769565b67ffffffffffffffff811115620009d157620009d0620004b5565b5b620009dd8254620007a3565b620009ea8282856200090f565b600060209050601f83116001811462000a22576000841562000a0d578287015190505b62000a1985826200098c565b86555062000a89565b601f19841662000a3286620007d8565b60005b8281101562000a5c5784890151825560018201915060208501945060208101905062000a35565b8683101562000a7c578489015162000a78601f8916826200096c565b8355505b6001600288020188555050505b505050505050565b62000a9c8162000674565b82525050565b600060208201905062000ab9600083018462000a91565b92915050565b7f4e487b7100000000000000000000000000000000000000000000000000000000600052601160045260246000fd5b600062000afb8262000619565b915062000b088362000619565b925082820190508082111562000b235762000b2262000abf565b5b92915050565b62000b348162000619565b82525050565b600060608201905062000b51600083018662000a91565b62000b60602083018562000b29565b62000b6f604083018462000b29565b949350505050565b600060208201905062000b8e600083018462000b29565b92915050565b6111928062000ba46000396000f3fe608060405234801561001057600080fd5b50600436106100cf5760003560e01c806370a082311161008c57806395d89b411161006657806395d89b4114610202578063a9059cbb14610220578063dd62ed3e14610250578063f2fde38b14610280576100cf565b806370a08231146101aa578063715018a6146101da5780638da5cb5b146101e4576100cf565b806306fdde03146100d4578063095ea7b3146100f257806318160ddd1461012257806323b872dd14610140578063313ce5671461017057806340c10f191461018e575b600080fd5b6100dc61029c565b6040516100e99190610de6565b60405180910390f35b61010c60048036038101906101079190610ea1565b61032e565b6040516101199190610efc565b60405180910390f35b61012a610351565b6040516101379190610f26565b60405180910390f35b61015a60048036038101906101559190610f41565b61035b565b6040516101679190610efc565b60405180910390f35b61017861038a565b6040516101859190610fb0565b60405180910390f35b6101a860048036038101906101a39190610ea1565b610393565b005b6101c460048036038101906101bf9190610fcb565b6103a1565b6040516101d19190610f26565b60405180910390f35b6101e26103e9565b005b6101ec6103fd565b6040516101f99190611007565b60405180910390f35b61020a610427565b6040516102179190610de6565b60405180910390f35b61023a60048036038101906102359190610ea1565b6104b9565b6040516102479190610efc565b60405180910390f35b61026a60048036038101906102659190611022565b6104dc565b6040516102779190610f26565b60405180910390f35b61029a60048036038101906102959190610fcb565b610563565b005b6060600380546102ab90611091565b80601f01602080910402602001604051908101604052809291908181526020018280546102d790611091565b80156103245780601f106102f957610100808354040283529160200191610324565b820191906000526020600020905b81548152906001019060200180831161030757829003601f168201915b5050505050905090565b6000806103396105e9565b90506103468185856105f1565b600191505092915050565b6000600254905090565b6000806103666105e9565b9050610373858285610603565b61037e858585610697565b60019150509392505050565b60006012905090565b61039d828261078b565b5050565b60008060008373ffffffffffffffffffffffffffffffffffffffff1673ffffffffffffffffffffffffffffffffffffffff168152602001908152602001600020549050919050565b6103f161080d565b6103fb6000610894565b565b6000600560009054906101000a900473ffffffffffffffffffffffffffffffffffffffff16905090565b60606004805461043690611091565b80601f016020809104026020016040519081016040528092919081815260200182805461046290611091565b80156104af5780601f10610484576101008083540402835291602001916104af565b820191906000526020600020905b81548152906001019060200180831161049257829003601f168201915b5050505050905090565b6000806104c46105e9565b90506104d1818585610697565b600191505092915050565b6000600160008473ffffffffffffffffffffffffffffffffffffffff1673ffffffffffffffffffffffffffffffffffffffff16815260200190815260200160002060008373ffffffffffffffffffffffffffffffffffffffff1673ffffffffffffffffffffffffffffffffffffffff16815260200190815260200160002054905092915050565b61056b61080d565b600073ffffffffffffffffffffffffffffffffffffffff168173ffffffffffffffffffffffffffffffffffffffff16036105dd5760006040517f1e4fbdf70000000000000000000000000000000000000000000000000000000081526004016105d49190611007565b60405180910390fd5b6105e681610894565b50565b600033905090565b6105fe838383600161095a565b505050565b600061060f84846104dc565b90507fffffffffffffffffffffffffffffffffffffffffffffffffffffffffffffffff81146106915781811015610681578281836040517ffb8f41b2000000000000000000000000000000000000000000000000000000008152600401610678939291906110c2565b60405180910390fd5b6106908484848403600061095a565b5b50505050565b600073ffffffffffffffffffffffffffffffffffffffff168373ffffffffffffffffffffffffffffffffffffffff16036107095760006040517f96c6fd1e0000000000000000000000000000000000000000000000000000000081526004016107009190611007565b60405180910390fd5b600073ffffffffffffffffffffffffffffffffffffffff168273ffffffffffffffffffffffffffffffffffffffff160361077b5760006040517fec442f050000000000000000000000000000000000000000000000000000000081526004016107729190611007565b60405180910390fd5b610786838383610b31565b505050565b600073ffffffffffffffffffffffffffffffffffffffff168273ffffffffffffffffffffffffffffffffffffffff16036107fd5760006040517fec442f050000000000000000000000000000000000000000000000000000000081526004016107f49190611007565b60405180910390fd5b61080960008383610b31565b5050565b6108156105e9565b73ffffffffffffffffffffffffffffffffffffffff166108336103fd565b73ffffffffffffffffffffffffffffffffffffffff1614610892576108566105e9565b6040517f118cdaa70000000000000000000000000000000000000000000000000000000081526004016108899190611007565b60405180910390fd5b565b6000600560009054906101000a900473ffffffffffffffffffffffffffffffffffffffff16905081600560006101000a81548173ffffffffffffffffffffffffffffffffffffffff021916908373ffffffffffffffffffffffffffffffffffffffff1602179055508173ffffffffffffffffffffffffffffffffffffffff168173ffffffffffffffffffffffffffffffffffffffff167f8be0079c531659141344cd1fd0a4f28419497f9722a3daafe3b4186f6b6457e060405160405180910390a35050565b600073ffffffffffffffffffffffffffffffffffffffff168473ffffffffffffffffffffffffffffffffffffffff16036109cc5760006040517fe602df050000000000000000000000000000000000000000000000000000000081526004016109c39190611007565b60405180910390fd5b600073ffffffffffffffffffffffffffffffffffffffff168373ffffffffffffffffffffffffffffffffffffffff1603610a3e5760006040517f94280d62000000000000000000000000000000000000000000000000000000008152600401610a359190611007565b60405180910390fd5b81600160008673ffffffffffffffffffffffffffffffffffffffff1673ffffffffffffffffffffffffffffffffffffffff16815260200190815260200160002060008573ffffffffffffffffffffffffffffffffffffffff1673ffffffffffffffffffffffffffffffffffffffff168152602001908152602001600020819055508015610b2b578273ffffffffffffffffffffffffffffffffffffffff168473ffffffffffffffffffffffffffffffffffffffff167f8c5be1e5ebec7d5bd14f71427d1e84f3dd0314c0f7b2291e5b200ac8c7c3b92584604051610b229190610f26565b60405180910390a35b50505050565b600073ffffffffffffffffffffffffffffffffffffffff168373ffffffffffffffffffffffffffffffffffffffff1603610b83578060026000828254610b779190611128565b92505081905550610c56565b60008060008573ffffffffffffffffffffffffffffffffffffffff1673ffffffffffffffffffffffffffffffffffffffff16815260200190815260200160002054905081811015610c0f578381836040517fe450d38c000000000000000000000000000000000000000000000000000000008152600401610c06939291906110c2565b60405180910390fd5b8181036000808673ffffffffffffffffffffffffffffffffffffffff1673ffffffffffffffffffffffffffffffffffffffff16815260200190815260200160002081905550505b600073ffffffffffffffffffffffffffffffffffffffff168273ffffffffffffffffffffffffffffffffffffffff1603610c9f5780600260008282540392505081905550610cec565b806000808473ffffffffffffffffffffffffffffffffffffffff1673ffffffffffffffffffffffffffffffffffffffff168152602001908152602001600020600082825401925050819055505b8173ffffffffffffffffffffffffffffffffffffffff168373ffffffffffffffffffffffffffffffffffffffff167fddf252ad1be2c89b69c2b068fc378daa952ba7f163c4a11628f55a4df523b3ef83604051610d499190610f26565b60405180910390a3505050565b600081519050919050565b600082825260208201905092915050565b60005b83811015610d90578082015181840152602081019050610d75565b60008484015250505050565b6000601f19601f8301169050919050565b6000610db882610d56565b610dc28185610d61565b9350610dd2818560208601610d72565b610ddb81610d9c565b840191505092915050565b60006020820190508181036000830152610e008184610dad565b905092915050565b600080fd5b600073ffffffffffffffffffffffffffffffffffffffff82169050919050565b6000610e3882610e0d565b9050919050565b610e4881610e2d565b8114610e5357600080fd5b50565b600081359050610e6581610e3f565b92915050565b6000819050919050565b610e7e81610e6b565b8114610e8957600080fd5b50565b600081359050610e9b81610e75565b92915050565b60008060408385031215610eb857610eb7610e08565b5b6000610ec685828601610e56565b9250506020610ed785828601610e8c565b9150509250929050565b60008115159050919050565b610ef681610ee1565b82525050565b6000602082019050610f116000830184610eed565b92915050565b610f2081610e6b565b82525050565b6000602082019050610f3b6000830184610f17565b92915050565b600080600060608486031215610f5a57610f59610e08565b5b6000610f6886828701610e56565b9350506020610f7986828701610e56565b9250506040610f8a86828701610e8c565b9150509250925092565b600060ff82169050919050565b610faa81610f94565b82525050565b6000602082019050610fc56000830184610fa1565b92915050565b600060208284031215610fe157610fe0610e08565b5b6000610fef84828501610e56565b91505092915050565b61100181610e2d565b82525050565b600060208201905061101c6000830184610ff8565b92915050565b6000806040838503121561103957611038610e08565b5b600061104785828601610e56565b925050602061105885828601610e56565b9150509250929050565b7f4e487b7100000000000000000000000000000000000000000000000000000000600052602260045260246000fd5b600060028204905060018216806110a957607f821691505b6020821081036110bc576110bb611062565b5b50919050565b60006060820190506110d76000830186610ff8565b6110e46020830185610f17565b6110f16040830184610f17565b949350505050565b7f4e487b7100000000000000000000000000000000000000000000000000000000600052601160045260246000fd5b600061113382610e6b565b915061113e83610e6b565b9250828201905080821115611156576111556110f9565b5b9291505056fea2646970667358221220a9f5f245c6effb103fbeacb05578bfd650bbe85a8febcf6d9090e2d8e63f8ed464736f6c63430008140033a26469706673582212202168e757cee25915699d211bc8129adf1bba913aac21143dadbed779444673d664736f6c63430008140033",
  "linkReferences": {},
  "deployedLinkReferences": {}
}