{
  "_format": "hh-sol-artifact-1",
  "contractName": "RuneToken",
  "sourceName": "contracts/RuneNFTV2.sol",
  "abi": [
    {
      "inputs": [
        {
          "internalType": "address",
          "name": "initialOwner",
          "type": "address"
        }
      ],
      "stateMutability": "nonpayable",
      "type": "constructor"
    },
    {
      "inputs": [
        {
          "internalType": "address",
          "name": "sender",
          "type": "address"
        },
        {
          "internalType": "uint256",
          "name": "balance",
          "type": "uint256"
        },
        {
          "internalType": "uint256",
          "name": "needed",
          "type": "uint256"
        },
        {
          "internalType": "uint256",
          "name": "tokenId",
          "type": "uint256"
        }
      ],
      "name": "ERC1155InsufficientBalance",
      "type": "error"
    },
    {
      "inputs": [
        {
          "internalType": "address",
          "name": "approver",
          "type": "address"
        }
      ],
      "name": "ERC1155InvalidApprover",
      "type": "error"
    },
    {
      "inputs": [
        {
          "internalType": "uint256",
          "name": "idsLength",
          "type": "uint256"
        },
        {
          "internalType": "uint256",
          "name": "valuesLength",
          "type": "uint256"
        }
      ],
      "name": "ERC1155InvalidArrayLength",
      "type": "error"
    },
    {
      "inputs": [
        {
          "internalType": "address",
          "name": "operator",
          "type": "address"
        }
      ],
      "name": "ERC1155InvalidOperator",
      "type": "error"
    },
    {
      "inputs": [
        {
          "internalType": "address",
          "name": "receiver",
          "type": "address"
        }
      ],
      "name": "ERC1155InvalidReceiver",
      "type": "error"
    },
    {
      "inputs": [
        {
          "internalType": "address",
          "name": "sender",
          "type": "address"
        }
      ],
      "name": "ERC1155InvalidSender",
      "type": "error"
    },
    {
      "inputs": [
        {
          "internalType": "address",
          "name": "operator",
          "type": "address"
        },
        {
          "internalType": "address",
          "name": "owner",
          "type": "address"
        }
      ],
      "name": "ERC1155MissingApprovalForAll",
      "type": "error"
    },
    {
      "inputs": [
        {
          "internalType": "address",
          "name": "owner",
          "type": "address"
        }
      ],
      "name": "OwnableInvalidOwner",
      "type": "error"
    },
    {
      "inputs": [
        {
          "internalType": "address",
          "name": "account",
          "type": "address"
        }
      ],
      "name": "OwnableUnauthorizedAccount",
      "type": "error"
    },
    {
      "anonymous": false,
      "inputs": [
        {
          "indexed": true,
          "internalType": "address",
          "name": "account",
          "type": "address"
        },
        {
          "indexed": true,
          "internalType": "address",
          "name": "operator",
          "type": "address"
        },
        {
          "indexed": false,
          "internalType": "bool",
          "name": "approved",
          "type": "bool"
        }
      ],
      "name": "ApprovalForAll",
      "type": "event"
    },
    {
      "anonymous": false,
      "inputs": [
        {
          "indexed": true,
          "internalType": "address",
          "name": "previousOwner",
          "type": "address"
        },
        {
          "indexed": true,
          "internalType": "address",
          "name": "newOwner",
          "type": "address"
        }
      ],
      "name": "OwnershipTransferred",
      "type": "event"
    },
    {
      "anonymous": false,
      "inputs": [
        {
          "indexed": true,
          "internalType": "address",
          "name": "account",
          "type": "address"
        },
        {
          "indexed": true,
          "internalType": "uint256",
          "name": "tokenId",
          "type": "uint256"
        },
        {
          "indexed": false,
          "internalType": "uint256",
          "name": "amount",
          "type": "uint256"
        }
      ],
      "name": "TokensFrozen",
      "type": "event"
    },
    {
      "anonymous": false,
      "inputs": [
        {
          "indexed": true,
          "internalType": "address",
          "name": "account",
          "type": "address"
        },
        {
          "indexed": true,
          "internalType": "uint256",
          "name": "tokenId",
          "type": "uint256"
        },
        {
          "indexed": false,
          "internalType": "uint256",
          "name": "amount",
          "type": "uint256"
        }
      ],
      "name": "TokensUnfrozen",
      "type": "event"
    },
    {
      "anonymous": false,
      "inputs": [
        {
          "indexed": true,
          "internalType": "address",
          "name": "operator",
          "type": "address"
        },
        {
          "indexed": true,
          "internalType": "address",
          "name": "from",
          "type": "address"
        },
        {
          "indexed": true,
          "internalType": "address",
          "name": "to",
          "type": "address"
        },
        {
          "indexed": false,
          "internalType": "uint256[]",
          "name": "ids",
          "type": "uint256[]"
        },
        {
          "indexed": false,
          "internalType": "uint256[]",
          "name": "values",
          "type": "uint256[]"
        }
      ],
      "name": "TransferBatch",
      "type": "event"
    },
    {
      "anonymous": false,
      "inputs": [
        {
          "indexed": true,
          "internalType": "address",
          "name": "operator",
          "type": "address"
        },
        {
          "indexed": true,
          "internalType": "address",
          "name": "from",
          "type": "address"
        },
        {
          "indexed": true,
          "internalType": "address",
          "name": "to",
          "type": "address"
        },
        {
          "indexed": false,
          "internalType": "uint256",
          "name": "id",
          "type": "uint256"
        },
        {
          "indexed": false,
          "internalType": "uint256",
          "name": "value",
          "type": "uint256"
        }
      ],
      "name": "TransferSingle",
      "type": "event"
    },
    {
      "anonymous": false,
      "inputs": [
        {
          "indexed": false,
          "internalType": "string",
          "name": "value",
          "type": "string"
        },
        {
          "indexed": true,
          "internalType": "uint256",
          "name": "id",
          "type": "uint256"
        }
      ],
      "name": "URI",
      "type": "event"
    },
    {
      "inputs": [
        {
          "internalType": "address",
          "name": "account",
          "type": "address"
        },
        {
          "internalType": "uint256",
          "name": "tokenId",
          "type": "uint256"
        }
      ],
      "name": "balanceOf",
      "outputs": [
        {
          "internalType": "uint256",
          "name": "",
          "type": "uint256"
        }
      ],
      "stateMutability": "view",
      "type": "function"
    },
    {
      "inputs": [
        {
          "internalType": "address[]",
          "name": "accounts",
          "type": "address[]"
        },
        {
          "internalType": "uint256[]",
          "name": "ids",
          "type": "uint256[]"
        }
      ],
      "name": "balanceOfBatch",
      "outputs": [
        {
          "internalType": "uint256[]",
          "name": "",
          "type": "uint256[]"
        }
      ],
      "stateMutability": "view",
      "type": "function"
    },
    {
      "inputs": [
        {
          "internalType": "uint256",
          "name": "tokenId",
          "type": "uint256"
        },
        {
          "internalType": "uint256",
          "name": "amount",
          "type": "uint256"
        },
        {
          "internalType": "address",
          "name": "owner",
          "type": "address"
        }
      ],
      "name": "freezeTokens",
      "outputs": [],
      "stateMutability": "nonpayable",
      "type": "function"
    },
    {
      "inputs": [
        {
          "internalType": "uint256",
          "name": "tokenId",
          "type": "uint256"
        },
        {
          "internalType": "address",
          "name": "holder",
          "type": "address"
        }
      ],
      "name": "getTokenInfo",
      "outputs": [
        {
          "components": [
            {
              "internalType": "string",
              "name": "uri",
              "type": "string"
            },
            {
              "internalType": "string",
              "name": "name",
              "type": "string"
            },
            {
              "internalType": "string",
              "name": "symbol",
              "type": "string"
            },
            {
              "internalType": "uint256",
              "name": "maxSupply",
              "type": "uint256"
            },
            {
              "internalType": "uint256",
              "name": "currentSupply",
              "type": "uint256"
            },
            {
              "internalType": "uint256",
              "name": "defaultMintAmount",
              "type": "uint256"
            },
            {
              "components": [
                {
                  "internalType": "address",
                  "name": "account",
                  "type": "address"
                },
                {
                  "internalType": "uint256",
                  "name": "balance",
                  "type": "uint256"
                }
              ],
              "internalType": "struct RuneToken.Balance",
              "name": "balance",
              "type": "tuple"
            }
          ],
          "internalType": "struct RuneToken.TokenInfo",
          "name": "",
          "type": "tuple"
        }
      ],
      "stateMutability": "view",
      "type": "function"
    },
    {
      "inputs": [
        {
          "internalType": "address",
          "name": "user",
          "type": "address"
        }
      ],
      "name": "getUserTokens",
      "outputs": [
        {
          "internalType": "uint256[]",
          "name": "",
          "type": "uint256[]"
        }
      ],
      "stateMutability": "view",
      "type": "function"
    },
    {
      "inputs": [
        {
          "internalType": "address",
          "name": "account",
          "type": "address"
        },
        {
          "internalType": "address",
          "name": "operator",
          "type": "address"
        }
      ],
      "name": "isApprovedForAll",
      "outputs": [
        {
          "internalType": "bool",
          "name": "",
          "type": "bool"
        }
      ],
      "stateMutability": "view",
      "type": "function"
    },
    {
      "inputs": [
        {
          "internalType": "string",
          "name": "tokenURI",
          "type": "string"
        },
        {
          "internalType": "string",
          "name": "runeName",
          "type": "string"
        },
        {
          "internalType": "string",
          "name": "symbol",
          "type": "string"
        },
        {
          "internalType": "uint256",
          "name": "maxSupply",
          "type": "uint256"
        },
        {
          "internalType": "uint256",
          "name": "initialSupply",
          "type": "uint256"
        },
        {
          "internalType": "uint256",
          "name": "defaultMintAmount",
          "type": "uint256"
        },
        {
          "internalType": "address",
          "name": "receiver",
          "type": "address"
        }
      ],
      "name": "mintFungible",
      "outputs": [],
      "stateMutability": "nonpayable",
      "type": "function"
    },
    {
      "inputs": [
        {
          "internalType": "string",
          "name": "runeName",
          "type": "string"
        },
        {
          "internalType": "address",
          "name": "receiver",
          "type": "address"
        }
      ],
      "name": "mintMore",
      "outputs": [],
      "stateMutability": "nonpayable",
      "type": "function"
    },
    {
      "inputs": [
        {
          "internalType": "string",
          "name": "tokenURI",
          "type": "string"
        },
        {
          "internalType": "string",
          "name": "runeName",
          "type": "string"
        },
        {
          "internalType": "string",
          "name": "symbol",
          "type": "string"
        },
        {
          "internalType": "address",
          "name": "receiver",
          "type": "address"
        }
      ],
      "name": "mintNonFungible",
      "outputs": [],
      "stateMutability": "nonpayable",
      "type": "function"
    },
    {
      "inputs": [],
      "name": "owner",
      "outputs": [
        {
          "internalType": "address",
          "name": "",
          "type": "address"
        }
      ],
      "stateMutability": "view",
      "type": "function"
    },
    {
      "inputs": [],
      "name": "renounceOwnership",
      "outputs": [],
      "stateMutability": "nonpayable",
      "type": "function"
    },
    {
      "inputs": [
        {
          "internalType": "address",
          "name": "from",
          "type": "address"
        },
        {
          "internalType": "address",
          "name": "to",
          "type": "address"
        },
        {
          "internalType": "uint256[]",
          "name": "ids",
          "type": "uint256[]"
        },
        {
          "internalType": "uint256[]",
          "name": "amounts",
          "type": "uint256[]"
        },
        {
          "internalType": "bytes",
          "name": "data",
          "type": "bytes"
        }
      ],
      "name": "safeBatchTransferFrom",
      "outputs": [],
      "stateMutability": "nonpayable",
      "type": "function"
    },
    {
      "inputs": [
        {
          "internalType": "address",
          "name": "from",
          "type": "address"
        },
        {
          "internalType": "address",
          "name": "to",
          "type": "address"
        },
        {
          "internalType": "uint256",
          "name": "id",
          "type": "uint256"
        },
        {
          "internalType": "uint256",
          "name": "amount",
          "type": "uint256"
        },
        {
          "internalType": "bytes",
          "name": "data",
          "type": "bytes"
        }
      ],
      "name": "safeTransferFrom",
      "outputs": [],
      "stateMutability": "nonpayable",
      "type": "function"
    },
    {
      "inputs": [
        {
          "internalType": "address",
          "name": "operator",
          "type": "address"
        },
        {
          "internalType": "bool",
          "name": "approved",
          "type": "bool"
        }
      ],
      "name": "setApprovalForAll",
      "outputs": [],
      "stateMutability": "nonpayable",
      "type": "function"
    },
    {
      "inputs": [
        {
          "internalType": "bytes4",
          "name": "interfaceId",
          "type": "bytes4"
        }
      ],
      "name": "supportsInterface",
      "outputs": [
        {
          "internalType": "bool",
          "name": "",
          "type": "bool"
        }
      ],
      "stateMutability": "view",
      "type": "function"
    },
    {
      "inputs": [
        {
          "internalType": "address",
          "name": "newOwner",
          "type": "address"
        }
      ],
      "name": "transferOwnership",
      "outputs": [],
      "stateMutability": "nonpayable",
      "type": "function"
    },
    {
      "inputs": [
        {
          "internalType": "uint256",
          "name": "tokenId",
          "type": "uint256"
        },
        {
          "internalType": "uint256",
          "name": "amount",
          "type": "uint256"
        },
        {
          "internalType": "address",
          "name": "owner",
          "type": "address"
        }
      ],
      "name": "unfreezeTokens",
      "outputs": [],
      "stateMutability": "nonpayable",
      "type": "function"
    },
    {
      "inputs": [
        {
          "internalType": "uint256",
          "name": "tokenId",
          "type": "uint256"
        }
      ],
      "name": "uri",
      "outputs": [
        {
          "internalType": "string",
          "name": "",
          "type": "string"
        }
      ],
      "stateMutability": "view",
      "type": "function"
    }
  ],
  "bytecode": "0x60806040523480156200001157600080fd5b50604051620045fa380380620045fa83398181016040528101906200003791906200022d565b80604051806020016040528060008152506200005981620000e860201b60201c565b50600073ffffffffffffffffffffffffffffffffffffffff168173ffffffffffffffffffffffffffffffffffffffff1603620000cf5760006040517f1e4fbdf7000000000000000000000000000000000000000000000000000000008152600401620000c6919062000270565b60405180910390fd5b620000e081620000fd60201b60201c565b5050620005ee565b8060029081620000f9919062000507565b5050565b6000600360009054906101000a900473ffffffffffffffffffffffffffffffffffffffff16905081600360006101000a81548173ffffffffffffffffffffffffffffffffffffffff021916908373ffffffffffffffffffffffffffffffffffffffff1602179055508173ffffffffffffffffffffffffffffffffffffffff168173ffffffffffffffffffffffffffffffffffffffff167f8be0079c531659141344cd1fd0a4f28419497f9722a3daafe3b4186f6b6457e060405160405180910390a35050565b600080fd5b600073ffffffffffffffffffffffffffffffffffffffff82169050919050565b6000620001f582620001c8565b9050919050565b6200020781620001e8565b81146200021357600080fd5b50565b6000815190506200022781620001fc565b92915050565b600060208284031215620002465762000245620001c3565b5b6000620002568482850162000216565b91505092915050565b6200026a81620001e8565b82525050565b60006020820190506200028760008301846200025f565b92915050565b600081519050919050565b7f4e487b7100000000000000000000000000000000000000000000000000000000600052604160045260246000fd5b7f4e487b7100000000000000000000000000000000000000000000000000000000600052602260045260246000fd5b600060028204905060018216806200030f57607f821691505b602082108103620003255762000324620002c7565b5b50919050565b60008190508160005260206000209050919050565b60006020601f8301049050919050565b600082821b905092915050565b6000600883026200038f7fffffffffffffffffffffffffffffffffffffffffffffffffffffffffffffffff8262000350565b6200039b868362000350565b95508019841693508086168417925050509392505050565b6000819050919050565b6000819050919050565b6000620003e8620003e2620003dc84620003b3565b620003bd565b620003b3565b9050919050565b6000819050919050565b6200040483620003c7565b6200041c6200041382620003ef565b8484546200035d565b825550505050565b600090565b6200043362000424565b62000440818484620003f9565b505050565b5b8181101562000468576200045c60008262000429565b60018101905062000446565b5050565b601f821115620004b75762000481816200032b565b6200048c8462000340565b810160208510156200049c578190505b620004b4620004ab8562000340565b83018262000445565b50505b505050565b600082821c905092915050565b6000620004dc60001984600802620004bc565b1980831691505092915050565b6000620004f78383620004c9565b9150826002028217905092915050565b62000512826200028d565b67ffffffffffffffff8111156200052e576200052d62000298565b5b6200053a8254620002f6565b620005478282856200046c565b600060209050601f8311600181146200057f57600084156200056a578287015190505b620005768582620004e9565b865550620005e6565b601f1984166200058f866200032b565b60005b82811015620005b95784890151825560018201915060208501945060208101905062000592565b86831015620005d95784890151620005d5601f891682620004c9565b8355505b6001600288020188555050505b505050505050565b613ffc80620005fe6000396000f3fe608060405234801561001057600080fd5b50600436106101155760003560e01c806384dacc05116100a2578063ce541b1a11610071578063ce541b1a146102da578063dec44e131461030a578063e985e9c514610326578063f242432a14610356578063f2fde38b1461037257610115565b806384dacc05146102685780638da5cb5b14610284578063978cf2df146102a2578063a22cb465146102be57610115565b80634e1273f4116100e95780634e1273f4146101c6578063519dc8d2146101f65780635ea141a914610226578063715018a614610242578063772c27201461024c57610115565b8062fdd58e1461011a57806301ffc9a71461014a5780630e89341c1461017a5780632eb2c2d6146101aa575b600080fd5b610134600480360381019061012f9190612873565b61038e565b60405161014191906128c2565b60405180910390f35b610164600480360381019061015f9190612935565b610408565b604051610171919061297d565b60405180910390f35b610194600480360381019061018f9190612998565b6104ea565b6040516101a19190612a55565b60405180910390f35b6101c460048036038101906101bf9190612c74565b610592565b005b6101e060048036038101906101db9190612e06565b6106bb565b6040516101ed9190612f3c565b60405180910390f35b610210600480360381019061020b9190612f5e565b6107ca565b60405161021d9190612f3c565b60405180910390f35b610240600480360381019061023b9190612f8b565b610861565b005b61024a6109b3565b005b61026660048036038101906102619190612f8b565b6109c7565b005b610282600480360381019061027d919061307f565b610b60565b005b61028c610d98565b6040516102999190613184565b60405180910390f35b6102bc60048036038101906102b7919061319f565b610dc2565b005b6102d860048036038101906102d39190613227565b610f6a565b005b6102f460048036038101906102ef9190613267565b610f80565b60405161030191906133da565b60405180910390f35b610324600480360381019061031f91906133fc565b6112ba565b005b610340600480360381019061033b91906134b7565b6114b0565b60405161034d919061297d565b60405180910390f35b610370600480360381019061036b91906134f7565b611544565b005b61038c60048036038101906103879190612f5e565b6115ff565b005b60008061039b8484611685565b905060006006600085815260200190815260200160002060008673ffffffffffffffffffffffffffffffffffffffff1673ffffffffffffffffffffffffffffffffffffffff16815260200190815260200160002054905080826103fe91906135bd565b9250505092915050565b60007fd9b67a26000000000000000000000000000000000000000000000000000000007bffffffffffffffffffffffffffffffffffffffffffffffffffffffff1916827bffffffffffffffffffffffffffffffffffffffffffffffffffffffff191614806104d357507f0e89341c000000000000000000000000000000000000000000000000000000007bffffffffffffffffffffffffffffffffffffffffffffffffffffffff1916827bffffffffffffffffffffffffffffffffffffffffffffffffffffffff1916145b806104e357506104e2826116df565b5b9050919050565b606060046000838152602001908152602001600020600001805461050d90613620565b80601f016020809104026020016040519081016040528092919081815260200182805461053990613620565b80156105865780601f1061055b57610100808354040283529160200191610586565b820191906000526020600020905b81548152906001019060200180831161056957829003601f168201915b50505050509050919050565b60005b83518110156106a657600660008583815181106105b5576105b4613651565b5b6020026020010151815260200190815260200160002060008773ffffffffffffffffffffffffffffffffffffffff1673ffffffffffffffffffffffffffffffffffffffff1681526020019081526020016000205483828151811061061c5761061b613651565b5b602002602001015161062e9190613680565b6106528786848151811061064557610644613651565b5b602002602001015161038e565b1015610693576040517f08c379a000000000000000000000000000000000000000000000000000000000815260040161068a90613726565b60405180910390fd5b808061069e90613746565b915050610595565b506106b48585858585611749565b5050505050565b6060815183511461070757815183516040517f5b0599910000000000000000000000000000000000000000000000000000000081526004016106fe92919061378e565b60405180910390fd5b6000835167ffffffffffffffff81111561072457610723612a7c565b5b6040519080825280602002602001820160405280156107525781602001602082028036833780820191505090505b50905060005b84518110156107bf5761078f61077782876117f190919063ffffffff16565b61078a838761180590919063ffffffff16565b61038e565b8282815181106107a2576107a1613651565b5b602002602001018181525050806107b890613746565b9050610758565b508091505092915050565b6060600560008373ffffffffffffffffffffffffffffffffffffffff1673ffffffffffffffffffffffffffffffffffffffff16815260200190815260200160002080548060200260200160405190810160405280929190818152602001828054801561085557602002820191906000526020600020905b815481526020019060010190808311610841575b50505050509050919050565b610869611819565b600082116108ac576040517f08c379a00000000000000000000000000000000000000000000000000000000081526004016108a390613803565b60405180910390fd5b816108b7828561038e565b10156108f8576040517f08c379a00000000000000000000000000000000000000000000000000000000081526004016108ef9061386f565b60405180910390fd5b816006600085815260200190815260200160002060008373ffffffffffffffffffffffffffffffffffffffff1673ffffffffffffffffffffffffffffffffffffffff16815260200190815260200160002060008282546109589190613680565b92505081905550828173ffffffffffffffffffffffffffffffffffffffff167fb54471ef4300c80735460d3ac0c87ad0ea1a75449c6250c1291a4018779390e6846040516109a691906128c2565b60405180910390a3505050565b6109bb611819565b6109c560006118a0565b565b6109cf611819565b60008211610a12576040517f08c379a0000000000000000000000000000000000000000000000000000000008152600401610a0990613803565b60405180910390fd5b816006600085815260200190815260200160002060008373ffffffffffffffffffffffffffffffffffffffff1673ffffffffffffffffffffffffffffffffffffffff168152602001908152602001600020541015610aa5576040517f08c379a0000000000000000000000000000000000000000000000000000000008152600401610a9c90613901565b60405180910390fd5b816006600085815260200190815260200160002060008373ffffffffffffffffffffffffffffffffffffffff1673ffffffffffffffffffffffffffffffffffffffff1681526020019081526020016000206000828254610b0591906135bd565b92505081905550828173ffffffffffffffffffffffffffffffffffffffff167f52281bdae4847001e3dc97f408c43fa2f8b5c4438279806255fc5ee00fc5195b84604051610b5391906128c2565b60405180910390a3505050565b610b68611819565b83831115610bab576040517f08c379a0000000000000000000000000000000000000000000000000000000008152600401610ba290613993565b60405180910390fd5b600086604051602001610bbe91906139ef565b60405160208183030381529060405280519060200120905060008160001c90506000600460008381526020019081526020016000206003015414610c37576040517f08c379a0000000000000000000000000000000000000000000000000000000008152600401610c2e90613a52565b60405180910390fd5b6040518060e001604052808a81526020018981526020018881526020018781526020018681526020018581526020016040518060400160405280600073ffffffffffffffffffffffffffffffffffffffff1681526020016000815250815250600460008381526020019081526020016000206000820151816000019081610cbe9190613c1e565b506020820151816001019081610cd49190613c1e565b506040820151816002019081610cea9190613c1e565b50606082015181600301556080820151816004015560a0820151816005015560c08201518160060160008201518160000160006101000a81548173ffffffffffffffffffffffffffffffffffffffff021916908373ffffffffffffffffffffffffffffffffffffffff160217905550602082015181600101555050905050610d8383828760405180602001604052806000815250611966565b610d8d83826119ff565b505050505050505050565b6000600360009054906101000a900473ffffffffffffffffffffffffffffffffffffffff16905090565b610dca611819565b600082604051602001610ddd91906139ef565b60405160208183030381529060405280519060200120905060008160001c90506000600460008381526020019081526020016000206003015411610e56576040517f08c379a0000000000000000000000000000000000000000000000000000000008152600401610e4d90613d3c565b60405180910390fd5b600460008281526020019081526020016000206003015460046000838152602001908152602001600020600501546004600084815260200190815260200160002060040154610ea59190613680565b1115610ee6576040517f08c379a0000000000000000000000000000000000000000000000000000000008152600401610edd90613da8565b60405180910390fd5b610f178382600460008581526020019081526020016000206005015460405180602001604052806000815250611966565b6004600082815260200190815260200160002060050154600460008381526020019081526020016000206004016000828254610f539190613680565b92505081905550610f6483826119ff565b50505050565b610f7c610f75611b3d565b8383611b45565b5050565b610f88612758565b6000600460008581526020019081526020016000206040518060e0016040529081600082018054610fb890613620565b80601f0160208091040260200160405190810160405280929190818152602001828054610fe490613620565b80156110315780601f1061100657610100808354040283529160200191611031565b820191906000526020600020905b81548152906001019060200180831161101457829003601f168201915b5050505050815260200160018201805461104a90613620565b80601f016020809104026020016040519081016040528092919081815260200182805461107690613620565b80156110c35780601f10611098576101008083540402835291602001916110c3565b820191906000526020600020905b8154815290600101906020018083116110a657829003601f168201915b505050505081526020016002820180546110dc90613620565b80601f016020809104026020016040519081016040528092919081815260200182805461110890613620565b80156111555780601f1061112a57610100808354040283529160200191611155565b820191906000526020600020905b81548152906001019060200180831161113857829003601f168201915b50505050508152602001600382015481526020016004820154815260200160058201548152602001600682016040518060400160405290816000820160009054906101000a900473ffffffffffffffffffffffffffffffffffffffff1673ffffffffffffffffffffffffffffffffffffffff1673ffffffffffffffffffffffffffffffffffffffff1681526020016001820154815250508152505090506000816060015111611239576040517f08c379a000000000000000000000000000000000000000000000000000000000815260040161123090613d3c565b60405180910390fd5b600073ffffffffffffffffffffffffffffffffffffffff168373ffffffffffffffffffffffffffffffffffffffff16146112b0576000611279848661038e565b905060405180604001604052808573ffffffffffffffffffffffffffffffffffffffff168152602001828152508260c00181905250505b8091505092915050565b6112c2611819565b6000836040516020016112d591906139ef565b60405160208183030381529060405280519060200120905060008160001c9050600060046000838152602001908152602001600020600301541461134e576040517f08c379a000000000000000000000000000000000000000000000000000000000815260040161134590613a52565b60405180910390fd5b6040518060e001604052808781526020018681526020018581526020016001815260200160018152602001600181526020016040518060400160405280600073ffffffffffffffffffffffffffffffffffffffff16815260200160008152508152506004600083815260200190815260200160002060008201518160000190816113d89190613c1e565b5060208201518160010190816113ee9190613c1e565b5060408201518160020190816114049190613c1e565b50606082015181600301556080820151816004015560a0820151816005015560c08201518160060160008201518160000160006101000a81548173ffffffffffffffffffffffffffffffffffffffff021916908373ffffffffffffffffffffffffffffffffffffffff16021790555060208201518160010155505090505061149e8382600160405180602001604052806000815250611966565b6114a883826119ff565b505050505050565b6000600160008473ffffffffffffffffffffffffffffffffffffffff1673ffffffffffffffffffffffffffffffffffffffff16815260200190815260200160002060008373ffffffffffffffffffffffffffffffffffffffff1673ffffffffffffffffffffffffffffffffffffffff16815260200190815260200160002060009054906101000a900460ff16905092915050565b6006600084815260200190815260200160002060008673ffffffffffffffffffffffffffffffffffffffff1673ffffffffffffffffffffffffffffffffffffffff16815260200190815260200160002054826115a09190613680565b6115aa868561038e565b10156115eb576040517f08c379a00000000000000000000000000000000000000000000000000000000081526004016115e290613726565b60405180910390fd5b6115f88585858585611cb5565b5050505050565b611607611819565b600073ffffffffffffffffffffffffffffffffffffffff168173ffffffffffffffffffffffffffffffffffffffff16036116795760006040517f1e4fbdf70000000000000000000000000000000000000000000000000000000081526004016116709190613184565b60405180910390fd5b611682816118a0565b50565b600080600083815260200190815260200160002060008473ffffffffffffffffffffffffffffffffffffffff1673ffffffffffffffffffffffffffffffffffffffff16815260200190815260200160002054905092915050565b60007f01ffc9a7000000000000000000000000000000000000000000000000000000007bffffffffffffffffffffffffffffffffffffffffffffffffffffffff1916827bffffffffffffffffffffffffffffffffffffffffffffffffffffffff1916149050919050565b6000611753611b3d565b90508073ffffffffffffffffffffffffffffffffffffffff168673ffffffffffffffffffffffffffffffffffffffff1614158015611798575061179686826114b0565b155b156117dc5780866040517fe237d9220000000000000000000000000000000000000000000000000000000081526004016117d3929190613dc8565b60405180910390fd5b6117e98686868686611d5d565b505050505050565b600060208202602084010151905092915050565b600060208202602084010151905092915050565b611821611b3d565b73ffffffffffffffffffffffffffffffffffffffff1661183f610d98565b73ffffffffffffffffffffffffffffffffffffffff161461189e57611862611b3d565b6040517f118cdaa70000000000000000000000000000000000000000000000000000000081526004016118959190613184565b60405180910390fd5b565b6000600360009054906101000a900473ffffffffffffffffffffffffffffffffffffffff16905081600360006101000a81548173ffffffffffffffffffffffffffffffffffffffff021916908373ffffffffffffffffffffffffffffffffffffffff1602179055508173ffffffffffffffffffffffffffffffffffffffff168173ffffffffffffffffffffffffffffffffffffffff167f8be0079c531659141344cd1fd0a4f28419497f9722a3daafe3b4186f6b6457e060405160405180910390a35050565b600073ffffffffffffffffffffffffffffffffffffffff168473ffffffffffffffffffffffffffffffffffffffff16036119d85760006040517f57f447ce0000000000000000000000000000000000000000000000000000000081526004016119cf9190613184565b60405180910390fd5b6000806119e58585611e55565b915091506119f7600087848487611e85565b505050505050565b6000805b600560008573ffffffffffffffffffffffffffffffffffffffff1673ffffffffffffffffffffffffffffffffffffffff16815260200190815260200160002080549050811015611acb5782600560008673ffffffffffffffffffffffffffffffffffffffff1673ffffffffffffffffffffffffffffffffffffffff1681526020019081526020016000208281548110611a9f57611a9e613651565b5b906000526020600020015403611ab85760019150611acb565b8080611ac390613746565b915050611a03565b5080611b3857600560008473ffffffffffffffffffffffffffffffffffffffff1673ffffffffffffffffffffffffffffffffffffffff1681526020019081526020016000208290806001815401808255809150506001900390600052602060002001600090919091909150555b505050565b600033905090565b600073ffffffffffffffffffffffffffffffffffffffff168273ffffffffffffffffffffffffffffffffffffffff1603611bb75760006040517fced3e100000000000000000000000000000000000000000000000000000000008152600401611bae9190613184565b60405180910390fd5b80600160008573ffffffffffffffffffffffffffffffffffffffff1673ffffffffffffffffffffffffffffffffffffffff16815260200190815260200160002060008473ffffffffffffffffffffffffffffffffffffffff1673ffffffffffffffffffffffffffffffffffffffff16815260200190815260200160002060006101000a81548160ff0219169083151502179055508173ffffffffffffffffffffffffffffffffffffffff168373ffffffffffffffffffffffffffffffffffffffff167f17307eab39ab6107e8899845ad3d59bd9653f200f220920489ca2b5937696c3183604051611ca8919061297d565b60405180910390a3505050565b6000611cbf611b3d565b90508073ffffffffffffffffffffffffffffffffffffffff168673ffffffffffffffffffffffffffffffffffffffff1614158015611d045750611d0286826114b0565b155b15611d485780866040517fe237d922000000000000000000000000000000000000000000000000000000008152600401611d3f929190613dc8565b60405180910390fd5b611d558686868686611f37565b505050505050565b600073ffffffffffffffffffffffffffffffffffffffff168473ffffffffffffffffffffffffffffffffffffffff1603611dcf5760006040517f57f447ce000000000000000000000000000000000000000000000000000000008152600401611dc69190613184565b60405180910390fd5b600073ffffffffffffffffffffffffffffffffffffffff168573ffffffffffffffffffffffffffffffffffffffff1603611e415760006040517f01a83514000000000000000000000000000000000000000000000000000000008152600401611e389190613184565b60405180910390fd5b611e4e8585858585611e85565b5050505050565b60608060405191506001825283602083015260408201905060018152826020820152604081016040529250929050565b611e9185858585612042565b600073ffffffffffffffffffffffffffffffffffffffff168473ffffffffffffffffffffffffffffffffffffffff1614611f30576000611ecf611b3d565b90506001845103611f1f576000611ef060008661180590919063ffffffff16565b90506000611f0860008661180590919063ffffffff16565b9050611f188389898585896123f0565b5050611f2e565b611f2d8187878787876125a4565b5b505b5050505050565b600073ffffffffffffffffffffffffffffffffffffffff168473ffffffffffffffffffffffffffffffffffffffff1603611fa95760006040517f57f447ce000000000000000000000000000000000000000000000000000000008152600401611fa09190613184565b60405180910390fd5b600073ffffffffffffffffffffffffffffffffffffffff168573ffffffffffffffffffffffffffffffffffffffff160361201b5760006040517f01a835140000000000000000000000000000000000000000000000000000000081526004016120129190613184565b60405180910390fd5b6000806120288585611e55565b915091506120398787848487611e85565b50505050505050565b805182511461208c57815181516040517f5b05999100000000000000000000000000000000000000000000000000000000815260040161208392919061378e565b60405180910390fd5b6000612096611b3d565b905060005b83518110156122ab5760006120b9828661180590919063ffffffff16565b905060006120d0838661180590919063ffffffff16565b9050600073ffffffffffffffffffffffffffffffffffffffff168873ffffffffffffffffffffffffffffffffffffffff16146121fd57600080600084815260200190815260200160002060008a73ffffffffffffffffffffffffffffffffffffffff1673ffffffffffffffffffffffffffffffffffffffff168152602001908152602001600020549050818110156121a557888183856040517f03dee4c500000000000000000000000000000000000000000000000000000000815260040161219c9493929190613df1565b60405180910390fd5b81810360008085815260200190815260200160002060008b73ffffffffffffffffffffffffffffffffffffffff1673ffffffffffffffffffffffffffffffffffffffff16815260200190815260200160002081905550505b600073ffffffffffffffffffffffffffffffffffffffff168773ffffffffffffffffffffffffffffffffffffffff1614612298578060008084815260200190815260200160002060008973ffffffffffffffffffffffffffffffffffffffff1673ffffffffffffffffffffffffffffffffffffffff16815260200190815260200160002060008282546122909190613680565b925050819055505b5050806122a490613746565b905061209b565b50600183510361236a5760006122cb60008561180590919063ffffffff16565b905060006122e360008561180590919063ffffffff16565b90508573ffffffffffffffffffffffffffffffffffffffff168773ffffffffffffffffffffffffffffffffffffffff168473ffffffffffffffffffffffffffffffffffffffff167fc3d58168c5ae7397731d063d5bbf3d657854427343f4c083240f7aacaa2d0f62858560405161235b92919061378e565b60405180910390a450506123e9565b8373ffffffffffffffffffffffffffffffffffffffff168573ffffffffffffffffffffffffffffffffffffffff168273ffffffffffffffffffffffffffffffffffffffff167f4a39dc06d4c0dbc64b70af90fd698a233a518aa5d07e595d983b8c0526c8f7fb86866040516123e0929190613e36565b60405180910390a45b5050505050565b60008473ffffffffffffffffffffffffffffffffffffffff163b111561259c578373ffffffffffffffffffffffffffffffffffffffff1663f23a6e6187878686866040518663ffffffff1660e01b8152600401612451959493929190613ec2565b6020604051808303816000875af192505050801561248d57506040513d601f19601f8201168201806040525081019061248a9190613f31565b60015b612511573d80600081146124bd576040519150601f19603f3d011682016040523d82523d6000602084013e6124c2565b606091505b50600081510361250957846040517f57f447ce0000000000000000000000000000000000000000000000000000000081526004016125009190613184565b60405180910390fd5b805181602001fd5b63f23a6e6160e01b7bffffffffffffffffffffffffffffffffffffffffffffffffffffffff1916817bffffffffffffffffffffffffffffffffffffffffffffffffffffffff19161461259a57846040517f57f447ce0000000000000000000000000000000000000000000000000000000081526004016125919190613184565b60405180910390fd5b505b505050505050565b60008473ffffffffffffffffffffffffffffffffffffffff163b1115612750578373ffffffffffffffffffffffffffffffffffffffff1663bc197c8187878686866040518663ffffffff1660e01b8152600401612605959493929190613f5e565b6020604051808303816000875af192505050801561264157506040513d601f19601f8201168201806040525081019061263e9190613f31565b60015b6126c5573d8060008114612671576040519150601f19603f3d011682016040523d82523d6000602084013e612676565b606091505b5060008151036126bd57846040517f57f447ce0000000000000000000000000000000000000000000000000000000081526004016126b49190613184565b60405180910390fd5b805181602001fd5b63bc197c8160e01b7bffffffffffffffffffffffffffffffffffffffffffffffffffffffff1916817bffffffffffffffffffffffffffffffffffffffffffffffffffffffff19161461274e57846040517f57f447ce0000000000000000000000000000000000000000000000000000000081526004016127459190613184565b60405180910390fd5b505b505050505050565b6040518060e0016040528060608152602001606081526020016060815260200160008152602001600081526020016000815260200161279561279b565b81525090565b6040518060400160405280600073ffffffffffffffffffffffffffffffffffffffff168152602001600081525090565b6000604051905090565b600080fd5b600080fd5b600073ffffffffffffffffffffffffffffffffffffffff82169050919050565b600061280a826127df565b9050919050565b61281a816127ff565b811461282557600080fd5b50565b60008135905061283781612811565b92915050565b6000819050919050565b6128508161283d565b811461285b57600080fd5b50565b60008135905061286d81612847565b92915050565b6000806040838503121561288a576128896127d5565b5b600061289885828601612828565b92505060206128a98582860161285e565b9150509250929050565b6128bc8161283d565b82525050565b60006020820190506128d760008301846128b3565b92915050565b60007fffffffff0000000000000000000000000000000000000000000000000000000082169050919050565b612912816128dd565b811461291d57600080fd5b50565b60008135905061292f81612909565b92915050565b60006020828403121561294b5761294a6127d5565b5b600061295984828501612920565b91505092915050565b60008115159050919050565b61297781612962565b82525050565b6000602082019050612992600083018461296e565b92915050565b6000602082840312156129ae576129ad6127d5565b5b60006129bc8482850161285e565b91505092915050565b600081519050919050565b600082825260208201905092915050565b60005b838110156129ff5780820151818401526020810190506129e4565b60008484015250505050565b6000601f19601f8301169050919050565b6000612a27826129c5565b612a3181856129d0565b9350612a418185602086016129e1565b612a4a81612a0b565b840191505092915050565b60006020820190508181036000830152612a6f8184612a1c565b905092915050565b600080fd5b7f4e487b7100000000000000000000000000000000000000000000000000000000600052604160045260246000fd5b612ab482612a0b565b810181811067ffffffffffffffff82111715612ad357612ad2612a7c565b5b80604052505050565b6000612ae66127cb565b9050612af28282612aab565b919050565b600067ffffffffffffffff821115612b1257612b11612a7c565b5b602082029050602081019050919050565b600080fd5b6000612b3b612b3684612af7565b612adc565b90508083825260208201905060208402830185811115612b5e57612b5d612b23565b5b835b81811015612b875780612b73888261285e565b845260208401935050602081019050612b60565b5050509392505050565b600082601f830112612ba657612ba5612a77565b5b8135612bb6848260208601612b28565b91505092915050565b600080fd5b600067ffffffffffffffff821115612bdf57612bde612a7c565b5b612be882612a0b565b9050602081019050919050565b82818337600083830152505050565b6000612c17612c1284612bc4565b612adc565b905082815260208101848484011115612c3357612c32612bbf565b5b612c3e848285612bf5565b509392505050565b600082601f830112612c5b57612c5a612a77565b5b8135612c6b848260208601612c04565b91505092915050565b600080600080600060a08688031215612c9057612c8f6127d5565b5b6000612c9e88828901612828565b9550506020612caf88828901612828565b945050604086013567ffffffffffffffff811115612cd057612ccf6127da565b5b612cdc88828901612b91565b935050606086013567ffffffffffffffff811115612cfd57612cfc6127da565b5b612d0988828901612b91565b925050608086013567ffffffffffffffff811115612d2a57612d296127da565b5b612d3688828901612c46565b9150509295509295909350565b600067ffffffffffffffff821115612d5e57612d5d612a7c565b5b602082029050602081019050919050565b6000612d82612d7d84612d43565b612adc565b90508083825260208201905060208402830185811115612da557612da4612b23565b5b835b81811015612dce5780612dba8882612828565b845260208401935050602081019050612da7565b5050509392505050565b600082601f830112612ded57612dec612a77565b5b8135612dfd848260208601612d6f565b91505092915050565b60008060408385031215612e1d57612e1c6127d5565b5b600083013567ffffffffffffffff811115612e3b57612e3a6127da565b5b612e4785828601612dd8565b925050602083013567ffffffffffffffff811115612e6857612e676127da565b5b612e7485828601612b91565b9150509250929050565b600081519050919050565b600082825260208201905092915050565b6000819050602082019050919050565b612eb38161283d565b82525050565b6000612ec58383612eaa565b60208301905092915050565b6000602082019050919050565b6000612ee982612e7e565b612ef38185612e89565b9350612efe83612e9a565b8060005b83811015612f2f578151612f168882612eb9565b9750612f2183612ed1565b925050600181019050612f02565b5085935050505092915050565b60006020820190508181036000830152612f568184612ede565b905092915050565b600060208284031215612f7457612f736127d5565b5b6000612f8284828501612828565b91505092915050565b600080600060608486031215612fa457612fa36127d5565b5b6000612fb28682870161285e565b9350506020612fc38682870161285e565b9250506040612fd486828701612828565b9150509250925092565b600067ffffffffffffffff821115612ff957612ff8612a7c565b5b61300282612a0b565b9050602081019050919050565b600061302261301d84612fde565b612adc565b90508281526020810184848401111561303e5761303d612bbf565b5b613049848285612bf5565b509392505050565b600082601f83011261306657613065612a77565b5b813561307684826020860161300f565b91505092915050565b600080600080600080600060e0888a03121561309e5761309d6127d5565b5b600088013567ffffffffffffffff8111156130bc576130bb6127da565b5b6130c88a828b01613051565b975050602088013567ffffffffffffffff8111156130e9576130e86127da565b5b6130f58a828b01613051565b965050604088013567ffffffffffffffff811115613116576131156127da565b5b6131228a828b01613051565b95505060606131338a828b0161285e565b94505060806131448a828b0161285e565b93505060a06131558a828b0161285e565b92505060c06131668a828b01612828565b91505092959891949750929550565b61317e816127ff565b82525050565b60006020820190506131996000830184613175565b92915050565b600080604083850312156131b6576131b56127d5565b5b600083013567ffffffffffffffff8111156131d4576131d36127da565b5b6131e085828601613051565b92505060206131f185828601612828565b9150509250929050565b61320481612962565b811461320f57600080fd5b50565b600081359050613221816131fb565b92915050565b6000806040838503121561323e5761323d6127d5565b5b600061324c85828601612828565b925050602061325d85828601613212565b9150509250929050565b6000806040838503121561327e5761327d6127d5565b5b600061328c8582860161285e565b925050602061329d85828601612828565b9150509250929050565b600082825260208201905092915050565b60006132c3826129c5565b6132cd81856132a7565b93506132dd8185602086016129e1565b6132e681612a0b565b840191505092915050565b6132fa816127ff565b82525050565b60408201600082015161331660008501826132f1565b5060208201516133296020850182612eaa565b50505050565b600061010083016000830151848203600086015261334d82826132b8565b9150506020830151848203602086015261336782826132b8565b9150506040830151848203604086015261338182826132b8565b91505060608301516133966060860182612eaa565b5060808301516133a96080860182612eaa565b5060a08301516133bc60a0860182612eaa565b5060c08301516133cf60c0860182613300565b508091505092915050565b600060208201905081810360008301526133f4818461332f565b905092915050565b60008060008060808587031215613416576134156127d5565b5b600085013567ffffffffffffffff811115613434576134336127da565b5b61344087828801613051565b945050602085013567ffffffffffffffff811115613461576134606127da565b5b61346d87828801613051565b935050604085013567ffffffffffffffff81111561348e5761348d6127da565b5b61349a87828801613051565b92505060606134ab87828801612828565b91505092959194509250565b600080604083850312156134ce576134cd6127d5565b5b60006134dc85828601612828565b92505060206134ed85828601612828565b9150509250929050565b600080600080600060a08688031215613513576135126127d5565b5b600061352188828901612828565b955050602061353288828901612828565b94505060406135438882890161285e565b93505060606135548882890161285e565b925050608086013567ffffffffffffffff811115613575576135746127da565b5b61358188828901612c46565b9150509295509295909350565b7f4e487b7100000000000000000000000000000000000000000000000000000000600052601160045260246000fd5b60006135c88261283d565b91506135d38361283d565b92508282039050818111156135eb576135ea61358e565b5b92915050565b7f4e487b7100000000000000000000000000000000000000000000000000000000600052602260045260246000fd5b6000600282049050600182168061363857607f821691505b60208210810361364b5761364a6135f1565b5b50919050565b7f4e487b7100000000000000000000000000000000000000000000000000000000600052603260045260246000fd5b600061368b8261283d565b91506136968361283d565b92508282019050808211156136ae576136ad61358e565b5b92915050565b7f496e73756666696369656e7420756e6c6f636b65642062616c616e636520666f60008201527f72207472616e7366657200000000000000000000000000000000000000000000602082015250565b6000613710602a836129d0565b915061371b826136b4565b604082019050919050565b6000602082019050818103600083015261373f81613703565b9050919050565b60006137518261283d565b91507fffffffffffffffffffffffffffffffffffffffffffffffffffffffffffffffff82036137835761378261358e565b5b600182019050919050565b60006040820190506137a360008301856128b3565b6137b060208301846128b3565b9392505050565b7f416d6f756e74206d7573742062652067726561746572207468616e207a65726f600082015250565b60006137ed6020836129d0565b91506137f8826137b7565b602082019050919050565b6000602082019050818103600083015261381c816137e0565b9050919050565b7f496e73756666696369656e742062616c616e636520746f20667265657a650000600082015250565b6000613859601e836129d0565b915061386482613823565b602082019050919050565b600060208201905081810360008301526138888161384c565b9050919050565b7f496e73756666696369656e742066726f7a656e2062616c616e636520746f207560008201527f6e667265657a6500000000000000000000000000000000000000000000000000602082015250565b60006138eb6027836129d0565b91506138f68261388f565b604082019050919050565b6000602082019050818103600083015261391a816138de565b9050919050565b7f496e697469616c20737570706c792065786365656473206d617820737570706c60008201527f7900000000000000000000000000000000000000000000000000000000000000602082015250565b600061397d6021836129d0565b915061398882613921565b604082019050919050565b600060208201905081810360008301526139ac81613970565b9050919050565b600081905092915050565b60006139c9826129c5565b6139d381856139b3565b93506139e38185602086016129e1565b80840191505092915050565b60006139fb82846139be565b915081905092915050565b7f546f6b656e20494420616c726561647920657869737473000000000000000000600082015250565b6000613a3c6017836129d0565b9150613a4782613a06565b602082019050919050565b60006020820190508181036000830152613a6b81613a2f565b9050919050565b60008190508160005260206000209050919050565b60006020601f8301049050919050565b600082821b905092915050565b600060088302613ad47fffffffffffffffffffffffffffffffffffffffffffffffffffffffffffffffff82613a97565b613ade8683613a97565b95508019841693508086168417925050509392505050565b6000819050919050565b6000613b1b613b16613b118461283d565b613af6565b61283d565b9050919050565b6000819050919050565b613b3583613b00565b613b49613b4182613b22565b848454613aa4565b825550505050565b600090565b613b5e613b51565b613b69818484613b2c565b505050565b5b81811015613b8d57613b82600082613b56565b600181019050613b6f565b5050565b601f821115613bd257613ba381613a72565b613bac84613a87565b81016020851015613bbb578190505b613bcf613bc785613a87565b830182613b6e565b50505b505050565b600082821c905092915050565b6000613bf560001984600802613bd7565b1980831691505092915050565b6000613c0e8383613be4565b9150826002028217905092915050565b613c27826129c5565b67ffffffffffffffff811115613c4057613c3f612a7c565b5b613c4a8254613620565b613c55828285613b91565b600060209050601f831160018114613c885760008415613c76578287015190505b613c808582613c02565b865550613ce8565b601f198416613c9686613a72565b60005b82811015613cbe57848901518255600182019150602085019450602081019050613c99565b86831015613cdb5784890151613cd7601f891682613be4565b8355505b6001600288020188555050505b505050505050565b7f546f6b656e20494420646f6573206e6f74206578697374000000000000000000600082015250565b6000613d266017836129d0565b9150613d3182613cf0565b602082019050919050565b60006020820190508181036000830152613d5581613d19565b9050919050565b7f45786365656473206d617820737570706c790000000000000000000000000000600082015250565b6000613d926012836129d0565b9150613d9d82613d5c565b602082019050919050565b60006020820190508181036000830152613dc181613d85565b9050919050565b6000604082019050613ddd6000830185613175565b613dea6020830184613175565b9392505050565b6000608082019050613e066000830187613175565b613e1360208301866128b3565b613e2060408301856128b3565b613e2d60608301846128b3565b95945050505050565b60006040820190508181036000830152613e508185612ede565b90508181036020830152613e648184612ede565b90509392505050565b600081519050919050565b600082825260208201905092915050565b6000613e9482613e6d565b613e9e8185613e78565b9350613eae8185602086016129e1565b613eb781612a0b565b840191505092915050565b600060a082019050613ed76000830188613175565b613ee46020830187613175565b613ef160408301866128b3565b613efe60608301856128b3565b8181036080830152613f108184613e89565b90509695505050505050565b600081519050613f2b81612909565b92915050565b600060208284031215613f4757613f466127d5565b5b6000613f5584828501613f1c565b91505092915050565b600060a082019050613f736000830188613175565b613f806020830187613175565b8181036040830152613f928186612ede565b90508181036060830152613fa68185612ede565b90508181036080830152613fba8184613e89565b9050969550505050505056fea264697066735822122030f97490b4216430a5580077d05a1862909d3946aadeb54e7ac3768ac8e5c76c64736f6c63430008140033",
  "linkReferences": {},
  "deployedLinkReferences": {}
}